:0200000480007A
:1000000073700430735040309711001093818185D4
:1000100017810010130101FF970200009382021B59
:100020007390523073F05130170500001305C50866
:1000300097050000938545086300B5021766000028
:100040001306463163FAC5008322050023A055003C
:1000500011059105E3EAC5FE176500001305852F1C
:1000600097050010938505FA1386818263FAC5000F
:100070008322050023A0550011059105E3EAC5FE82
:1000800013858182938581B06377B50023200500B5
:100090001105E36DB5FE652E17350000130505DE6D
:1000A000EF20F05CEF20B060692101458145192007
:0400B000BD2301A0CB
:1000B400B70501FF4111938505F03725011006C6E8
:1000C4007922EF00305941657D15992BEF10304F9F
:1000D40001A0A54723A8F1827D55828073005010AA
:1000E400F5BF7D15854763E6A7008967DCC1014537
:1000F4008280A54723A8F1827D55828005458280B0
:1001040005458280D94723A8F1827D558280014527
:10011400828019C17D55828041113735011022C476
:1001240006C62E8421242300A400B240224405459F
:100134004101828017070010130787F21C4393863E
:1001440081B03E95636BD500977600109386466B1D
:1001540063E5A60008C33E858280FD573E85828004
:10016400011122CC4EC606CE26CA4AC82E84B289B4
:10017400EF20D07F29C533093401A94463990900CC
:100184003DA0050437350110412A63022403834549
:100194000400E39895FEB54537350110B52A83452B
:1001A4000400373501100504852AE31224FF4E8527
:1001B400F2406244D2444249B249056182807D558D
:1001C400C5BF00005D7106C012C216C41AC61EC89F
:1001D4002ACA2ECC32CE36D03AD23ED442DC46DEC7
:1001E400F2C0F6C2FAC4FEC6F322103416D6F322C5
:1001F400203416D8F322003016DA732520348A8589
:10020400A12CB25273901234C25273902234D2523F
:100214007390023082401242A2423243C24352459A
:10022400E245724682561257A2576258F258064E59
:10023400964E264FB64F616173002030AA8711C5D0
:10024400584D0145D98DCCCF82807D558280AA87B7
:1002540001C9184193C5F5FF0145F98D8CC382800E
:100264007D558280AA872DC5584589464D8F58C52E
:100274006306D60463EBC60005CA184901454D8FD1
:1002840098CBD84BD98DCCCB82800D47631CE6002C
:10029400144913C7F5FF0145D58D8CCBD44B758F0D
:1002A400D8CB828001458280144913C7F5FF0145EC
:1002B400758F98CBD84BD98DCCCB8280184993C5F8
:1002C400F5FF01456D8F98CBD84BF98DCCCB82804F
:1002D4007D55828019C1084D82807D558280AA8710
:1002E40015C9170700100327E7D7B355B70213073B
:1002F400000858C50145FD1513D785001377F70F7E
:10030400D8C393F5F50F8CC31307600C98C70D473A
:10031400D8C782807D55828001C95C4993F7070262
:10032400EDDF0CC1014582807D55828001C95C49A5
:10033400858BF5DF08411375F50F82801305F00FE7
:100344008280B7C7000203A787FF83A7C7FF4111B5
:1003540006C622C426C2BA8637C60002032786FF11
:100364008327C6FFF32400B0E38AE6FEB7C5000284
:1003740003A685FF83A6C5FF3304E640F32700B038
:10038400E368A4FEB3849740B3F5840222868146D1
:100394001395F500C581EF10D04733D68402B240DF
:1003A4002244924441013E06329582804111054522
:1003B40006C6413FB24013054006410159B74111F9
:1003C40022C42A84174500001305C5FA06C6EF2087
:1003D400704FA28517450000130505FBEF20503D23
:1003E400F325103417450000130505FBEF20503C9E
:1003F400F325303417450000130505FBEF20503B6F
:1004040001A0411122C42A84174500001305C5FA2E
:1004140006C6EF20304BA285174500001305C5F62C
:10042400EF201039F3251034174500001305C5F6E5
:10043400EF201038F32530342244B2401745000031
:10044400130585F641016F20B036B7B7C40493870E
:10045400074023A2F180828041119317450106C60B
:1004640022C4D183635105022D476383E7048A07BD
:1004740013870184BA979C4391C38297B240224464
:1004840001454101828029462A87AE86636BF600C6
:100494008A0713868186B2979C43EDD3B6853A8545
:1004A400E9BF970700009387C7F1B6853A85F1B78E
:1004B400F32740F13707200CB2071107BA9780439E
:1004C400C147E3ED87FA1317240093874189BA974C
:1004D4009C4391C38297F32740F13707200CB2075E
:1004E4001107BA9780C359BFC14763E0A704131724
:1004F4002500B707000CBA978CC309C693874189B6
:10050400BA9790C3F32740F13727000C9E07BA9798
:10051400944305473315A700558D88C38567938792
:10052400078073A04730014582807D558280411148
:1005340006C622C4A53DAA8713844180B7050300DB
:10054400372501101CC0DD39F16593850520373549
:100554000110713317460000130646E79745000063
:10056400938585E7174500001305C5E7EF20502460
:1005740097450000938585E917450000130545E973
:10058400EF2010230C40174500001305A5E9EF20C8
:100594003022970600009386C6E2938781861387EC
:1005A400418994C39107E39EE7FE170700001307F0
:1005B40087E5938741899386818D98C39107E39E4C
:1005C400F6FE938701849386818698C39107E39E00
:1005D400D7FE3706000C8146B728000C0548454570
:1005E400F32740F19E07C6978C433317D80013476F
:1005F400F7FF6D8F98C32320060085061106E3914B
:10060400A6FEF32740F13707200CB2402244B2077C
:10061400BA9723A007004101828082808280828071
:10062400931605013707208037662980AA96130799
:10063400075013060650930707B094C39107E39E2F
:10064400E7FE13870750E318C7FE82809347F5FF40
:1006540013D8F7412A9693C7F5FFAE963375A800D1
:10066400FD874206C206130800284186C186FD8D17
:10067400AA886354A80093080028C2081305001E22
:1006840093D80841AE876354B5009307001EC20790
:1006940093050028C187328363D4C500130300285F
:1006A400131603019305001E4186368563D4D500D5
:1006B4001305001E93160501C1861343F6FF13C5E7
:1006C400F6FF1353F3417D8583C581823373C300E1
:1006D400758DA5E563D2A70693C6F7FF1396270089
:1006E4003E96369593C5F8FF85079A954205C2074D
:1006F40041811E06C187C205C181AA97B386C8007D
:10070400AE961395270003A8C180860609083E9576
:1007140093C5F5FFC2961E058605B387D50063D73A
:1007240068002390E7008907E39DD7FE1306062897
:1007340093860650E313A6FE8280E3DFA7FE13062A
:10074400F01D9306F027B307F640B38E1641098EC9
:10075400B386664093950701131E0601C20E1395D6
:10076400060103A8C180C181135E0E0193DE0E0150
:10077400418163D26802139625002E961E06F687E1
:10078400B386C7008606FD17C296C2072390E6000B
:10079400C183E317F5FEFD15C205C181E31BBEFC51
:1007A40082809347F5FF13D8F7412A9693C7F5FF44
:1007B400AE963378A800FD874206C2069308002847
:1007C4004186C186FD8D428563D408011305002846
:1007D40042059307001E41852E8363D4B70013039B
:1007E400001E42039307002813530341328863D445
:1007F400C70013080028131608019305001E41863C
:10080400B68763D4D5009307001EC207C18793C679
:10081400F7FFFD86F58F1348F6FF1358F841139E32
:10082400070183C681823378C800135E0E41D5EA7E
:10083400635D0505931523001346F5FF9A95930808
:10084400FEFF429693967500939E08014206AA966F
:1008540093DE0E41418283A7C180369693982E0081
:10086400138F270086060606A205F698B6977A9691
:10087400B305B040A208B386F5002390E700C696FE
:100884002390E6008907E318F6FE6359C313134661
:10089400F3FF329E13160E014182330E6600931647
:1008A400230013162E009A9672969E061E0683A7A0
:1008B400C180AA962A9693850750860606063305B4
:1008C400A040B6972E9606050608B306F5002390B9
:1008D400E700C296239FE6FE93870750E317F6FED0
:1008E40082809302F01DB3826240939602011396B4
:1008F4000201939E0701C182418693DE0E01635F6C
:100904000505930FE01DB38FDF4193970F01C18756
:10091400130FF027939F2700BE9F93122600B3075F
:10092400AF40330F0F41B292C207420F83A8C18078
:100934009E029E0FC183135F0F01B385F2003386BD
:10094400F7018605C6950606FD172390E500469631
:10095400C2072310E600C183E311FFFE9307F027CB
:100964003385A7403388074142054208418513581F
:1009740008416356C3059307F01DB38ED741C20ED9
:10098400B708008083A5C18093DE0E0193C8F8FFE9
:1009940093972600B6979E073386A700C29706064C
:1009A400C6972E968607FD162310E600AE97C2065C
:1009B4002390E700C182E39DD6FD828082808280FD
:1009C40093F7760013D83600B337F000C29713D8E4
:1009D4001600B38707037971011622D626D44AD2AA
:1009E4004ED052CE56CC5ACA5EC862C666C46AC2DB
:1009F40003C8818293F7F70F1376F60F631C081070
:100A0400638D070E93131600931F3600B2931318C9
:100A14004600B29FFD171396230097440000938469
:100A240034E997430000938363A18A0FC29493F738
:100A3400F70FB29397420000938282E717460000B3
:100A440013060646B149B29F83AEC180C292BE94DA
:100A54002E86414AE14A138981801384A182130FAF
:100A6400F01D130BF0276386361D6387461F6396BC
:100A7400560903C80F001303160093180301130E3D
:100A8400860093D80801420EB388B840135E0E0165
:100A940025A8931726003E961E062A9606067696E5
:100AA40009E7835709002310F6001316030106080B
:100AB40041821378F80F6362CF04638FD8148508DA
:100AC4006302C6171303160093172600B2979E07F6
:100AD400AA97931B8801860793DB8B41F697E3DA89
:100AE4000BFA0356040006081378F80F2390C70086
:100AF400131603014182E372CFFC3254A2541259FB
:100B04008259724AE24A524BC24B324CA24C124DA9
:100B140045618280FDD313191600131436003299EF
:100B2400131846003294FD1713162900174A0000C3
:100B3400130A1AD817490000130949900A04429A63
:100B440093F7F70F329997440000938464D61746BD
:100B540000001306E634314B329483AFC180C29453
:100B64003E9A2E86414CE14C930BF0279303F01DE3
:100B7400938A81809389A1829302F01D130DF0273B
:100B84006389660D638D860DE39996F70348040027
:100B9400930E1600338EAB4013930E01130F860091
:100BA40013530301420E420F135E0E413303B3404D
:100BB400135F0F0125A8931726003E961E06729612
:100BC40006067E9609E783D70A002310F6001396DB
:100BD4000E01060841821378F80FE3E0C2F2638D38
:100BE400660405036300CF06930E16003386C340E4
:100BF4004206418693172600B2979E0793188801F0
:100C0400F297860793D88841FE97E3D608FA03D66D
:100C140009002390C70065BF050542054181E36EC5
:100C2400ABEC2E8685028503850FE38892ECE39E68
:100C340036E303C8030081B5050542054181E36E2F
:100C4400ADEA2E86850405090504E3089AEAE39BC8
:100C540066F3034809002DBF03C8020029BD03C879
:100C640004003DB7DDCE797122D41384F6FF26D279
:100C74004AD04ECE52CC56CA5AC85EC662C466C268
:100C84006AC006D6AA8C2E8BB289BA84935A1700EE
:100C9400137CF40F014D0149930BF00F294AE287AD
:100CA4007D1C137CFC0FA5C762888547139727001A
:100CB4007D18BA971378F80F8607E31978FFB3D72E
:100CC400F902B3F7470313F6F70F631609006354E9
:100CD4008D00A1C305490147A68613060603DA85DC
:100CE4006685F939D69CC20C050D93DC0C01E3181A
:100CF4007CFBB250225492540259F249624AD24ABD
:100D0400424BB24B224C924C024D45618280CE87BD
:100D14004DBF0147A68613060002DA8566854D316C
:100D2400D1B78280797122D426D24AD006D64ECE4B
:100D340052CC56CA5AC85EC662C43E8983C70700ED
:100D4400AE842A84938507FE2A9693F5F50F13053E
:100D5400E005A696636EB50493190601139A06017D
:100D64003A8C93D90901135A0A01135B1700937B38
:100D7400F40F930AE00529A8A131834709005A9486
:100D84004204138607FE1376F60F418063E2CA021B
:100D94003E860147E2860509B38784016366340110
:100DA400939407015E84C1802285A685E3E644FD11
:100DB400B250225492540259F249624AD24A424BE6
:100DC400B24B224C4561828041113725011006C681
:100DD400EFF04FD0C1476303F504930700026309A2
:100DE400F502930700046305F50493070008630DF7
:100DF400F50291476304F504A1476305F50405472B
:100E04006306E50409476318E5002386F18221A0FF
:100E140089472386F182B24041018280B2408547EE
:100E24002386F1824101828091472386F182E5B7CE
:100E3400B2408D472386F182410182809547238603
:100E4400F182D1BF99472386F182F1B79D4723866A
:100E5400F182D1B741119305F00F3725011006C671
:100E6400EFF0EFBE01469305F00F37250110EFF0C8
:100E74006FBF17060000130666F585453D45EFF084
:100E8400AFE673600430B24041018280B7C700020C
:100E940003AE87FF83AEC7FF011103A387FF83A3BC
:100EA400C7FF22CC1384818F9397BE0113575E0032
:100EB4004EC60848832904029395B30103284401CC
:100EC40050505D8F93575300CD8F3305A74093D572
:100ED4005E0026CAB389374193D45300B3B73701B0
:100EE4003337A700B3850541918C998D9D8C06CE2F
:100EF4004CCC4AC852C408CC2324340344D4EF1045
:100F040070602A894840EF1050544C582A8A4A8508
:100F1400EF108078AA855285EF10101A0C5C2A8A8B
:100F24004A85EF106077CA85EF100077AA8552854D
:100F3400EF102044EF10704B08C4F94763C8A704AE
:100F4400FD471CC489E49307200363F93703185849
:100F54008D4681476304D7009307170037C7000203
:100F6400032687FF8326C7FF1CD893575600139781
:100F7400B601D98F13D756001CD058D0F240624422
:100F8400D2444249B249224A056182800347C400DF
:100F94009307D01A998FE3D7A7FA1CC465B7938730
:100FA400818F88477D476359A70883C6C700130705
:100FB400D01A158F6352E508938581989043D441E4
:100FC4000398A5001547918E3307074163C7E600D0
:100FD40003C7D700711763C4E6089385819DD44184
:100FE4000398A5001547918E3307074163C7E600B0
:100FF40003C7D700711763C5E604938581A2D8415E
:101004000398A5009546118FB38606416345D70220
:1010140083C6D700F1166350D7028396850003C7B1
:10102400C7009307E01A3385A740158D6342A706CE
:101034008D47238CF18C82800D47238CE18CADBFCE
:10104400039885001307E01A83C6C700098F330786
:10105400074163CAE6020D47238CE18C79BF0398EC
:1010640085001307E01A83C6C700098F33070741B9
:1010740063C6E6000D47238CE18C85B78396C500D3
:10108400E34DD7F4C5BF8396C500E348D7F6E1B76F
:101094008397C500E341F5FA61BF035785009307C1
:1010A400E01A5D71998FA2C4C20786C6A6C2CAC0DF
:1010B4004EDE52DC56DA05472A84C1870315450003
:1010C400638EE5089384818003D70400BE85A94616
:1010D40013064002EFF08FD78357840048409305EE
:1010E400801B03D70400938667FF9D8D0905C20604
:1010F400C2054205C18213060002C1854185EFF095
:10110400EFD4835584008357C40003D70400031528
:101114004400AE979305401A9D8DC205A946130657
:101124004002C185EFF08FD2835784004840930674
:101134002012264403D70400B64096440649F259C7
:10114400625AD25A9D8E0905C2064205C18213060F
:101154000002F945418561616FF04FCF17570000D8
:10116400130747AF8323070083224700832F870099
:10117400032FC700832E0701032E47010323870192
:101184008328C70103280702854601471306400246
:10119400BE851309C1001EC616C87ECA7ACC76CE97
:1011A40072D01AD246D442D6130A0103EFF00FCA02
:1011B400CA898144930AF01A83558400484003D7AE
:1011C4000900B385BA402695C20542058904A146A3
:1011D4000946C1854185C2048909EFF02FC7C18042
:1011E400E31C3AFD835784009305701B03154400E8
:1011F4009D8DC2050147854613064002C185EFF067
:10120400EFC48357840048409305901B938647FF9F
:101214009D8D15052567C206C2054205130737DCF7
:10122400C1826946C1854185EFF04FC2835784006E
:1012340048409305801B938667FF9D8D1105C20668
:10124400C20542050147C1827146C1854185EFF05F
:101254004FD5835584008357C400031544000147C8
:10126400AE979305D01A9D8DC2058546130640029C
:10127400C185EFF0AFBD81449309501A83558400B2
:101284008357C400484003570900BE952695B3858B
:10129400B940C20542058904A1460946C185418574
:1012A400C2040909EFF08FBAC180E3192AFD8355FE
:1012B40084008357C400031544000147AE97930587
:1012C400401A9D8DC205854613064002C185EFF084
:1012D400EFB7835784004840930600129D8E15058E
:1012E4002567C2064205130737DCC1826946FD45FE
:1012F4004185EFF0AFB58357840048409306201230
:101304002644B64096440649F259625AD25A9D8EF2
:101314001105C20642050147C1827146F94541855E
:1013240061616FF00FC801114EC6B7C9000203A670
:1013340089FF83A6C9FF26CA938481984AC803A952
:1013440004011397B60193575600CC48D98F3389BB
:10135400274122CC884013D45600B3B727010D8C03
:101364001D8C06CEC0CC52C456C223AC2401EF104F
:10137400D00DAA87A2854A853E84EF10B0188C5000
:10138400EF108031AA852285EF100053EF10F0058D
:101394008397A400C8C0B307F04063DEA71C37CA14
:1013A400000203268AFF8326CAFF1384819D8329B2
:1013B40004011397B601935756004C48D98F13D99B
:1013C4005600B3893741B3B737013309B9400840F0
:1013D4003309F940232E2401232C3401EF10F006A5
:1013E400AA87CA854E853E89EF10D0110C50EF10A4
:1013F400A02AAA854A85EF10204CEF10007F83179E
:10140400A40048C0B307F04063DAA712B7CA0002C9
:1014140003A68AFF83A6CAFF138981A2032A0901AE
:101424001397B6019357560083254901D98F93D951
:101434005600338A4741B3B74701B389B9400325FE
:101444000900B389F940232E3901232C4901EF10F7
:10145400C07FAA87CE855285BE89EF10B00A832546
:101464000902EF106023AA854E85EF10E044EF10C7
:10147400C0778315A9002322A900B307B04063DA1B
:10148400A7068396A400D0409387818F9843B29691
:1014940063D5E60083C60704B1C68316A400504092
:1014A400B29663D5E60083C6170495C62E95635B92
:1014B400E50003C7270419E7D85F85462381D704CD
:1014C4000507D8DFF2406244D2444249B249224A75
:1014D400924A05618280D45F0546A380C7048506CD
:1014E400D4DFE9B7D45F05462380C7048506D4DF7B
:1014F4006DB7930700282320F9002322F900EF1089
:10150400F03C93072012B367F50203A68AFF83A673
:10151400CAFF03254900135756001398B6013367D1
:10152400070195822328E9008315A900232AD900FD
:10153400238D0192F9072314F900A1B7930700281A
:101544001CC05CC0EF109038930720123365F5027D
:1015540003268AFF8326CAFFA38C01929357560061
:101564001397B601D98F13D756001CC858C87905EC
:101574002314A40061BD930700289CC0DCC0EF10B5
:10158400F034930720123365F50203A689FF83A67E
:10159400C9FF238C0192935756001397B601D98F34
:1015A40013D756009CC8D8C879052394A400C5BB9A
:1015B4009387818F794798C337C70002032587FF34
:1015C4008325C7FF032E87FF832EC7FF1306800CD6
:1015D40013575E001398BE01336707011393B501D7
:1015E40093565500D0C390C798D3096613070000DB
:1015F40013D55500B3E6660093D55E001306862125
:10160400D8DB17F7FF0F032727A72396C70094CB30
:10161400C8CBCCD323A8070298DF23AE07022390BC
:101624000704238107048280011137C6000252C6D1
:1016340056C4032A86FF832AC6FF032F86FF832FFF
:10164400C6FF032E86FF832EC6FF22CE4ACA4EC88B
:1016540026CC938681981387819D93074010930528
:10166400601D370628009392BA019CC2DCC20CC3E9
:10167400938781A24CC313535A009305802A9399EC
:10168400BF0193585F001399BE0113555E00130800
:101694004006130486028CC3CCC33363530097F50E
:1016A400FF0F83A5A59D93D35A0093026604B3E864
:1016B40038013365250113DF5F001306460B80C62E
:1016C40013DE5E002396060123A8660023AA760093
:1016D4008CD2232457002316070123281701232A19
:1016E400E7010CD390C72396070188CB23AAC7012F
:1016F40072448CD3E2445249C249324AA24A056137
:1017040082805D71A6C286C6A2C4CAC04EDE52DC07
:1017140056DA5AD85ED662D466D26AD06ECE85477F
:10172400AA846383F50E974700009387E754A16D5D
:10173400174C0000130C8C7A3EC4974B0000938B1B
:101744006B6002C6014A8D4C938D8D63114B854AA3
:10175400224D01440949930920029C586381270BB7
:101764006362F908C9CFB3878B0083D70700638806
:10177400970163E3FC0863845701639F27018C444A
:1017840088406E87D2952295C2054205894609464E
:10179400C1854185EFF0EF800904050DE31F34FB9B
:1017A400B247A246090A13871701C506420A3AC678
:1017B4009307C00C36C4135A0A01130C2C02938BE2
:1017C4002B02E317F7F8B640264496440649F2592B
:1017D400625AD25A425BB25B225C925C025DF24D69
:1017E40061618280E39A97FBB3078C0083D707007B
:1017F400E38797F9E3F1FCF8E38367F971BF834763
:101804000D00E39897F7A5BF416B974700009387B6
:10181400A746130D0BE0974A0000938A2A6C3EC436
:10182400174A0000130A0A5202C601448D4B91491B
:101834007D1BA24C814D094C05499C586387870741
:10184400636DFC06BDC3B307BA0183D70700638287
:10185400770763EEFB0663842709639F87018C4443
:1018640088405A87A2956E95C20542058946094665
:10187400C1854185EFE0FFF2890D93072002850CB5
:10188400E39DFDFAB247A246090413871701C50672
:1018940042043AC69307C00C36C44180938A2A0294
:1018A400130A2A02E317F7F839BF83C70C00E3923F
:1018B40077FB8C4488406A8775B7E39F77FBB387CF
:1018C400BA0183D70700E38677FFE3F6FBF8E395D5
:1018D40037FBC1678C4488401387078061B78C4409
:1018E4008840014741B74111014785461306002846
:1018F4009305E01A014506C6EFE0BFEA2567130722
:1019040037DC9D46130600289305F01A0145EFE0E5
:10191400FFD301478546130600289305701B014534
:10192400EFE03FE861478D4603A641939305C01B52
:101934001305C005EFF00FB3B24003D6018F614722
:101944008D469305C01B1305001241016FF08FB142
:10195400930700802395F1822167E17741119387F2
:101964008763130787639306E01A130600288145EB
:10197400014506C62394F180EFE05FCD9747000050
:101984009387C7276147E146130600099305C01BE7
:101994005145EFF02FB9974700009387A726614779
:1019A400E146130600069305C01B1305000FEFF074
:1019B4006FB7FD3E9539053F854513858198EFF056
:1019C400CFED85451385819DEFF02FED854513857A
:1019D40081A2EFF08FECB24085451385818F4101E0
:1019E4000DB33727011083C7C1825843FD17B706CB
:1019F400001093B71700758FD98F95CB9387818F7C
:101A04009847D8C337C70002032687FF8326C7FF3A
:101A140017E7FF0F0327C766D8DB23860182939558
:101A2400B601135756004D8F958298CBD4CB828044
:101A3400011106CE22CC26CA4AC84EC652C456C28A
:101A44009387818F138701949386019403A30700DE
:101A540083A8470003A88700C8478C4BD04B23209A
:101A64006700232217012324070148C70CCB50CB5E
:101A7400E1076107E39CD7FC138781989387819DD5
:101A840004434043832387008322C700832F070135
:101A9400032F4701832E8701032EC7010323070267
:101AA4008328470203A80700C8438C471386019B79
:101AB400138701A0938681A204C240C22324760026
:101AC400232656002328F601232AE601232CD601D7
:101AD400232EC60123206602232216032320070196
:101AE40048C383AAC70003AA070183A9470103A91E
:101AF4008701C44F805383A347020CC79042938746
:101B040001A5B725011090C303C6C182CC4183A2AD
:101B1400460083AF860003AFC60083AE060103AE62
:101B2400460103A3860183A8C60103A80602C8527E
:101B34009306B6FF3706004093B616006D8E23A2B7
:101B4400570023A4F70123A6E70123A8D70123AA5A
:101B5400C70123AC670023AE170123A00703C8D332
:101B64002326570123284701232A3701232C270141
:101B740044CF00D323227702B3E7C60091EBF240AF
:101B84006244D2444249B249224A924A056182805F
:101B94008947238CF18C6D3B23860182CDB7B72610
:101BA400011083C7C182D842E917370600204111CA
:101BB40093B71700718F06C622C4D98FB9E383C7C0
:101BC400C18211476389E700DC4263C60700B24063
:101BD40022444101828083C78182CDC7238401824C
:101BE400853B9387818D83C6070009476395E6008B
:101BF40005472380E700B240224423860182410145
:101C040082804164130704FE9306800C13060019B6
:101C14009305C00813058007EFE05FA31307F4FFE3
:101C24009306000C13068018930500091305C007DA
:101C3400EFE0DFA17D5897470000938727FD6147B8
:101C4400E146130680139305800C1305C00E2394FC
:101C5400018123950182EFF0EF8C97470000938771
:101C640067FC6147E1461306401493059010130581
:101C7400800FEFF02F8BB70040208280B2402244C7
:101C84004101828085472384F18299BF411106C6B0
:101C940083C7818D09476389E70C0547638EE7068F
:101CA4000D476385E700B2404101828001479306F6
:101CB40060091306800C9305500A1305C00DEFE06C
:101CC4005FAE3D671307F764930640091306600C83
:101CD4009305600A1305D00DEFE0BFAC97470000F1
:101CE4009387C7F56147E146130600069305E00BA9
:101CF40013050011EFF00F83B2409747000093875C
:101D0400A7F46147E1461306800793059010130575
:101D1400401041016FF00F810147930660091306DB
:101D2400800C9305500A1305C00DEFE09FA73D6793
:101D34001307F764930640091306600C9305600AC1
:101D44001305D00DEFE0FFA5B2409747000093873D
:101D540067EE6147E146130640059305400E1305FF
:101D6400601141016FE01FFCBD3E81451385019B5D
:101D7400EFF0AFB2854513858198EFF00FB281453E
:101D8400138501A0EFF06FB185451385819DEFF0B8
:101D9400CFB08145138501A5EFF02FB0854513859C
:101DA40081A2EFF08FAF814513850194EFF07F9509
:101DB400B24085451385818F41016FF09F94B7C769
:101DC400000203A787FF83A7C7FF797122D4138476
:101DD400818D26D24AD04ECE52CC56CA5AC85EC63F
:101DE40062C466C26AC02398018E5CC406D618C455
:101DF400853685472300F40081448546938AD18241
:101E0400138B0194138A019B138D8198938901A0EC
:101E1400938C819D138901A5138C81A2938BC1821C
:101E240009A885476384F61E9D3B8D3583460400CF
:101E3400D9C683C70A0093F7F70FD1E3B7C70002E7
:101E440003A587FF184483A5C7FF5C443307E54017
:101E54003336E500B387F540918F18C85CC8850414
:101E640081E7A167636DF700B7C7000203A787FF87
:101E740083A7C7FF231C940018C481445CC409478A
:101E8400638DE6048D47E39EF6F883C70B00B726FF
:101E94000110D44293F7F70FED173706004093B7BC
:101EA4001700F18ED58FC9D32300E400EFF05FAAA9
:101EB40023860182ED31D93B83460400BDFAB2503A
:101EC400225492540259F249624AD24A424BB24BCA
:101ED400224C924C024D456182809387818F1387F7
:101EE400019483A8070003A847008847CC47904B78
:101EF400D44B232017012322070108C74CC710CB5A
:101F040054CBE1076107E39E67FD832F0D00032F88
:101F14004D00832E8D00032ECD0083284D01032810
:101F24008D010325CD0183250D0203264D0283A6D1
:101F34000C0003A74C0083A78C0003230D0183A38B
:101F44004C0183A28C012320FA012322EA0183AFEE
:101F5400CC0103AF0C022324DA012326CA0183AE89
:101F64004C02032E0C00232A1A01232C0A01232ECF
:101F7400AA002320BA022322CA0223A0D90023A242
:101F8400E90023A4F90023286A0003234C0083A05A
:101F9400CC0083288C000328CC0003250C01832566
:101FA4004C0103268C018326CC0103270C028327D2
:101FB4004C0223A6190083A00C0123AA790023ACA8
:101FC400590023A8190023AEF90123A0E90323A291
:101FD400D9032320C90123226900232419012326BC
:101FE40009012328A900232AB900232CC900232E80
:101FF400D9002320E9022322F902EFF09F9EEFE0AB
:10200400FFE8EFF04FB2EFE09FF939BDEFF05FA2C8
:1020140021BDAA88AE87328836854683639606201A
:10202400974600009386C60863FFC50A4167637537
:10203400E60A1307F00F3337C7000E073355E600DF
:10204400AA9683C60600130500023697B306E54038
:10205400630BE500B395D70033D7E8003318D600F7
:10206400D98D3393D80093580801B3D615031316AA
:10207400080141829357030133F715033685B305ED
:10208400D6024207D98F63FCB700C2971385F6FFC7
:1020940063E7070163F5B7001385E6FFC2978D8FE9
:1020A40033F71703420313530301B3D7170342074C
:1020B40033636700B306F6023E86637BD300429324
:1020C4001386F7FF636603016374D3001386E7FF87
:1020D4004205518D81455DA8370500014147E36FF5
:1020E400A6F46147A1BF01E605473358C70241671B
:1020F400637FE8081307F00F637307012145335723
:10210400A800BA9603C70600130600022A97B3066E
:10211400E6406315E608B3870741854593580801EF
:1021240013160801418213570301B3F61703B3D7FB
:102134001703C206558F330EF6023E85637CC70132
:1021440042971385F7FF636707016375C70113851A
:10215400E7FF42973307C741B3771703420313538B
:10216400030133571703C20733E36700B306E602DC
:102174003A86637BD30042931306F7FF6366030139
:102184006374D3001306E7FF4205518D828037073D
:1021940000014145E365E8F6614595B73318D80079
:1021A40033D5E7003393D800B397D70033D7E8008B
:1021B400935808013366F700337715039317080122
:1021C400C183935506013355150342074D8FB386DA
:1021D400A702AA85637CD70042979305F5FF63673E
:1021E40007016375D7009305E5FF4297B306D7400F
:1021F40033F7160342064182B3D6160342073385EA
:10220400D702B367C700368763FCA700C29713875A
:10221400F6FF63E7070163F5A7001387E6FFC2979C
:10222400C205898FD98DDDBD63E2D514416763FF93
:10223400E6021307F00FB335D7008E0533D5B60089
:10224400174700001307C7E62A970347070013053B
:1022540000022E97B305E5406311E5020545E3E767
:10226400F6F233B5C800134515000DB73707000162
:10227400C145E3E5E6FCE145D1B73358E600B39642
:10228400B6003368D80033D3E700935E0801B37611
:10229400D303B397B70033D7E800331EB6003366D1
:1022A400F70093170801C183135706013353D3036F
:1022B400C206558F338F67021A85637CE701429704
:1022C4001305F3FF636707016375E7011305E3FF74
:1022D40042973307E741B376D7033357D703C20690
:1022E4003383E70293170601C183D58F3A8663FCD3
:1022F4006700C2971306F7FF63E7070163F56700FA
:102304001306E7FFC2974205C16E518D9386FEFF07
:1023140013560E0113580501B38767403373D50074
:10232400B376DE00330ED302B306D80213570E0180
:102334003303C30236931A973308C8026373D70072
:10234400769893560701369863E00703E39407D918
:10235400C167FD177D8F4207337EFE00B398B80036
:1023640072978145E3F4E8E27D15ADB381450145FB
:1023740031BD3707800041117D17B377A70022C410
:1023840026C2135475019354F50113D575016D8F4D
:102394001374F40F1375F50F06C64AC0FD818E073A
:1023A4000E07B306A4406396B412635CD00605E13D
:1023B400630F07101386F6FF01E6BA97054481A060
:1023C4009305F00F639DB6001304F00FC1A8130624
:1023D400F00F6305C40C37060004518F3686ED45B3
:1023E400854663CDC50093060002918EB355C700A0
:1023F4003317D7003337E000B3E6E500B697370765
:1024040000047D8F41CF05041307F00F630AE42213
:102414003707007E93F617007D178583F98FD58FD4
:10242400B5A8B1CAB306854001EC638507201386BD
:10243400F6FF41D69305F00F639CB600BA8769B7DF
:102444001306F00FE30CC5FE37060004D18F368661
:10245400ED45854663CDC50093060002918EB3D544
:10246400C700B397D700B337F000B3E6F500B387DE
:10247400E6002A8469B79306140013F6E60F31E2E6
:102484000DE8638B071A19CBBA97370700047D8FC1
:1024940011C7370700FC7D17F98F054413F7770040
:1024A4006301071A13F7F7009146630CD7189107D5
:1024B40049AAC9D711DB8144B70700021304F00FFE
:1024C40049A21306F00F638BC616BA978583368428
:1024D400F1B76350D00629E57DDB1386F6FF01E6EC
:1024E400998F05442DA09305F00FE38FB6ECED45CD
:1024F400854663CDC50093060002918EB355C7008F
:102504003317D7003337E000B3E6E500958F37097A
:10251400000433F7270159D37D1933F92701F1A0BA
:102524001306F00FE30CC4F637060004518F368609
:102534007DBFADC2B306854015E0638A07141386D8
:10254400F6FF09E6B307F740AE8461BF1308F00F46
:10255400639E0601BA871304F00FB9A01306F00FA7
:10256400E30AC5FE37060004D18F36866D488546DA
:10257400634DC80093060002918E33D8C700B39709
:10258400D700B337F000B366F800B307D7402A8406
:10259400AE84B5BF9306140093F6E60F8DEE0DE4FA
:1025A40091E7814459CFBA87AE84CDBDE30807EEE5
:1025B400B386E74037060004758EB307F7406DF61F
:1025C4008147A5C2B687D9BDE39607EEE30507EEBA
:1025D400BA87AE84D5BB3389E740B7060004B37627
:1025E400D90085CE3309F740AE844A85EF00300424
:1025F4006D153319A90063488502018D050513047F
:102604000002B357A9003305A4403319A900333994
:102614002001B3E72701014451B5E31809FC8147C0
:102624000144814439A8B70700FCFD17098CB3772E
:10263400F900ADB5BA8761BDBA878DB51304F00F43
:102644008147370700047D8F11CB05041307F00F72
:102654006302E404370700FC7D17F98F1307F00FBA
:102664008D836316E40081C7B707400081443705B2
:10267400807F5E04A607698CA583B240C18F224483
:102684001395F401024992445D8D41018280BA8719
:10269400368419BF8147D9B701114AC81359750146
:1026A40026CA4EC652C49314950006CE22CC56C2F6
:1026B4001379F90F2E8AA5809359F501630709064A
:1026C4009307F00F630FF9068E04B7070004DD8C3F
:1026D400130919F8814A13557A0113149A001375D2
:1026E400F50F2580135AFA0135C59307F00F630FD0
:1026F400F5060E04B70700045D8C130515F8814731
:1027040013972A005D8F4A957D17B945B3C64901D1
:102714001306150063E5E506974500009385859546
:102724000A072E9718432E97028795C026850127FE
:102734009307B5FF1309A0F8B394F4003309A94033
:1027440051BF1309F00F894AD9D48D4A69B7014999
:10275400854A51B715C02285D92D9307B5FF331487
:10276400F4009307A0F83385A74051BF1305F00F79
:10277400894759D48D4769B70145854751B7C16722
:102784001383F7FF13D7040193550401B3F46400D2
:1027940033746400B3089402330887023304B70225
:1027A400B385950293D40801C295AE9463F30401F2
:1027B4003E94B3F76400C207B3F86800C697139752
:1027C4006700C1803337E000E9832694D98F1A0467
:1027D4005D8CB7070008E18FB5C7935714000588CF
:1027E4005D8C1307F6076351E0069377740099C76D
:1027F4009377F40091456383B7001104B707000889
:10280400E18F99C7B70700F8FD177D8C13070608F9
:102814009307E00F0D8063DDE70601441307F00F13
:1028240085A8CE862684D6870947E388E7FE0D4728
:10283400638BE7040547E396E7FA0144014789A857
:10284400D286DDB72A8671BF8547998F6D47E346E7
:10285400F7FE1306E609B357F4003314C400333407
:1028640080005D8C9377740099C79377F4001147C7
:102874006383E7001104B7070004E18F0D80DDDFF7
:102884000144054731A0370440001307F00F814687
:102894009317770126043707807FF98F25805D8C95
:1028A4001395F601F240418D6244D2444249B24943
:1028B400224A924A056182803707800041117D17C0
:1028C40013D67501B377A70022C46D8F26C21354A3
:1028D400750106C64AC01376F60F9306F00F1374FB
:1028E400F40F9354F5018E07FD810E076313D60090
:1028F40019E393C51500B306C44063969512635C4F
:10290400D00605E2630F07101386F6FF01E6BA97B7
:10291400054481A09305F00F639DB6001304F00FE6
:10292400C1A81306F00F6305C40C37060004518FC9
:102934003686ED45854663CDC50093060002918E2B
:10294400B355C7003317D7003337E000B3E6E500CB
:10295400B697370700047D8F41CF05041307F00FA6
:102964006309E4223707007E93F617007D178583F9
:10297400F98FD58FB5A8B1CAB306864001EC63843C
:1029840007209385F6FFC1D51305F00F639CA600BD
:10299400BA8769B79305F00FE30CB6FEB7050004D8
:1029A400CD8FB6856D458546634DB500930600020F
:1029B4008D8E33D5B700B397D700B337F000B36625
:1029C400F500B387E600328469B79306140013F662
:1029D400E60F31E20DE8638A071A19CBBA97370775
:1029E40000047D8F11C7370700FC7D17F98F05445C
:1029F40013F777006300071A13F7F7009146630B88
:102A0400D718910741AAC9D711DB8144B70700023F
:102A14001304F00F41A21306F00F638AC616BA9787
:102A240085833684F1B76350D00629E67DDB1386AF
:102A3400F6FF01E6998F05442DA09305F00FE38F6F
:102A4400B6ECED45854663CDC50093060002918E34
:102A5400B355C7003317D7003337E000B3E6E500BA
:102A6400958F3709000433F7270159D37D1933F9BA
:102A74002701F1A01306F00FE30CC4F63706000497
:102A8400518F36867DBFADC2B306864015E063899B
:102A940007141385F6FF09E5B307F740AE8461BF59
:102AA4001308F00F639E0601BA871304F00FB9A050
:102AB4001305F00FE30AA6FE37050004C98F368517
:102AC4006D488546634DA80093060002898E33D86D
:102AD400A700B397D700B337F000B366F800B30785
:102AE400D7403284AE84B5BF9306140093F6E60F44
:102AF4008DEE0DE491E7814451CFBA87AE84CDBD0C
:102B0400E30807EEB386E74037060004758EB30783
:102B1400F7406DF68147B9CEB687D9BDE39607EE87
:102B2400E30507EEBA87AE84D5BB3389E740B70621
:102B34000004B376D9009DCA3309F740AE844A85B0
:102B4400FD246D153319A90063488502018D05051F
:102B540013040002B357A9003305A4403319A90094
:102B640033392001B3E72701014459B5E31909FCBE
:102B740081470144814439A8B70700FCFD17098C3B
:102B8400B377F900B5B5BA8769BDBA8795B51304AB
:102B9400F00F8147370700047D8F11CB050413071D
:102BA400F00F6302E404370700FC7D17F98F130765
:102BB400F00F8D836316E40081C7B707400081449A
:102BC4003705807F5E04A607698CA583B240C18F58
:102BD40022441395F401024992445D8D410182809F
:102BE400BA87368421BF8147D9B737068000135787
:102BF40075019307F6FF1377F70F9305E007E98F45
:102C04009356F50163D1E5049305D00963D8E50033
:102C1400370500801345F5FF3695828033E5C700FC
:102C24009307500963DAE7001307A7F63315E500A5
:102C340081CE3305A0408280930760093387E74043
:102C44003355E500F5B701458280411106C622C41B
:102C540026C255C59357F54133C4A7001D8C935420
:102C6400F5012285E9229307E0092A873385A740E5
:102C74009307600963C4A702A14763D5E7006117FE
:102C84003314E40026045E052580498C1395F40171
:102C9400B240418D224492444101828093079009BD
:102CA40063DDA7009547998F9306B701B357F400E6
:102CB4003314D400333480005D8C954763D6E70029
:102CC4009307B7FF3314F400B70600FCFD1693779F
:102CD4007400E18E91C73D8891476303F400910627
:102CE400B7070004F58F89CBB70700FCFD17FD8EED
:102CF4009307F0093385E74013D4360061B7814464
:102D0400014449B7011106CE22CC26CA4AC84EC690
:102D140052C4B367B500DDCF2A84AE89A9C12E851C
:102D24003922AA841309E00B3309994093076009F7
:102D340063CB27039307800263D69700938484FDB3
:102D4400331494002604131579012580F240418D33
:102D54006244D2444249B249224A05618280C12870
:102D640093040502C1B79307900963D2270313861E
:102D7400B4012285CE8579204D8D13065002333A55
:102D8400A000058E2285CE8589283364AA00930786
:102D9400500263D697009387B4FD3314F4003705CB
:102DA40000FC7D1593777400618D91C73D88914730
:102DB4006303F4001105B7070004E98F89CBB70753
:102DC40000FCFD171309F00B7D8D33099940135452
:102DD40035008DBF01440149B5B701CE9307000208
:102DE400918F6349F000130506FE014733D5A50012
:102DF400BA85828033D7C5003355C500B395F50035
:102E04004D8DFDB701CE93070002918F6349F00009
:102E1400930506FE0147B315B5003A858280331742
:102E2400C500B395C5003355F500C98DFDB7C1671D
:102E34006376F5029307F00FB3B7A7008E07130765
:102E440000021D8F3355F5009737000093874726FE
:102E54003E95034505003305A740828037070001EE
:102E6400C147E36EE5FCE147D9BFAA858146014627
:102E74000145D1A1411122C426C217340000130414
:102E8400244D973400009384A44C058C06C6098411
:102E940011E4B24022449244410182807D1493178C
:102EA4002400A6979C438297E5B7411122C426C209
:102EB400173400001304C449973400009384444930
:102EC400818C4AC006C68984014963159902173466
:102ED40000001304E4479734000093846447818C12
:102EE40089840149631D9900B240224492440249F5
:102EF400410182801C40050911048297F9B71C40E6
:102F0400050911048297F9BF3D432A876373C302FD
:102F14009377F700BDEFADE5937606FF3D8ABA9649
:102F24000CC34CC30CC74CC74107E36BD7FE11E27B
:102F34008280B306C3408A06970200009696678093
:102F4400A6002307B700A306B7002306B700A3050E
:102F5400B7002305B700A304B7002304B700A303F5
:102F6400B7002303B700A302B7002302B700A301ED
:102F7400B7002301B700A300B7002300B700828085
:102F840093F5F50F93968500D58D93960501D58D10
:102F940061B7939627009702000096968682E78091
:102FA40086FA9680C1171D8F3E96E374C3F8A5B7C1
:102FB4005D7122D406D62A842EDA32DC36DEBAC01B
:102FC400BEC2C2C4C6C603A5018111C51C4D81E79A
:102FD4002AC6952D32450C455418228636CEEF006C
:102FE400D02DB250225461618280011126CA4AC890
:102FF40006CE22CC4EC652C4AA842E8901C51C4DCD
:1030040091E391259C4C804499E326852D2D973797
:1030140000009387A726631CF402C0408357C400B2
:10302400A18BB1C71C48A1C7FD59294A1C4483453B
:103034000900FD17B1E91CC463DE07062286A94511
:1030440026853D22FD576308F502294535A09737AB
:1030540000009387A7246314F4008044C1B7973712
:1030640000009387A71FE31BF4FAC04445BFA28561
:1030740026857D2A55D97D55F2406244D244424981
:10308400B249224A056182801CC4050963D707003E
:10309400184C63CBE700638945011C401387170074
:1030A40018C02380B70059B722862685D120E31F94
:1030B40035F7D1B71C401387170018C02947238060
:1030C400E70061B7AA8503A5018105B7411122C4B0
:1030D40003A401811C5C06C6A1EB6145EF00207FBF
:1030E40008DC09ED973600009386860C01469305AB
:1030F400E004173500001305250D452CB737CDAB7B
:103104009387E7301CC1B7176DE6938747235CC1EB
:10311400B7E705009387C7EE1CC5AD472316F50036
:103124000547814718C95CC9105C3787954CB7F7C8
:103134005158144A484A1307D7F29387D742B387A2
:10314400F602B24022443305E5023E95B387E60217
:1031540033B7E6029386170014CA2A9733B5F600EC
:103164003A9548CA06050581410182806FC05FF91E
:10317400011122CC26CA4AC806CE4EC6AA842E897C
:10318400328401C51C4D91E37D2997370000938754
:10319400E70E6319F406C0401C4C1CC48357C400DA
:1031A400A18BC9C31C48BDCF1C4808409379F90FB3
:1031B4001379F90F1D8D5C486346F500A2852685B9
:1031C400A5262DE51C440505FD171CC41C401387CA
:1031D400170018C0238037015C486389A700835710
:1031E400C400858B81CBA9476316F900A285268587
:1031F400252E0DEDF2406244D244B2494A8542493B
:103204000561828097370000938747096314F400AF
:10321400804459B79737000093874704E31EF4F6B8
:10322400C0449DBFA285268521203DDD7D59D9B7A7
:10323400411122C426C24AC006C683A401812A8938
:103244002E8489C49C4C99E32685F52E973700007B
:103254009387C7026317F402C0408317C40013970F
:10326400070193F687004183ADEA9376070195EA57
:1032740025472320E90093E707042316F4007D552E
:1032840071A897370000938767016314F4008044A2
:10329400E9B797370000938767FCE310F4FCC04458
:1032A4006DBF118B0DC74C5889C9930744046384BF
:1032B400F5004A850D25232A04028357C4002322DE
:1032C400040093F7B7FD2316F4001C481CC0835771
:1032D400C40093E787002316F4001C4881EF83574A
:1032E400C4001307002093F707286385E700A2852D
:1032F4004A853D2B8317C4001397070193F61700E3
:1033040041839DC2544823240400B306D04014CC06
:103314001448014581E61377070831FFB24022447F
:10332400924402494101828093762700014691E24A
:10333400504810C4F1BFAA88138541831C4181EF12
:10334400138781A718C113050000BA8709C51C415A
:103354002324F708BA87D8437D487D556346E8049B
:10336400638D080203A88708630008041315270067
:10337400429510C10323081005463316E600336353
:10338400C300232068102320D50889466397D800FA
:1033940083264810558E2322C810930617000A0767
:1033A400D4C3BA978CC701458280411183A7018198
:1033B400328806C6AA882E87C84736869737000003
:1033C4009387C7E563170800971700009387C7031F
:1033D4003E88C68697350000938545E5AD26EF0007
:1033E400D05F83D7C500011122CC26CA06CE4AC8B5
:1033F4004EC613F78700AA842E8475E3D841634729
:10340400E000B8416344E000014575A858546DDFFD
:10341400856603A90400F58F23A00400A5CF68489E
:103424008357C400918B99C75C401D8D5C5899C328
:103434003C401D8D5C540C502A868146268582971B
:10344400FD570357C400631DF5009440F54763E33B
:10345400D708B70740208507B3D7D700858BBDCBE6
:103464001C48232204001CC085677D8F19C7FD57A3
:103474006314F5009C4091E368C84C5823A02401D0
:10348400C1D5930744046384F5002685A921232A22
:1034940004029DBF0C508546014626850297FD57C0
:1034A400E310F5F89C40ADDF75476385E7005947A5
:1034B4006395E70023A0240181BF8357C40093E7E9
:1034C40007042316F400F2406244D2444249B2494C
:1034D40005618280136707042316E400EDB783A90E
:1034E4000501E38309F203A905008D8B23A03501AF
:1034F40033093941014791E3D84918C4E35620F10F
:103504001C540C50CA864E8626858297634AA000B6
:103514008357C4007D5593E707042316F40065B769
:10352400AA993309A940D9BF9C49B9CF011122CC2A
:1035340006CE2A8411C51C4D81E72EC62922B24528
:1035440097370000938787D3639BF5004C4083979C
:10355400C50095C722856244F240056159B5973785
:1035640000009387A7D36394F5000C44CDB7973735
:1035740000009387A7CEE39CF5FC4C44C9BFF240FE
:10358400624401450561828001458280411122C463
:1035940006C62A842316B5002317C5002320050078
:1035A40023220500232405002322050623280500E1
:1035B400232A0500232C0500214681451305C50552
:1035C400EFF09F9497170000938707B35CD0971789
:1035D4000000938767B51CD4971700009387A7B999
:1035E4005CD497170000938767BCB24000D01CD806
:1035F40022444101828097050000938525F3B5A2FA
:10360400411126C2130680069384F5FFB384C402D5
:103614004AC02E8922C406C693854407B12E2A8443
:1036240001CD2320050023222501310508C413867A
:1036340084068145EFF05F8DB24022852244924496
:103644000249410182801C4DADE3411122C406C6EA
:1036540097070000938767FA1CD5232405042326C3
:1036640005042328050483A741822A846314F500F2
:1036740085471CCD22851D2848C02285052808C4FD
:1036840022852D2048C4484001469145013708440D
:103694000546A545E53D48440946C945C53D854718
:1036A400B2401CCC2244410182808280411126C256
:1036B40083A441829C4C4AC006C622C42A8999E349
:1036C40026855137938484048044DC40FD1763D6F7
:1036D40007009C40B9CF8440C5BF0317C40039E735
:1036E400C177850723220406232004002322040033
:1036F400232404005CC423280400232A0400232C6C
:103704000400214681451305C405EFF0EFFF232A89
:103714000402232C04022324040423260404B240B8
:103724002285224492440249410182801304840682
:1037340071BF91454A85E93588C02A8449FDB1475E
:103744002320F900E9BF397132D436D62E863410DD
:10375400AA8503A5018106CE3AD83EDA42DC46DECC
:1037640036C6A12EF24021618280797122D44AD0DA
:103774004ECE52CC5AC85EC606D626D256CA2A891E
:103784002E8A130485048149054BFD5B0444832A76
:103794004400FD1A63D00A0200406DF8B25022546E
:1037A40092540259624AD24A424BB24B4E85F24974
:1037B4004561828083D7C400637BFB008397E40068
:1037C40063877701A6854A85029AB3E9A9009384A1
:1037D4008406C1B75971CAD02E898395E500A2D455
:1037E400A6D286D63284B68463DC05008317C9006A
:1037F40023A0040093F7070895E3930700400DA066
:103804003000EF00F020E34305FE3247BD67F98F37
:103814007977BA9793B717009CC0C5B7930700048C
:10382400B6501CC0265496540659014565618280E1
:1038340083D7C500011122CC06CE26CA4AC8898B7B
:103844002E8489CF930774041CC01CC885475CC8A8
:10385400F2406244D24442490561828074003000DF
:103864002A898D3FA245AA844A85392201ED83170E
:10387400C40013F7072069FFF19B93E72700231681
:10388400F400C9B797070000938727D72324F902C8
:103894008357C40008C008C893E707082316F40038
:1038A400A2475CC8B24791CF8315E4004A85EF0074
:1038B400D01801C98357C400F19B93E7170023165E
:1038C400F4000355C400C98C2316940051B7AA858B
:1038D40003A5018155A0C5C183A7C5FF011122CC51
:1038E40006CE1384C5FF63D307003E942AC6EF00B7
:1038F400B01B138781831C43324589EB23220400C8
:1039040000C36244F24005616F00301A637DF40025
:103914001040B306C4006396D7009443DC43B296C8
:1039240014C05CC0F1BF3E87DC4399C3E37DF4FE61
:1039340014433306D700631F86001040B29614C3A5
:103944003306D700E39FC7FA9043DC43B29614C30F
:103954005CC345BF6375C400B1471CC15DB710406B
:10396400B306C4006396D7009443DC43B29614C0F4
:103974005CC040C379B78280011126CA93843500A4
:10398400F1984AC806CE22CC4EC6A104B1472A8972
:1039940063F2F404B14463E1B4044A85EF00D01047
:1039A4009386818398423A8439E01384C1831C400E
:1039B40089E781454A85192F08C0A6854A85392794
:1039C400FD59631A3507B1472320F9004A85EF00F2
:1039D400D00D31A0E3D104FCB1472320F900014507
:1039E400F2406244D2444249B249056182801C409B
:1039F400858F63CF07022D466376F6001CC03E9484
:103A040004C029A05C40631387029CC24A85EF006E
:103A1400D0091305B4009307440061993307F540B6
:103A2400E300F5FC3A94898F1CC05DBF5CC3F9BF09
:103A34002287404095BF130435007198E30285FC4A
:103A4400B305A4404A855925E31C35FBADBF1C468C
:103A5400FD171CC663DA0700184E63C5E700A947C3
:103A64006394F5006FF0CFF01C422E851387170086
:103A740018C22380B7008280011122CC26CA4AC80A
:103A84004EC652C406CE2A89AE893284B304D60007
:103A94007D5A63149400014509A8834504004E86A9
:103AA4004A8575370504E31645FFF2406244D24463
:103AB4004249B249224A05618280357122CD26CB22
:103AC4004AC94EC706CF52C556C35AC1DEDEE2DC30
:103AD400E6DAAA89AE843289368409C51C4D99E395
:103AE400EFF07FB69727000093874779639BF40C28
:103AF40083A4490083D7C400A18BF5C79C48E5C7BC
:103B040093070002A304F1029307000302D22305E2
:103B1400F10222C6930B5002972A0000938A0A7A74
:103B2400054C294B4A848347040099C36390770F5B
:103B3400B30C2441630D2401E6864A86A6854E858E
:103B4400253FFD576304F51E9257E6973ED28347FF
:103B54000400638D071CFD571309140002C802CE2C
:103B64003ECA02CCA309010482D483450900154648
:103B74005685312FC2471304190059E913F7070179
:103B840009C713070002A309E10413F7870009C753
:103B94001307B002A309E104834609001307A00236
:103BA4006380E608F2474A848146254603470400B9
:103BB40093051400130707FD6379E60AB5CA3ECEE0
:103BC40085A8972700009387676D6395F40083A405
:103BD40089000DB79727000093874768E39CF4F0AA
:103BE40083A4C90001BFA6854E85EFF06FE409D90F
:103BF4007D55FA406A44DA444A49BA492A4A9A4AFB
:103C04000A4BF65B665CD65C0D618280050421BFBD
:103C1400330555413315AC00C98F3EC82289B1B76D
:103C2400324793064700184336C6634907023ACE23
:103C3400034704009307E002631FF70403471400DB
:103C44009307A002631BF702B247090413874700D6
:103C54009C433AC663C107023ECA35A83307E04015
:103C640093E727003ACE3EC8E1B7B38767032E84B3
:103C74008546BA9725BFFD57C5B7050402CA8146D4
:103C8400814725460347040093051400130707FDE5
:103C94006374E606F1F2834504000D46172500001F
:103CA40013054562ED2311CD9727000093878761A3
:103CB4001D8D93070004B397A700424505045D8D4D
:103CC4002AC8834504001946172500001305C55F5B
:103CD400130914002304B1025D2B2DC193070000C6
:103CE40095E74247B2471377071009CF91073EC6BD
:103CF4009257D2973ED23DB5B38767032E8485464B
:103D0400BA9749B79D07E19BA107D5B778009706F5
:103D140000009386A6D626860C084E8597000000E0
:103D2400E7000000FD572A8AE314F5FC83D7C4009A
:103D340093F70704E39E07EA125565BD78009706DA
:103D440000009386A6D326860C084E85012AD9BF87
:103D5400797152CC9C493A8A984522D426D24ECEC7
:103D640056CA06D64AD05AC85EC6AA892E84B284D8
:103D7400B68A63D3E700BA879CC00347340419C3E7
:103D840085079CC01C4093F7070281C79C408907A4
:103D94009CC00329040013796900631A0900130BFA
:103DA4009401FD5B5C449840998F634CF90483470C
:103DB4003404B336F0001C4093F70702A5EB130656
:103DC4003404D6854E85029AFD576303F5041C40DE
:103DD40011469840998B544481446397C700B38437
:103DE400E64063D3040081441C4418486354F7003C
:103DF400998FBE94014969047D5B6398240501454C
:103E040009A885465A86D6854E85029A631E750191
:103E14007D55B250225492540259F249624AD24A10
:103E2400424BB24B456182800509ADBF3307D400D4
:103E340013060003A301C704034754049387160021
:103E4400A2978906A381E7049DBF85462286D6856D
:103E54004E85029AE30E65FB050945B7797122D4B4
:103E640026D24AD04ECE06D652CC56CA5AC803C819
:103E7400850193078007AA842E843289B68963EE6C
:103E84000701930720069386350463ED0701630554
:103E9400081C93078005630AF812930A240423017B
:103EA400040515A89307D8F993F7F70F5546E36669
:103EB400F6FE17260000130626448A07B2979C4391
:103EC400B29782871C43938A2504938647009C43B8
:103ED40014C32381F50485475DA29C41084313F66E
:103EE4000708930545000DC21C410CC363D80700A5
:103EF4001307D002B307F040A301E404172600001F
:103F04001306063D2948A1A013F607041C410CC35F
:103F140071DEC207C187D9BF90411C4313750608DF
:103F24009385470001C50CC39C4339A0137606044E
:103F34000CC37DDA83D707001307F00617260000A9
:103F4400130606396304E80E2948A3010404584003
:103F540018C4634507000C40ED990CC099E3B68A78
:103F640019CFB68A33F70703FD1A329703470700C0
:103F74002380EA003E87B3D70703E37507FFA14711
:103F8400631EF8001C40858B91CB58401C4863C7C6
:103F9400E70093070003A38FFAFEFD1AB386564188
:103FA40014C84E87CA867000A285268555337D5A6B
:103FB400631B450D7D55B250225492540259F24967
:103FC400624AD24A424B45618280A3820505172684
:103FD40000001306E62F0C40084313F805081C41A3
:103FE4001105630D080208C313F7150001C793E513
:103FF40005020CC04148B1FB18401377F7FD18C007
:10400400A9B79C4193E707029CC193078007A302C9
:10401400F404172600001306E62C75BF13F80504F4
:1040240008C3E30308FCC207C1837DBF214831BF35
:1040340090411C43CC491378060813854700630656
:10404400080008C39C438CC301A808C31376060464
:104054009C4375DA2390B70023280400B68A91B7ED
:104064001C43D04181459386470014C383AA0700AB
:104074005685312C01C53305554148C05C401CC8E8
:10408400A301040439BF14485686CA85268582993B
:10409400E30245F31C40898B8DE7B2474844E35C57
:1040A400F5F03E8509BF85465686CA8526858299E0
:1040B400E30265F1050A5C443247998FE345FAFE51
:1040C400E9BF014A930A94017D5BF5B7411122C40B
:1040D4002A842E8523A8018206C6EFC0AF85FD572A
:1040E4006316F50083A7018391C31CC0B240224428
:1040F40041018280411122C42E848395E50006C6C5
:104104007522634905007C48AA977CC8B2402244C2
:10411400410182808357C4007D777D17F98F231670
:10412400F400EDB783D7C500011122CC26CA4AC8D2
:104134004EC606CE93F70710AA842E843289B68918
:1041440091C78395E50089460146212A8357C40017
:104154007D777D17F98F8315E4002316F4006244FC
:10416400F240CE864A86B24942492685D244056148
:104174003DA8411122C42E848395E50006C6D520AE
:10418400FD570357C400631BF500FD77FD17F98F36
:104194002316F400B2402244410182808567D98FFE
:1041A4002316F40068C8FDB78395E50035A84111CE
:1041B40022C42A842E85B285368623A8018206C6A7
:1041C400EFB01FFAFD576316F50083A7018391C36F
:1041D4001CC0B2402244410182804111194506C6E7
:1041E400A92A0545EFB09FEF411122C42A842E85E8
:1041F40023A8018206C6EFB0DFEDFD576316F50074
:1042040083A7018391C31CC0B24022444101828030
:10421400411122C42A842E85B28523A8018206C6B0
:10422400EFB03FECFD576316F50083A7018391C3FC
:104234001CC0B240224441018280411122C42A841C
:104244002E8523A8018206C6EFB09FEBFD576316A7
:10425400F50083A7018391C31CC0B24022444101ED
:104264008280411122C42A842E85B285368623A8F1
:10427400018206C6EFB0BFE9FD576316F50083A7B8
:10428400018391C31CC0B24022444101828093F552
:10429400F50F2A966314C500014582808347050003
:1042A400E38DB7FE0505FDB782808280411122C4EB
:1042B4002A842E85B285368623A8018206C6EFB0ED
:1042C4005FE5FD576316F50083A7018391C31CC006
:1042D400B240224441018280011122CC06CEFD4726
:1042E4002A8463F9B700D9471CC17D55F240624462
:1042F400056182807C412E8691C713972500BA9769
:10430400984319EB228532C69520AA8522856244FA
:104314003246F240056135A085460145E308D7FCE5
:10432400FD566316D700D9471CC00545C1B72E8575
:1043340023A007000297014555BFAA8503A5018163
:1043440061BF411122C42A842E85B28523A801822B
:1043540006C6EFB03FDBFD576316F50083A7018364
:1043640091C31CC0B2402244410182806FB01FD966
:104374005472617020696E20457863657074696F4A
:104384006E0D00004D43415553453A203078256C5D
:10439400780D0A004D45504320203A203078256C92
:1043A400780D0A004D5456414C203A203078256C43
:1043B400780D0A005472617020696E20496E74652C
:1043C40072727570740D000032323A33343A3435F7
:1043D400000000004E6F7620323920323032330034
:1043E40048756D6D696E67426972642053444B2051
:1043F4004275696C642054696D653A2025732C20DC
:1044040025730D0A00000000494C4D00446F776E7F
:104414006C6F6164204D6F64653A2025730D0A004A
:10442400435055204672657175656E637920256C1D
:104434007520487A0D0A000000000000000000000A
:1044440000000000000000003F40000000000000E9
:1044540000003000400030004000000009000BC0A4
:104464003D000BC03D00090018C024407FE02240FD
:1044740031800000180024C01B000D8032400180F0
:1044840003801C4027401C8007400040100060004F
:1044940000000000000000000000000000001F8079
:1044A400204040200000402020401F8000000000E9
:1044B400090006001F800600090000000400040033
:1044C4003F800400040000000010006000000000B1
:1044D40000000000040004000400040004000000C4
:1044E400000000400000000000000000002001C0A7
:1044F40006003800400000001F802040204020407B
:104504001F800000000010403FC000400000000079
:1045140018C0214022402440184000001080204050
:10452400244024401B80000002000D0011003FC005
:10453400014000003C8024402440244023800000AB
:104544001F802440244034400380000030002000B9
:1045540027C03800200000001B8024402440244051
:104564001B8000001C0022C0224022401F8000004B
:1045740000000000084000000000000000000000EF
:104584000460000000000000000004000A001100A4
:1045940020804040090009000900090009000000CA
:1045A40000004040208011000A0004001800200090
:1045B40023402400180000001F8020402740294089
:1045C4001F400000004007C039000F0001C0004038
:1045D40020403FC0244024401B8000001F80204016
:1045E400204020403080000020403FC02040204038
:1045F4001F80000020403FC024402E4030C00000F7
:1046040020403FC024402E00300000000F001080E6
:10461400204022403380020020403FC004000400B8
:104624003FC02040204020403FC0204020400000A8
:104634000060202020203FC02000200020403FC0F8
:1046440024400B0030C0204020403FC020400040A8
:10465400004000C03FC03C0003C03C003FC000001D
:1046640020403FC00C4023003FC020001F8020405A
:10467400204020401F80000020403FC024402400F0
:10468400180000001F802140214020E01FA00000EE
:1046940020403FC02440260019C0004018C02440D8
:1046A4002440224031800000300020403FC02040A0
:1046B4003000000020003F80004000403F80200088
:1046C40020003E0001C0070038002000380007C069
:1046D4003C0007C038000000204039C0060039C043
:1046E400204000002000384007C03840200000006F
:1046F400304021C02640384020C0000000000000A7
:104704007FE0402040200000000070000C00038087
:10471400004000000000402040207FE00000000036
:1047240000002000400020000000000000100010E5
:1047340000100010001000100000000040000000F5
:1047440000000000000002800540054003C0004056
:1047540020003FC0044004400380000000000380A8
:10476400044004400640000000000380044024404C
:104774003FC00040000003800540054003400000A6
:10478400000004401FC0244024402000000002E038
:10479400055005500650042020403FC0044004004A
:1047A40003C000400000044027C000400000000097
:1047B40000100010041027E00000000020403FC05B
:1047C4000140070004C00440204020403FC0004096
:1047D4000040000007C0040007C0040003C000003C
:1047E400044007C00440040003C0004000000380EC
:1047F4000440044003800000041007F00450044007
:1048040003800000000003800440045007F00010FF
:10481400044007C0024004000400000000000640F9
:104824000540054004C00000000004001F8004404F
:1048340000400000040007800040044007C000401E
:104844000400070004C0018006000400060001C043
:10485400070001C006000000044006C0010006C0B5
:10486400044000000410071004E001800600040066
:104874000000044005C006400440000000000000A1
:1048840004007BE040200000000000000000FFF076
:1048940000000000000040207BE004000000000055
:1048A4004000800040002000200040000000000084
:1048B40000000000000000000000000000000000F4
:1048C40000001FCC000C00000000000000000800E5
:1048D400300060000800300060000000022003FC8B
:1048E4001E20022003FC1E200220000000000E18DF
:1048F40011043FFF10840C78000000000F001084A6
:104904000F3800C0077818840078000000780F84FE
:1049140010C411240E9800E4008400080800680004
:104924007000000000000000000000000000000013
:10493400000007E0181820044002000000004002B4
:104944002004181807E000000000000002400240A4
:1049540001800FF0018002400240000000800080CE
:1049640000800FF800800080008000000001000D2E
:10497400000E0000000000000000000000000080A5
:104984000080008000800080008000800000000C17
:10499400000C000000000000000000000000000601
:1049A400001800600180060018002000000007F0D5
:1049B400080810041004080807F0000000000804A8
:1049C40008041FFC000400040000000000000E0C9A
:1049D40010141024104411840E0C000000000C1854
:1049E40010041104110412880C700000000000E08F
:1049F4000320042408241FFC0024000000001F9846
:104A0400108411041104108810700000000007F0D5
:104A140008881104110418880070000000001C00AC
:104A2400100010FC13001C001000000000000E38E1
:104A340011441084108411440E3800000000070053
:104A4400088C10441044088807F00000000000009F
:104A54000000030C030C0000000000000000000034
:104A640000010106000000000000000000000080BA
:104A74000140022004100808100400000220022053
:104A84000220022002200220022000000000100464
:104A940008080410022001400080000000000E00FD
:104AA4001200100C106C10800F00000003E00C18B2
:104AB40013E4142417C4082807D000000004003CA1
:104AC40003C41C40074000E4001C000410041FFC45
:104AD4001104110411040E880070000003E00C1886
:104AE40010041004100410081C10000010041FFC13
:104AF400100410041004080807F0000010041FFC40
:104B04001104110417C410040818000010041FFC39
:104B14001104110017C010000800000003E00C1875
:104B24001004100410441C780040000010041FFC02
:104B340010840080008010841FFC10040000100406
:104B440010041FFC10041004000000000003000106
:104B5400100110011FFE10001000000010041FFCC3
:104B6400110403801464181C1004000010041FFCBA
:104B74001004000400040004000C000010041FFCD6
:104B84001F0000FC1F001FFC1004000010041FFC89
:104B94000C04030000E010181FFC100007F00808C4
:104BA400100410041004080807F0000010041FFC8F
:104BB40010841080108010800F00000007F0081887
:104BC40010241024101C080A07F2000010041FFC13
:104BD4001104110011C011300E0C000400000E1C51
:104BE40011041084108410441C38000018001000B4
:104BF40010041FFC100410001800000010001FF81F
:104C040010040004000410041FF8100010001E001B
:104C140011E0001C007013801C0010001FC0103C29
:104C240000E01F0000E0103C1FC000001004180C3E
:104C3400163401C001C01634180C100410001C00F6
:104C4400130400FC13041C00100000000804101CD2
:104C54001064108413041C041018000000000000E9
:104C640000007FFE400240024002000000003000CD
:104C74000C0003800060001C0003000000004002E0
:104C8400400240027FFE000000000000000000001F
:104C9400200040004000400020000000000100010E
:104CA40000010001000100010001000100004000BA
:104CB40040002000000000000000000000000098F8
:104CC400012401440144014400FC000410001FFCC1
:104CD40000880104010400880070000000000070D6
:104CE4000088010401040104008800000000007031
:104CF40000880104010411081FFC0004000000F8EE
:104D0400014401440144014400C8000000000104BE
:104D140001040FFC1104110411001800000000D656
:104D240001290129012901C90106000010041FFC01
:104D3400008401000100010400FC000400000104DF
:104D4400190419FC00040004000000000000000322
:104D540000010101190119FE0000000010041FFCEC
:104D64000024004001B4010C010400000000100400
:104D740010041FFC0004000400000000010401FCF6
:104D84000104010001FC0104010000FC010401FC18
:104D9400008401000100010400FC0004000000F88C
:104DA400010401040104010400F80000010101FFF1
:104DB40000850104010400880070000000000070F8
:104DC400008801040104010501FF0001010401043C
:104DD40001FC00840104010001800000000000CCFB
:104DE4000124012401240124019800000000010091
:104DF400010007F80104010400000000010001F8AB
:104E0400000400040004010801FC00040100018006
:104E14000170000C001001600180010001F0010C20
:104E2400003001C00030010C01F001000000010459
:104E3400018C00740170018C0104000001010181E6
:104E44000171000E0018016001800100000001845E
:104E5400010C013401440184010C00000000000035
:104E64000000000001003EFC40024002000000007F
:104E740000000000FFFF00000000000000004002EE
:104E840040023EFC01000000000000000000600041
:104E9400800080004000400020002000000000004E
:104EA40000000000000000000000000000000000FE
:104EB40000000000000000000000000000000000EE
:104EC4000000000000000000000000000000000FCF
:104ED40080380FFE380F803800000000000000000A
:104EE40000000000000000000000010000060000B7
:104EF4000C00003800003100000600000C000038EF
:104F04000000300000000000000000006180006725
:104F1400F807F98000618000618000618000618091
:104F24000067F807F98000618000000000000000BD
:104F3400000001C0E003E0F00630080418081FFF79
:104F4400FE040E080787F00381E000000000000063
:104F540001F000060C00040408060C7001F9C000FE
:104F64000E00003BE000EC18070808040C180003CE
:104F7400E00000000001E00007F003F818041C083A
:104F840004170807E1D003C0E00023B0003C080088
:104F940020080000100000000000000100003100A3
:104FA400003200001C0000000000000000000000AF
:104FB40000000000000000000000000000000000ED
:104FC4000000000000000000000000007F0001FF5E
:104FD400C00780F00C00181000042000020000003C
:104FE4000000002000021000040C00180780F001EB
:104FF400FFC0007F0000000000000000000000006F
:10500400000000000000000042000066000066008E
:10501400003C0000180003FFC0001800003C000022
:10502400660000660000420000000000080000085E
:105034000000080000080000080001FFC00008008C
:10504400000800000800000800000800000000003C
:10505400000100003100003200001C0000000000CC
:10506400000000000000000000000000000000003C
:10507400000000000800000800000800000800000C
:1050840008000008000008000008000008000008EC
:10509400000000000000000000000000380000389C
:1050A40000003800000000000000000000000000C4
:1050B40000000000000000000000000000060000E6
:1050C4001C000070000180000E0000380000C000C9
:1050D4000700001C00003000000000000000000079
:1050E4007F8001FFE00380700600180400080400BC
:1050F4000806001803807001FFE0007F80000000B4
:10510400000000000000010008010008010008037D
:10511400FFF807FFF800000800000800000800007E
:105124000000000000000001C03802C058040098CC
:10513400040118040218040418061C1803F81801C2
:10514400E0F800000000000000000001C0E003C01F
:10515400F004000804080804080806180803F418F2
:1051640001E7F00001E00000000000000000000082
:105174000300000D0000110000610000810803011C
:105184000807FFF80FFFF8000108000108000000FD
:105194000000000000E007FCD0060808061008061E
:1051A4001008061008061838060FF00607C000009D
:1051B40000000000000000003F8001FFE003843095
:1051C4000208180410080410080410080718100333
:1051D4000FF00007C000000000000000000003C042
:1051E400000700000600000600F80607F80618008D
:1051F40006E00007000006000000000000000001B7
:10520400E1E003F7F0063410041808041808040C4D
:1052140008040C0806161803F3F001C1E0000000AE
:1052240000000000F80003FC300306380402080400
:1052340002080402080404100308F001FFC0007F00
:10524400000000000000000000000000000000005A
:105254000000000070380070380070380000000052
:10526400000000000000000000000000000000003A
:105274000000000000000000301A00301C00000094
:10528400000000000000000000000000000000001A
:10529400000000080000140000220000410000800B
:1052A40080010040020020040010080008000000F3
:1052B4000000000021000021000021000021000066
:1052C4002100002100002100002100002100002114
:1052D40000000000000000000000080008040010A6
:1052E40002002001004000808000410000220000F4
:1052F400140000080000000000000003C00004C007
:1053040000040000080038080F38080838081000A6
:105314000C300007E00003C00000000000000000A3
:105324003F8000FFE0038070020F1006708804C005
:1053340088048308047F8802C09003012000FE4093
:105344000000080000180001F8003E0801C2000730
:10535400020007E20000FE00001FC80001F8000080
:105364003800000804000807FFF807FFF8040808DD
:1053740004080804080804080806180803F41801B7
:10538400E7F00001E0000000000000003F8001FFA2
:10539400E0038070020018040008040008040008F8
:1053A4000400100600200780C00000000400080765
:1053B400FFF807FFF80400080400080400080400CC
:1053C4001802001003807001FFE0007F80000000DD
:1053D40004000807FFF807FFF80408080408080495
:1053E4000808040808043E08040008060018010020
:1053F4006000000004000807FFF807FFF80408082D
:10540400040800040800040800043E000600000626
:105414000000018000000000000000003F8001FF48
:10542400E00380700600180400080402080402085F
:105434000203F00783F000020000020004000807E2
:10544400FFF807FFF8040808000800000800000837
:105454000000080004080807FFF807FFF804000824
:10546400000000000000040008040008040008070D
:10547400FFF807FFF804000804000804000800000F
:10548400000000000000000000060000070000010A
:1054940004000104000104000307FFFE07FFFC04ED
:1054A400000004000004000004000807FFF807FFE0
:1054B400F8040C08001800003E0004C7800503C867
:1054C4000600F80400380400180000080400080767
:1054D400FFF807FFF80400080000080000080000B7
:1054E4000800000800000800001800006000000028
:1054F40004000807FFF807800807FC00007FC000CD
:1055040003F80007C000780007800807FFF807FFCA
:10551400F804000804000807FFF807000803C000A7
:1055240000E000003800001E000007000001C00475
:1055340000F007FFF8040000000000007F8001FF76
:10554400E003807006001804000804000806001830
:1055540003003001FFE0007F800000000400080722
:10556400FFF807FFF804040804040004040004041A
:1055740000040400060C0003F80001F00000000021
:10558400000000007F8001FFE003807006008804B3
:1055940000880400C806003C03003E01FFE6007FCB
:1055A4008400000004000807FFF807FFF804080857
:1055B400040800040C00040F00040BC00610F003E0
:1055C400F03801E00800000800000001E0F803F0F2
:1055D40030063010041808041808040C08040C08D9
:1055E4000206180207F00781E000000001800006AF
:1055F400000004000004000004000807FFF807FF8F
:10560400F804000804000004000006000001800003
:1056140004000007FFE007FFF00400180000080082
:10562400000800000800000800000804001007FF3C
:10563400E004000004000006000007E00007FE008C
:10564400041FE00001F80000380001E0043E0007F8
:10565400C00006000004000004000007E00007FF8B
:10566400C0041FF80007C007F80007FF80043FF8D4
:105674000007C004F8000700000400000000000454
:10568400000806001807C07805F1C8003E00001F96
:10569400800463E80780F80600180400080000008E
:1056A40004000006000007800007E008047C0800EE
:1056B4001FF80007F800180804E0080700000600B7
:1056C400000400000000000100080600380400F88F
:1056D4000403E8040F08047C0805F00807C0080761
:1056E400001804006000000000000000000000003A
:1056F400000000000000003FFFFE20000220000226
:10570400200002200002200002000000000000002F
:10571400000008000007000000C000003800000678
:10572400000001C000003000000E00000100000075
:1057340000000000000020000220000220000220DF
:1057440000022000023FFFFE0000000000000000F5
:10575400000000000000000000000000000800003D
:10576400100000300000200000300000100000088D
:105774000000000000000000000001000001000023
:10578400010000010000010000010000010000010F
:105794000000010000010000010000010000000001
:1057A4000000000000200000200000100000100095
:1057B40000000000000000000000000000000000E5
:1057C4000000000000F00019F8001B180022080077
:1057D4002608002408002410003FF8001FF80000E9
:1057E4000800001800000004000007FFF80FFFF095
:1057F40000181800100800200800200800301800C5
:105804001FF0000FC00000000000000007C0001FD0
:10581400F0001830002008002008002008003C0890
:10582400001C1000006000000000000000000000E8
:1058340007C0001FF00038180020080020080020CE
:105844000804101007FFF80FFFF00000100000001C
:105854000000000000000007C0001FF0001230002C
:105864002218002208002208003208001E10000E30
:105874002000000000000000200000200800200894
:1058840001FFF803FFF80620080420080420080795
:10589400200003000000000000000000000E000EC5
:1058A4006E001FF30031B10020B10020B10031912E
:1058B400001F13002E1E00200E0030000000000404
:1058C400000807FFF80FFFF8001008002000002070
:1058D40000002008003FF8001FF800000800000046
:1058E4000000000000000020080020080020080636
:1058F4003FF8063FF8000008000008000008000018
:10590400000000000000000000000000030000038D
:10591400002001002001002003063FFE063FFC009A
:10592400000000000000000000000004000807FF61
:10593400F80FFFF8000188000300002FC00038F8BA
:1059440000203800200800000800000000000000CB
:10595400000004000804000804000807FFF80FFF13
:10596400F800000800000800000800000000000023
:10597400002008003FF8003FF80010080020000055
:105984003FF8003FF8001008002000003FF8003FF7
:10599400F8000008000000002008003FF8003FF86D
:1059A400001008001000002000002008003FF8004C
:1059B4001FF80000080000000000000007C0000FEE
:1059C400F0001830003008002008002008003008DB
:1059D400001830000FF00007C000000000000000B5
:1059E4002001003FFF003FFF0010110020090020AC
:1059F40008002008003038001FF0000FC00000002D
:105A04000000000007C0001FF00038180020080044
:105A14002008002009001011001FFF003FFF0000B4
:105A240001000000002008002008002008003FF8C2
:105A3400003FF800080800100800200800200000BB
:105A44003000003000000000000000000000000CE6
:105A540078001E180033080023080021080021885C
:105A64000021980030F000386000000000000000C1
:105A7400200000200000200000FFF003FFF80020B9
:105A8400080020080020080000300000000000008A
:105A9400000000002000003FF0007FF80000180024
:105AA4000008000008002010003FF8007FF000000C
:105AB40010000000000000002000003000003C0046
:105AC400003F800023F00000780000700023800075
