:0200000480007A
:10000000737004307350403097110010938101D207
:1000100017010810130101FF970200009382C21A12
:100020007390523073F05130170500001305050925
:1000300097050000938585086300B50217B6020096
:100040001306068A63FAC5008322050023A0550023
:1000500011059105E3EAC5FE17B5020013054588B1
:1000600097050010938505FA1386C18163FAC500D0
:100070008322050023A0550011059105E3EAC5FE82
:100080001385C18197A503109385C5F16377B500EA
:10009000232005001105E36DB5FE452E17D501009F
:1000A000130545A3EFC03122EFC0F12549210145D9
:0800B000814519209D2301A0E8
:1000B800B70501FF4111938505F03725011006C6E4
:1000C8005922EFC0C15441657D15B9230145EF00A0
:1000D800302511C101A0EF10405FEDBFA54723A84F
:1000E800F1CE7D5582807D15854763E6A700896737
:1000F800DCC101458280A54723A8F1CE7D558280C9
:10010800054582800145828019C17D558280411153
:100118003735011022C406C62E8429242300A400E2
:10012800B240224405454101828017070010130799
:10013800673F1C4397A60310938646E63E95636B7C
:10014800D50097F607109386666B63E5A60008C38B
:100158003E858280FD573E858280011122CC4EC6A5
:1001680006CE26CA4AC82E84B289EFC0514929C58D
:1001780033093401A944639909003DA005043735C2
:10018800011079226302240383450400E39895FE55
:10019800B54537350110AD2A8345040037350110C0
:1001A8000504BD22E31224FF4E85F2406244D24486
:1001B8004249B249056182807D55C5BF5D7106C05F
:1001C80012C216C41AC61EC82ACA2ECC32CE36D0BF
:1001D8003AD23ED442DC46DEF2C0F6C2FAC4FEC6CB
:1001E800F322103416D6F322203416D8F322003026
:1001F80016DA732520348A85A12CB25273901234F2
:10020800C25273902234D25273900230824012420A
:10021800A2423243C2435245E245724682561257C1
:10022800A2576258F258064E964E264FB64F616155
:1002380073002030AA8711C5584D0145D98DCCCF00
:1002480082807D558280AA8701C9184193C5F5FF30
:100258000145F98D8CC382807D558280AA872DC582
:10026800584589464D8F58C56306D60463EBC600CA
:1002780005CA184901454D8F98CBD84BD98DCCCBA1
:1002880082800D47631CE600144913C7F5FF01453A
:10029800D58D8CCBD44B758FD8CB8280014582808D
:1002A800144913C7F5FF0145758F98CBD84BD98DE5
:1002B800CCCB8280184993C5F5FF01456D8F98CB4B
:1002C800D84BF98DCCCB82807D55828019C1084DE1
:1002D80082807D558280AA8715C9170700100327D9
:1002E800A724B355B7021307000858C50145FD15E3
:1002F80013D785001377F70FD8C393F5F50F8CC381
:100308001307600C98C70D47D8C782807D55828037
:1003180001C95C4993F70702EDDF0CC101458280F2
:100328007D55828001C95C49858BF5DF08411375CD
:10033800F50F82801305F00F8280B7C7000203A76C
:1003480087FF83A7C7FF411106C622C426C2BA8603
:1003580037C60002032786FF8327C6FFF32400B0B1
:10036800E38AE6FEB7C5000203A685FF83A6C5FF9C
:100378003304E640F32700B0E368A4FEB384974053
:10038800B3F58402228681461395F500C581EFC036
:10039800013D33D68402B2402244924441013E06D4
:1003A800329582804111054506C6413FB24013058A
:1003B8004006410159B7411122C42A8417E50100BA
:1003C800130545B506C6EFC0F122A28517E5010061
:1003D800130585B5EFC0D110F325103417E50100DA
:1003E800130585B5EFC0D10FF325303417E50100AB
:1003F800130585B5EFC0D10E01A0411122C42A848E
:1004080017E50100130545B506C6EFC0B11EA28564
:1004180017E50100130545B1EFC0910CF325103421
:1004280017E50100130545B1EFC0910BF3253034F2
:100438002244B24017E50100130505B141016FC020
:10044800310AB7B7C4049387074023A2F18082809A
:1004580041119317450106C622C4D1836351050291
:100468002D476383E7048A07138701D0BA979C4313
:1004780091C38297B24022440145410182802946B6
:100488002A87AE86636BF6008A07138681D2B297F5
:100498009C43EDD3B6853A85E9BF9707000093875B
:1004A800C7F1B6853A85F1B7F32740F13707200C35
:1004B800B2071107BA978043C147E3ED87FA1317CC
:1004C8002400938741D5BA979C4391C38297F32719
:1004D80040F13707200CB2071107BA9780C359BFFC
:1004E800C14763E0A70413172500B707000CBA97A4
:1004F8008CC309C6938741D5BA9790C3F32740F1B7
:100508003727000C9E07BA97944305473315A70071
:10051800558D88C385679387078073A04730014549
:1005280082807D558280411106C622C4A53DAA87D6
:1005380013844180B7050300372501101CC0DD393D
:10054800F1659385052037350110713317E60100F1
:100558001306C6A197E50100938505A217E50100DA
:10056800130545A2EFC0C17797E50100938505A45F
:1005780017E501001305C5A3EFC081760C4017E508
:100588000100130525A4EFC0A17597060000938606
:10059800C6E2938781D2138741D594C39107E39E1E
:1005A800E7FE17070000130787E5938741D5938671
:1005B80081D998C39107E39EF6FE938701D093866D
:1005C80081D298C39107E39ED7FE3706000C814677
:1005D800B728000C05484545F32740F19E07C69704
:1005E8008C433317D8001347F7FF6D8F98C3232028
:1005F800060085061106E391A6FEF32740F13707AA
:10060800200CB2402244B207BA9723A00700410148
:10061800828082808280828093160501370720803D
:1006280037662980AA9613070750130606509307C2
:1006380007B094C39107E39EE7FE13870750E318BA
:10064800C7FE828063E5B6049308F6FFB388A84026
:10065800C20803A3C18093D80801AA98130E2300E7
:100668006372C502139825002E981E08B307A800C8
:100678004698860706089A9772982390E700890794
:10068800E39D07FF8505C205C181E3FBB6FC8280B7
:1006980093F7760013D83600B337F000C29713D813
:1006A8001600B387070393F7F70F6386071401163D
:1006B8001376F60F931316000111931F3600B293A9
:1006C80013184600B29F26CC13962300FD1797E413
:1006D80001009384F4D797E301009383239022CEFB
:1006E8004ACA4EC852C656C45AC28A0FC29493F711
:1006F800F70FB29397E20100938282D517E60100C3
:10070800130606345EC0B149B29F83AEC180C2925F
:10071800BE942E86414AE14A138981801384A1CE72
:10072800130FF01D130BF0276381360D6382460DFE
:100738006396560903C80F001303160093180301A4
:10074800130E860093D80801420EB388B840135E92
:100758000E0125A8931726003E961E062A96060621
:10076800769609E7835709002310F600131603014C
:10077800060841821378F80F6362CF04638AD804AD
:100788008508630DC6051303160093172600B29754
:100798009E07AA97931B8801860793DB8B41F697E0
:1007A800E3DA0BFA0356040006081378F80F2390CF
:1007B800C700131603014182E372CFFC7244E2447E
:1007C8005249C249324AA24A124B824B0561828081
:1007D800050542054181E363ABFE2E86850285034C
:1007E800850FE38D92FCE39336F503C80300A9B7A0
:1007F80003C8020091B78280797122D426D24AD0E8
:1008080006D64ECE52CC56CA5AC85EC662C43E8977
:1008180083C70700AE842A84938507FE2A9693F53A
:10082800F50F1305E005A696636EB5049319060146
:10083800139A06013A8C93D90901135A0A01135BDA
:100848001700937BF40F930AE00529A89135834795
:1008580009005A944204138607FE1376F60F418066
:1008680063E2CA023E860147E2860509B38784012E
:1008780063663401939407015E84C1802285A6854E
:10088800E3E644FDB250225492540259F249624AB6
:10089800D24A424BB24B224C45618280411106C676
:1008A800EF70F12517C700101307472681479D46AB
:1008B8009305700E1305F00E130E200F91481308C0
:1008C80060100D43054663F4F60063C7F500230086
:1008D800C70085070507C5BFE35BF5FE6345FE0056
:1008E80023006700FDB723001701E39407FFB24018
:1008F8004101828041111166814517850010130559
:10090800E52006C6EF70813313060010814517E510
:10091800001013052534EF70613223860184A38506
:10092800018423850184A38401842384018423838F
:1009380001842383018623920182238001822380FC
:100948000186A38F018423810186A3800186A38168
:100958000186238F0184238D0184A38C0184238E37
:100968000184A38D0184A38E0184238C0184239E9A
:10097800018223920186239B018423A20188A14737
:1009880005472392E184A383F18417070010130716
:10099800E71223A0E184174700101307271223A8A2
:1009A800E1841786001013066616239AF18497854A
:1009B80000109385A5113287AE879786001093861D
:1009C800E61498C3910713070740E39CD7FE83C733
:1009D800D1871397270097F7FF0F93872762BA9756
:1009E80003C5070083C6170003C7270083C837005D
:1009F800B240AA069317A700178800100348580C9E
:100A08002A05AA083307D600B297329593361800FC
:100A180046969CD588D1D8D1D0D52386D188410196
:100A28008280411122C4978500109385250906C646
:100A380026C203C7650013846182AE871355470039
:100A48002300A400178600101306860783C6C70074
:100A5800850789EAE39CC7FE83C77500C19B5D8D46
:100A68002300A40093774700937627001378170094
:100A78000966218B814517C500101305A51D238F15
:100A8800D186A38E0187A38FF186238EE186EF702E
:100A9800E11A814513060004FD5417C5001013051B
:100AA800651723910182239F0180238E9180EF7027
:100AB800E11823AC018223AA018223A6018223A87C
:100AC800018223A401823D3517F5FF0F13058554D4
:100AD8001C4183450400638D970217F7FF0F130726
:100AE800E75381467D5631A0832787FF85066381BA
:100AF800C7022107E39AF5FE8E06AA96DC42829782
:100B0800EF70D12B0145B2402244924441018280CA
:100B180017F50100130585C8EF70A1127D55E5B7DB
:100B2800411122C406C62A84EF6091752285EF60C0
:100B3800516B63480500F5357D85B240224441017B
:100B480082807D55DDBF9317250017F5FF0F13052C
:100B5800E54A3E95034605008346150003472500F0
:100B6800834735002A0617850010130525FAAA06BB
:100B78002A07AA0797850010938545F52A96AA960D
:100B88002A97AA9790D1D4D198D5DCD5828093871B
:100B9800C1CB9C434971232EB1132326111623245C
:100BA80081162322911623202117232E3115232C59
:100BB8004115232A5115232861152326711523244D
:100BC8008115232291152320A115054582971387A6
:100BD8009184938761858346070083D707001706AA
:100BE800011013062617A18A13979700B30DE60084
:100BF8006389063C93F6770083C4F18503C41186A4
:100C08008D83B6949D4603CB71843E9463D496003D
:100C180005049D88F5478E0463C0873A5AC8C247C1
:100C280017870010130787EA9389B1858A07BA974F
:100C380003AE070003C70900935724408E07931695
:100C480054009387073CB38AE60036CC3ECE9356D1
:100C58002740F297BE96F29A03C806003EC60604DD
:100C680083C70A00937627003ACA1188938B0184B8
:100C780013879185A29603A30B0083480700335876
:100C8800D8409A07A6970A089D463E931378C8004D
:100C980063ED160333061301130E83006E8517CC1C
:100CA8000010130C2CF78347060009050506C297A8
:100CB8008607E29783D70700231FF5FEE315CEFECC
:100CC800A147B38817418608C69D17090010130964
:100CD800E9DE33052341138D41CB83270D000985B8
:100CE800420541818297D247938C1A00138A1700D4
:100CF800FD4763C2470F6E8B17CC0010130C8CF1A5
:100D0800930A0002324703C50C0093572A4003A8F0
:100D18000B00BA9783C707001A052695937E2A0009
:100D28002A98B3EE8E0003450800B3D7D7418E0743
:100D3800E18BE29706053E95835E0500410B33057E
:100D480028412318DBFF834E18000985032F0D0067
:100D5800860EBE9E83DE0E004205050A2319DBFFC0
:100D6800834E28004181850C860EBE9E83DE0E00D0
:100D7800231ADBFF834E3800860EBE9E83DE0E00EC
:100D8800231BDBFF834E4800860EBE9E83DE0E00CB
:100D9800231CDBFF834E5800860EBE9E83DE0E00AA
:100DA800231DDBFF834E6800860EBE9E83DE0E0089
:100DB800231EDBFF034878000608C29783D7070085
:100DC800231FFBFE029FE31F5AF35247FD47338C54
:100DD800E740120CE29DC247624713CB17000A0B8B
:100DE80097870010938787CE3E9B032A0B0083C703
:100DF8000900B30AEA0072473A9AEDC3014B17CCCF
:100E08000010130C2CE103C50A0093572B4003A8CC
:100E18000B00D29783C707001A05269593782B00F5
:100E28002A98B3E8880003450800B3D717418E070E
:100E3800E18BE29706053E9583580500C10D330501
:100E4800284123981DFF8348180003230D000985B6
:100E58008608BE9883D808004205418123991DFF62
:100E680083482800050B850A8608BE9883D80800A1
:100E7800239A1DFF834838008608BE9883D8080047
:100E8800239B1DFF834848008608BE9883D8080026
:100E9800239C1DFF834858008608BE9883D8080005
:100EA800239D1DFF834868008608BE9883D80800E4
:100EB800239E1DFF034878000608C29783D70700C2
:100EC800239FFDFE029383C70900E34EFBF293576D
:100ED8002B40137B2B003E9A3364640183C60A00BF
:100EE80003480A001387918583A70B0083480700EE
:100EF8009A0633588840B6940A08BE941378C800F6
:100F080063860802A6856E85A69817CC0010130C78
:100F18006CD083C7050009058505C2978607E29747
:100F280083D70700231FF5FEE395B8FEB384244159
:100F380083270D0013D5244042054181829793876A
:100F4800918483C70700898B6389072E83C76186CD
:100F580089CF9387618583D607001306000E938790
:100F680086FFC207C1836365F6309387C1CB9C4374
:100F7800014582979387918483C70700C18BA9EBAA
:100F88008320C116032481168324411603290116E0
:100F98008329C115032A8115832A4115032B0115BD
:100FA800832BC114032C8114832C4114032D0114A9
:100FB800832DC1137561828093472B003EC80914A5
:100FC800B9B91306002081456E85EF60314771BFBE
:100FD8001384A1848347040081451306701093F796
:100FE800F7FD28102300F400EF60514593876185D1
:100FF80003C38184916F83D5070083D84185137318
:10100800030283AE0185814417E50010130545D41A
:1010180017E800101308C8C3138E0FF8170F001035
:10102800130FCFA97DA893F212003376C60163830C
:1010380002207E96B297FA9793C606021396260068
:1010480093F60604834235001376C608EDC683C6B8
:10105800770099C6181AD18EB3035700238CD3EEA4
:1010680083C6670099C6181AD18EB3035700A38C9C
:10107800D3EE83C6570099C6181AD18EB30357000A
:10108800238DD3EE83C6470099C6181AD18EB303B1
:101098005700A38DD3EE83C6370099C6181AD18E90
:1010A800B3035700238ED3EE83C6270099C6181AB8
:1010B800D18EB3035700A38ED3EE83C6170099C60B
:1010C800181AD18EB3035700238FD3EE83C60700B7
:1010D80091C61C1A9697D18EA38FD7EE711563010E
:1010E800050F834705008507E3CAF5FEB386F800B8
:1010F800E3D6D5FE834625008504B387F5401396CD
:101108008601618663550600B387F840FD17834260
:1011180015008E0713966200E31703F093C60602C4
:10112800B2971396260093F6060483423500F69785
:101138001376C60889FE83C6070099C6181AD18E89
:10114800B3035700238CD3EE83C6170099C6181A29
:10115800D18EB3035700A38CD3EE83C6270099C65C
:10116800181AD18EB3035700238DD3EE83C63700E8
:1011780099C6181AD18EB3035700A38DD3EE83C630
:10118800470099C6181AD18EB3035700238ED3EEA1
:1011980083C6570099C6181AD18EB3035700A38E79
:1011A800D3EE83C6670099C6181AD18EB3035700C9
:1011B800238FD3EE83C6770089FE7115E31305F3F9
:1011C80083C6918593070010958F8607341033875F
:1011D800FD40281217C800101308C8A301A8031659
:1011E80007006342060209076306D50283C70600A3
:1011F8008506139687016186FDD7BD8BC1078607D3
:10120800C297E35E06FC83D707000907231FF7FE92
:10121800E31ED5FC9387918483C70700918B8DCFFC
:101228009D47E3DF97D48347040093E70702230031
:10123800F400B9B3B297FA9701B59387618503D5DE
:101248000700970701109387E7B0414626058145B7
:101258003E95EF60B11EDDB9139595009707011013
:10126800938747AF414681453E95EF60311D4DBF9D
:10127800A606970701109387E7AD1306002081455E
:101288003385D700EF60911BCDB197E600109386A8
:10129800669C03872600814789456357070083D7E3
:1012A8004185FD178E07F95503C5160003C68184CD
:1012B800137606021317650015CE1166130806F893
:1012C80005893377070149C903C506003297BA97DC
:1012D80017F7FF0F1307877EBA971307F5FF9306D3
:1012E800E00E1377F70F63F5E6029307100F23A2BA
:1012F800F18882803E9783A70185BA9703C50600C7
:101308009306E00E1307F5FF1377F70FE3EFE6FCFC
:1013180003D84185E30F08FC138E41880505032394
:101328000E008A05814881461375F50F29A08506A8
:10133800AE9763DE06019843D043518F6DDB3303CC
:10134800D500930670108548AE97E3C606FFE38282
:1013580008FA23206E0082803E9797F7FF0F938745
:10136800E775BA9761BF011122CE26CC4ACA4EC88A
:1013780052C656C483C4C18117EF0210130F8F9D44
:10138800977200109382827497FFFF0F938F0F77E5
:10139800814E130E00400564A14319A8B3D7D44168
:1013A800858B89EF850E110F9102A29F63857E0AB6
:1013B80003A3020083270F00E38267FE7E8881482B
:1013C80033051301930708FC034605008345850090
:1013D800A10793561600139715001376560593F533
:1013E800A5FA93F656051377A70ACD8E518F93D990
:1013F80046001359470093D526001356270093DA61
:101408006600135A670093F93900137939008D89FA
:101418000D8A8D8A0D8B238C57FFA38C47FF238D54
:1014280037FFA38D27FF238EB7FEA38EC7FE238F1A
:10143800D7FEA38FE7FE0505E318F8F8C1081308DF
:101448000804E39FC8F723206F00850E110F91024F
:10145800A29FE39F7EF47244238E0180E2445249A6
:10146800C249324AA24A05618280011122CC138402
:10147800E1810357040026CA06CE9384618583D789
:10148800040019EB17B70010130747683E97834607
:10149800070005476382E61003C73186238FE1847E
:1014A80003C72186A380E18603C70186A38FE18451
:1014B80003C7D185238CE18403C7C185A38DE1844B
:1014C80003C7A185A38CE18413076010638BE70829
:1014D8008507C207C1832390F4001307000F6389AF
:1014E800E7061307300F6389E7000145ADCFF240E7
:1014F8006244D244056182808357040083D62182E6
:10150800014763F6D70085071397070141839307BF
:1015180000F82310E4002385F1842383018483A742
:1015280041CC829713868183938541831385C18239
:10153800EF60E1598387818463C8070403A5818329
:1015480005893305A040F2406244D2440561828097
:10155800835704000145C1FF2AC6EF608152324516
:1015680079B7239B0184238501849777001083C76B
:10157800375581E7835704008DC7013BF240624429
:10158800D24401450561828003A581830589A38F23
:1015980001CC3305A04045BFEFF06FDF83D70400CF
:1015A800E5BDD133D9BF5D71A6C29D64A2C4CAC0CE
:1015B8004EDE52DC56DA5AD85ED662D466D26AD08B
:1015C8006ECE86C6138A61859389418813844182C9
:1015D8001389C1CA97BA0010938A4A5317ED0100BC
:1015E800130D8D1D97DC0010938CCC66138C9184A1
:1015F800938B8184938DA18493844448138B0182B7
:1016080019A0EF60E16383570A0003A709006398F4
:10161800E700D69703C707008547630FF70413054C
:101628001007EF60D17E8357040093871707C2071E
:10163800C1832310F40063FBF40003470B0019C7B0
:10164800B3F79702A38E01CC2310F4008327090077
:101658008297213DFD57E316F5FAB6402644964495
:101668000649F259625AD25A425BB25B225C925CDA
:10167800025DF24D6161828083C73C008607EA976C
:1016880003D507002AC6EF60917883460C00E1472E
:10169800324513F786016318F70083C70D0093E7F7
:1016A80007042380FD0003C70B001377070409C74D
:1016B800C18A99C2A38F01CC930710073385A7402D
:1016C80042054181EF60B174B9BF411122C406C619
:1016D8007D54EFF0AF9C11A0F935EF604130E31D68
:1016E80085FE2244B24041016F60813982802181A8
:1016F80082808280828082809777001083C7473CEF
:10170800B3F7F502896603A78186860793F7F70F73
:10171800B607BE96BA97369723A6F18623A8E18620
:10172800828003D761859307F00E63E9E70483C7D6
:101738009184E18BA1C783C781BB138741BB99C73C
:1017480083C761BB2300F700238C01BA938671BB62
:1017580083C70600A1E38347070099C7FD1793F7DE
:10176800F70F2300F70099EB83C751BB81EF7D5733
:1017780083C791BB2380E60099EB828083C791BB26
:10178800EDDF31A0FD57A38CF1BA2380F600A38EBC
:1017980001CC828083C761BB2300F700A38B01BA09
:1017A800D9B7138711A48347070093F6270081CE82
:1017B800138601A4834606009305F00F6386B600DE
:1017C80085062300D600828083C621A42300D60084
:1017D80093F6170099C293E627002300D700A38E3B
:1017E80001CC8280939725009775001083C5452DFD
:1017F800860593F7F70FB3E7B7020966916699650F
:1018080003A78186B607BE953E96BE963A96BA97C6
:10181800BA962E9723A6F18623A8C18623AAD18635
:1018280023ACE1868280AD676307F50863E7A7020A
:10183800A567630DF508A967631EF5049386C1BF04
:101848009C423D671307F70FF98F0567A205130739
:1018580007F0F98DDD8D8CC28280B167630AF504CB
:10186800BD676312F50886051777001003474725FB
:1018780093F7F50F93151700B3E7B702896603A727
:101888008186B607BE96BA97369723A6F18623A80F
:10189800E1868280A167631CF5009386C1BF9C42E4
:1018A80041674117F98FBD89DD8D8CC282808280A6
:1018B8002380B1C082801387C1BF1C43B205BD66B7
:1018C800D207D183F58DDD8D0CC382809386C1BF8D
:1018D8009C42416792051307F7F0F98F93F5F50FCE
:1018E800DD8D8CC28280828003D761859307F00EDC
:1018F80063E9E70483C79184E18BA1C783C701C269
:101908001387C1C199C783C7E1C12300F7002380AA
:1019180001C29386F1C183C70600A1E3834707008C
:1019280099C7FD1793F7F70F2300F70099EB83C7C3
:10193800D1C181EF7D5783C711C22380E60099EB9F
:10194800828083C711C2EDDF31A0FD57A380F1C2A9
:101958002380F600A38E01CC828083C7E1C12300D7
:10196800F700A38F01C0D9B795679387071033771E
:10197800F5006304F7002181828003C5A1C4828039
:10198800ED779387F7EF3E95894763E4A7002385B2
:10199800B1C4828095676309F50085076315F50072
:1019A80023AEB1C68280828023ACB1C682809167A3
:1019B800938707026304F5002181828003C561CA09
:1019C80082809777001083C7A70F8607B3E5F502D3
:1019D80083A78186B605BE9523A0B1888280939798
:1019E80015009775001083C5A50DB98B8605B3E75B
:1019F800B702896603A78186B607BE96BA97369757
:101A080023AAF18623ACE186828083C7F19E8D8B61
:101A1800094713052004638AE7001385D7FF333588
:101A2800A0003305A04013753508828003D761856F
:101A38009307F00E63EBE70283C79184E18B95C7A8
:101A480083C7C19E9DC31387B19E8347070099EB47
:101A5800FD572300F7002386019E2387F19EA38E5E
:101A680001CC8280FD172300F70083C7E19EE5FBC8
:101A78008280A567630AF506938681A4A96703C7D0
:101A88000600637EF50483C71600D98F1776001009
:101A980003460603060693653700860786051387FF
:101AA8001700B3E7C7021385150083A6818633673D
:101AB800C702B607B69723A6F186B3E5C502931702
:101AC800D700B69723A8F1863366C502B605B69542
:101AD80023AAB1863606B29623ACD186828093F7C4
:101AE8003500A380F60055B78581938681A413F746
:101AF800C50083C716002380E60041BF216793070E
:101B0800B7F9AA97C207C1839306F00363EEF604F8
:101B1800E1779387B7F93E950A0531891776001062
:101B2800034606FA060613071500930725009305D2
:101B380035003367C70283A681863365C502360739
:101B48003697B3E7C7023605369523A6A18623A89C
:101B5800E18633E6C502B607B69723AAF1863606AC
:101B6800B29623ACD18682801307B7F52A9742072D
:101B78004183E3EAE6FEE1779387B7F53E950A05E8
:101B8800718969BF1387B1A583D761851306F00EE4
:101B9800834607006362F60403C69184618A0DCE0A
:101BA80003C691A515CA95E6138681A58346060046
:101BB80089E789CAFD1693F6F60F9387F6FF230087
:101BC800F60091EAFD572300F70083C7A1A523007B
:101BD800F600A38E01CC8280EDFE828097770010FC
:101BE80083C707EE139517007978BA07717603A7AC
:101BF800818686053E96C297938615003A96BA97CF
:101C0800B3E5A50223AAC18623ACF186B3E7A602F1
:101C1800B605BA9523A6B186B6073E9723A8E186EE
:101C280082806DBF138741A883D761851306F00EA4
:101C3800834607006362F60403C69184618A0DCE69
:101C480003C621A815CA95E6138611A8834606007F
:101C580089E789CAFD1693F6F60F9387F6FF2300E6
:101C6800F60091EAFD572300F70083C731A8230047
:101C7800F600A38E01CC8280EDFE82801387D1A965
:101C88008347070093F6270081CE1386C1A98346B0
:101C980006009305F00F6389B60085062300D60079
:101CA80083C7F1A999EF8280858B93961700B69721
:101CB800FD56A38FD1A883C6E1A92300D60023002F
:101CC800F700A38E01CC828095679387F77F63F92D
:101CD800A7000D89938701AA3E95BD892300B50009
:101CE800828095679387F77F63FAA700938701AA95
:101CF8000D893E95034505003D89828021818280BA
:101D08009777001083C7D7DBB3F5F5028566896737
:101D180013830680938806C01388064013850780BE
:101D2800138607C083A7818817770010130707DA7F
:101D3800B605138E05402E93AE98AE962E982E9526
:101D48002E963E9EBE953E93BE98BE963E983E9574
:101D5800B2970CC32322C701232467002326170147
:101D680014CB232A070108CF5CCF6FF0CFDF97771A
:101D780000109387A7D403C6470093D6350003C73E
:101D8800570006068606B3E6C60293973500931FEA
:101D9800370093F78703096E83AE818613080E8098
:101DA800130F0EC0056513030580930805C093053E
:101DB800054003A7818817760010130626D1B3E7DC
:101DC800F703B606369E769EF69623A6D18623A8F6
:101DD800C187AA07B3860701138E07403E93BE98B2
:101DE8003E95BE95B38EE7013A9EBA973A9333086B
:101DF80017013A95BA95BA9676971CC22322C6015E
:101E0800232466002326060108CA4CCA14CE58CEDD
:101E18006FF06FD5116741178967798D138707FDB3
:101E28006302E50E636BA7048567138707FD630BE1
:101E3800E508138707FE6318E5101388C1CC03472C
:101E4800180013860780938707C02A0783A681880E
:101E5800130507403A96BA97369536973696B69749
:101E6800F95697750010938565C62301D80098C167
:101E7800C8C190C5DCC56FF00FCF81176313F50497
:101E8800138801CD83471800056713060780AA0742
:101E9800930607C0BE9603A78188138507403E9620
:101EA8003A95BA973A963697F956977500109385EA
:101EB800E5C12301D8009CC9C8C990CDD8CD6FF021
:101EC8008FCA82801388C1CC034708001386078015
:101ED800938707C02A0783A68188130507403A9687
:101EE800BA97369536973696B697F5569775001081
:101EF8009385C5BD2301D80098C1C8C190C5DCC56C
:101F08006FF06FC6138801CD834708000567130675
:101F18000780AA07930607C0BE9603A78188138582
:101F280007403E963A95BA973A963697F55697757A
:101F380000109385A5B92301D8009CC9C8C990CDC4
:101F4800D8CD6FF04FC28280116741178967798DAC
:101F5800138707FD6302E50E636BA7048567138784
:101F680007FD630BE508138707FE6318E510138860
:101F780041CD0347180013860780938707C02A07B7
:101F880083A68188130507403A96BA9736953697FF
:101F98003696B697F95697750010938525B32301A1
:101FA800D80098C1C8C190C5DCC56FF0CFBB8117F8
:101FB8006313F504138881CD83471800056713065A
:101FC8000780AA07930607C0BE9603A781881385D2
:101FD80007403E963A95BA973A963697F9569775C6
:101FE80000109385A5AE2301D8009CC9C8C990CD1F
:101FF800D8CD6FF04FB78280138841CD03470800D2
:1020080013860780938707C02A0783A6818813054C
:1020180007403A96BA97369536973696B697F55654
:1020280097750010938585AA2301D80098C1C8C167
:1020380090C5DCC56FF02FB3138881CD83470800A6
:10204800056713060780AA07930607C0BE9603A76D
:102058008188138507403E963A95BA973A963697FF
:10206800F55697750010938565A62301D8009CC97D
:10207800C8C990CDD8CD6FF00FAF8280411126C46A
:102088004AC222C697770010938747A303C4470024
:1020980083C6570093972500918B060493843700D5
:1020A800938F270093821700B3E7870283A3818663
:1020B800858193F585038E06138F1500938E250071
:1020C80013833500938845001388550013856500F0
:1020D800138E750003A78188177600101306069FD4
:1020E800B6079E9723A6F186B3E282021249B3E7A8
:1020F8008F02939FD2009E9F23A8F18733E4840226
:10210800B6079E9723AAF186A2443604A293B3E5A4
:10211800D50223AC71863244336FDF02AA05BA9523
:102128000CC2B3E7DE029315AF00BA954CC2AA07FA
:10213800BA971CC6B365D302B3E7D802AA05BA9505
:102148004CC6AA07BA971CCAB365D802B367D502AA
:10215800AA05BA954CCA336EDE02AA07BA971CCEF6
:102168002A0E729758CE41016FF0EF9F93D7250042
:10217800177800100348C894B18B060833E70703A3
:102188001385170013862700938837009397250037
:102198008566B18BAA07977E0010938E2E971383BE
:1021A8000680938606C0177E0010130E2E92138F9A
:1021B80007403E93BE96F69783A581862328FE00A6
:1021C800F696232EDE00769F7693232AEE01232CA3
:1021D8006E009317D700AE97B366050323A6F18662
:1021E800B36706031397D6002E9723A8E18633E832
:1021F8000803B607AE9723AAF1863608C29523AC22
:10220800B1866FF04F96A1671387E7FF630AE50071
:102218001387F7FF630CE508F5176308F504828058
:10222800177700100347D7898A0593F7F50F931599
:102238003700B3E7B702056713060780930607C0A0
:1022480003A781889775001093854588AA07138589
:1022580007403E96BE963A95BA973A9636979CC1ED
:10226800C8C190C5D8C56FF00F908A0517770010C0
:102278000347078593F7F50F93151700B3E7B702E0
:1022880009669166996503A78186B607BE953E964D
:10229800BE963A96BA97BA962E9723A6F18623A8A1
:1022A800C18623AAD18623ACE186828017770010E5
:1022B800034717818A0593F7F50F93153700B3E79E
:1022C800B702056713060780930607C003A781882E
:1022D800976500109385857FAA07138507403E966A
:1022E800BE963A95BA973A9636979CC9C8C990CD82
:1022F800D8CD6FF04F87A167137505F01317050147
:102308009386075041836301D50A93860770630259
:10231800D70E938707106307F70A1767001003475C
:10232800377A0E079388350013855500938E15006C
:10233800138325001388450013866500138E7500E6
:10234800B3E5E50283A7818897660010938606782F
:10235800B3EEEE02AA05BE958CC29395AE00BE956B
:10236800CCC2B3E5E802AA05BE953363E302CCC646
:102378003368E8029318A300BE9823A41601B36536
:10238800E5021315A8003E9588CA3366E602AA0539
:10239800BE95CCCA3367EE022A063E9690CE2A072F
:1023A800BA97DCCE6FE03FFC9767001083C7477190
:1023B8008607B3E5F50283A78186B605BE9523A6F1
:1023C800B18682809767001083C7876F939617003E
:1023D80093871500B3E7D70203A78186B3E5D50233
:1023E800B607BA97B605BA9523A6B18623A8F1868B
:1023F80082809767001083C7A76C8607B3E5F5024C
:1024080083A78186B605BE9523A8B1868280976783
:1024180000109387A76A03C6470093D6450086062F
:1024280003C75700B3F6C6029397350093F787079B
:102438009315370083A8818605650968130E054042
:1024480013030880130F0580930E05C0130808C0F6
:1024580003A781881766001013064667B3E7B7021B
:102468009395160093821500938F25008D05BA0663
:10247800B602B60FB605C696C69FC695C69223A6DF
:10248800D18623AAF18723ACB18623A85186AA074F
:10249800B385C701B3866700938F07403E9FB38813
:1024A800D7013E953E98330EF701BA973303E701FB
:1024B800BA983A95BA95BA9642971CC22322C60191
:1024C800232466002326160108CA4CCA14CE58CE07
:1024D8006FE07FE913978501618793F7F5006346FD
:1024E800070093F5050495E58280176700100347F8
:1024F800275D06078607B3E7E702896603A7818693
:10250800B607BE96BA97369723A6F18623A8E18622
:102518008280176700100347B75A0E078E07B3E784
:10252800E7020566096713030680930806C01308C7
:10253800064013050780930507C003A7818897669F
:1025480000109386A658AA07138E07403E93BE989C
:102558003E963E983E95BE953A9EBA973A93BA985B
:102568003A963A983A952E979CC223A2C60123A47C
:10257800660023A6160190CA23AA060188CED8CEE3
:102588006FE07FDE976700109387475303C64700C5
:1025980083C657009397250013D74500F18B9315F1
:1025A8001600B3E7B702139636000607896519685F
:1025B80083A6818603A581889768001093880851AF
:1025C8003367C702B60711663E98BE953E96B69524
:1025D800B6973696C29623A6F18623A8B18623AA73
:1025E800C18623ACD1869317A70013870740AA9703
:1025F8003A9523A0F80023A2A8006FE0DFD69767DA
:1026080000109387A74B03C6470013D7150083C64E
:1026180057000606118B3367C70293973500139F3F
:10262800360093F787030968996283A881861303A4
:102638000880930F08C00565930E0580130E05C02A
:102648009305054083A6818817660010130606487F
:10265800B3E7E7033607116FBA923A983A9F46985C
:102668004697469F969823A6E18623A8018723AA22
:10267800E18723AC1187AA0733876700138F0740C8
:10268800B388D7013388C7013E95BE95BE9F338373
:10269800E601B697B69836983695B6953697FE966B
:1026A8001CC223226600232416012326060108CA19
:1026B8004CCA18CE54CE6FE01FCB7D773D07996783
:1026C800798D138737006307E50C6365A7041387C3
:1026D8001700630CE50E138727006311E50697675B
:1026E800001083C7F73D860593963700938715003A
:1026F800B3E7D70203A78188176600101306063DC3
:10270800B3E5D502AA07BA975CCAAA05BA950CCA56
:102718006FE07FC59D676301F50685076312F50EB7
:102728009767001083C7C7398607B3E5F50283A703
:102738008186B605BE9523A8B1868280631DF50201
:102748009767001083C7D737860593963700938716
:102758001500B3E7D70203A7818817660010130690
:10276800E636B3E5D502AA07BA975CC2AA05BA95B8
:102778000CC26FE05FBF82809767001083C7473441
:102788008607B3E5F50283A78186B605BE9523A61D
:10279800B18682809767001083C797328605939623
:1027A800370093871500B3E7D70203A78188176618
:1027B80000101306A631B3E5D502AA07BA975CCE76
:1027C800AA05BA950CCE6FE01FBA9767001083C7A9
:1027D800372F86059396370093871500B3E7D702FE
:1027E80003A78188176600101306462EB3E5D502A5
:1027F800AA07BA975CC6AA05BA950CC66FE0BFB619
:1028080082809377F50F1397170025669376E70173
:1028180013F7F70093F7070F636EC5021306000D51
:102828006387C7009306000E638FD70282801767FD
:1028380000100347E728060733E7E602896683A7FF
:1028480081863607BA963E97B69723AAE18623ACC7
:10285800F1868280130600076387C7001307000B01
:10286800E387E7FC82809766001083C67625931776
:10287800370013973600B3E7E702056609671303C5
:102888000680930806C013080640130507809305C1
:1028980007C003A781889766001093862623AA0796
:1028A800138E07403E93BE983E963E983E95BE9541
:1028B8003A9EBA973A93BA983A963A983A952E9792
:1028C8009CC223A2C60123A4660023A6160190CAAF
:1028D80023AA060188CED8CE6FE0FFA89167138798
:1028E80067016309E500938707026314F5002383F2
:1028F800B1CA82809767001083C7971C918903A784
:1029080081888E07B5E18545B3E5F5029766001025
:102918009386C61B094698C2AA05BA95CCC28D45AE
:102928003366F602B3E5F5022A063A9690C61146D2
:10293800AA05BA95CCC695453366F602B3E5F50205
:102948002A063A9690CA1946AA05BA95CCCA9D4550
:102958003366F602B3E7F5022A063A9690CEAA073E
:102968003E97D8CE6FE03FA02146B365F6022546D4
:1029780097660010938686153365F6021396A500B0
:102988003A9690C22946B365F6021316A5003A9600
:10299800D0C22D463365F6021396A5003A9690C626
:1029A8003146B365F6021316A5003A96D0C63546E9
:1029B8003365F6021396A5003A9690CA3946B36570
:1029C800F6021316A5003A96D0CA3D46B367F6023A
:1029D8001396A5003A9690CEAA073E97D8CE6FE0F8
:1029E8009F98939735009765001083C5750D8E05E0
:1029F800E18BB3E7B70205660967130306809308FE
:102A080006C01308064013050780930507C003A7EF
:102A18008188976600109386660BAA07138E074075
:102A28003E93BE983E963E983E95BE953A9EBA977E
:102A38003A93BA983A963A983A952E979CC223A216
:102A4800C60123A4660023A6160190CA23AA06017C
:102A580088CED8CE6FE03F9197680010938808061B
:102A680003C5480093971500B18B06051387270007
:102A78009386170013883700B3E7A70203A6818659
:102A880083C85800B607B297B3E6A60223A6F18614
:102A9800B367A7021397D600329723A8E186336558
:102AA800A802B607B29723AAF18636052A9623AC60
:102AB800C1866393080082808E059397380093F54A
:102AC80085039388350013855500938E150013836D
:102AD80025001388450013866500138E7500B3E53D
:102AE800F50203A7818897660010938626FEB3EE49
:102AF800FE02AA05BA958CC29395AE00BA95CCC2CF
:102B0800B3E5F802AA05BA953363F302CCC6336875
:102B1800F8029318A300BA9823A41601B365F50226
:102B28001315A8003A9588CA3366F602AA05BA951D
:102B3800CCCAB367FE022A063A9690CEAA073E97F9
:102B4800D8CE6FE05F82A967138777006365A70215
:102B5800636FF5029967FD173E95420541819947D4
:102B680063EBA71817D70100130707E50A053A957D
:102B78001C41BA978287B167138737006370A7042F
:102B8800B9676314F5068589A388B1948280A16723
:102B9800138717006303E514138727006317E502FB
:102BA8009767001083C7C7F18607B3E5F50283A7C7
:102BB8008186B605BE9523AAB1868280E3F8A7FC74
:102BC8002389B1942388B19482806317F514976799
:102BD800001083C7E7EE8607B3E5F50283A7818671
:102BE800B605BE9523A6B1868280828097670010BD
:102BF80083C717ED8E07B3E5F50283A78188AA0579
:102C0800BE959767001023A1B7EE6FE0CFF59767E1
:102C1800001083C7F7EA8E07B3E5F50283A781881A
:102C2800AA05BE959767001023AEB7EA6FE0AFF329
:102C38009767001083C7D7E88E07B3E5F50283A727
:102C48008188AA05BE959767001023A3B7E86FE0AF
:102C58008FF19767001083C7B7E68E07B3E5F502D3
:102C680083A78188AA05BE959767001023A4B7E6B5
:102C78006FE06FEF9767001083C797E48E07B3E59F
:102C8800F50283A78188AA05BE959767001023A53A
:102C9800B7E46FE04FED9767001083C777E28E07C0
:102CA800B3E5F50283A78188AA05BE95976700104A
:102CB80023A6B7E26FE02FEB9767001083C757E0B2
:102CC8008E07B3E5F50283A78188AA05BE959767A5
:102CD800001023A7B7E06FE00FE99767001083C7DC
:102CE80027DE8607B3E5F50283A78186B605BE957C
:102CF80023A8B18682809767001083C777DC8E0788
:102D0800B3E5F50283A78188AA05BE9597670010E9
:102D180023AEB7DA6FE02FE58280411122C626C4C0
:102D28004AC297670010938767D99306000F33F656
:102D3800D50283C6470013D725001377C70393949A
:102D4800160003C5570083A381869397350093F730
:102D580087070E0593821700938F2700138F37007C
:102D6800138E47001383570093886700938E77006C
:102D780083A5818817680010130848D53367970220
:102D88009356260013862600138416008D063607F0
:102D98001E9723A6E186336494021249336796028C
:102DA8001316D4001E9623A8C1863244B3E69602B1
:102DB80036071E9723AAE186A244B3E7A702B60600
:102DC8009E9623ACD186AA07AE972320F80033E756
:102DD800A202B3E7AF022A072E972322E800AA0728
:102DE800AE972324F8003367AF02B367AE022A0711
:102DF8002E972326E800AA07AE972328F800336702
:102E0800A302B3E7A8022A072E97232AE800B3EE05
:102E1800AE02AA07AE97232CF800AA0EF695232E29
:102E2800B80041016FE02FD4CDBDFD777D8DB1672E
:102E3800630AF50863F4A706B9676303F50ABD6773
:102E4800631AF51017660010034696C78A050E0622
:102E58001387150093872500138535003367C7024C
:102E680083A6818817680010130848C6B3E5C50211
:102E78002A073697232AE800B3E7C702AA05B695BA
:102E88002328B8003366C502AA07B697232CF80092
:102E98002A06B296232ED8006FE0EFCCA167630D07
:102EA800F508A9676319F50A9767001083C747C132
:102EB8008607B3E5F50283A78186B605BE9523A8E4
:102EC800B18682809767001083C787BF8607B3E5FE
:102ED800F50283A78186B605BE9523AAB1868280AE
:102EE800176600100346D6BD8A050E06138715001F
:102EF80093872500138535003367C70283A6818829
:102F080017680010130888BCB3E5C5022A0736976E
:102F18002322E800B3E7C702AA05B6952320B80024
:102F28003366C502AA07B6972324F8002A06B29684
:102F38002326D8006FE02FC39767001083C747B8D0
:102F48008607B3E5F50283A78186B605BE9523A655
:102F5800B186828082808280A56713877700636547
:102F6800A7026360F5049D67FD173E954205418100
:102F7800994763E7A71817D701001307A7A50A05FC
:102F88003A951C41BA978287B16713872700630671
:102F9800E516637FA7028D076314F5062383B19AAC
:102FA8008280A167138717006305E51A1387270036
:102FB8006318E5029767001083C787B08607B3E5F3
:102FC800F50283A78186B605BE9523AAB1868280BD
:102FD800630FF51885076312F51E2384B19A828062
:102FE800631CF51C9767001083C787AD8607B3E598
:102FF800F50283A78186B605BE9523A6B186828091
:1030080082809767001083C7B7AB8E07B3E5F502D8
:1030180083A78188AA05BE959767001023A2B7AC3D
:103028006FE06FB49767001083C797A98E07B3E561
:10303800F50283A78188AA05BE959767001023A586
:10304800B7AA6FE04FB29767001083C777A78E07BC
:10305800B3E5F50283A78188AA05BE959767001096
:1030680023A2B7A86FE02FB09767001083C757A5B2
:103078008E07B3E5F50283A78188AA05BE959767F1
:10308800001023A7B7A46FE00FAE03C7919A894732
:10309800630AF70E9767001083C797A28E07B3E5F8
:1030A800F50283A78188AA05BE959767001023A318
:1030B800B7A26FE04FAB9767001083C777A08E0762
:1030C800B3E5F50283A78188AA05BE959767001026
:1030D80023A4B7A06FE02FA99767001083C7579E56
:1030E8008E07B3E5F50283A78188AA05BE95976781
:1030F800001023A5B79E6FE00FA7A383019A8280D3
:103108001307B002638CE5061307800A6383E5089A
:103118007D476384E5081307C0076384E5086147B2
:103128006385E508130700066385E508A384019A0B
:103138009767001083C7D7988E07B3E5F50283A772
:103148008188AA05BE959767001023A1B7986FE0FC
:103158008FA19767001083C7A7968607B3E5F50286
:1031680083A78186B605BE9523A8B186828083C7CA
:10317800819A2383F19AA383F19A82808547A38455
:10318800F19A7DB79307800EE386F5F0A384019A40
:1031980011B78947A384F19A61BF8D47A384F19A37
:1031A80041BF9147A384F19A61B79547A384F19AE7
:1031B80041B7A384F19AADBF82808280411122C4B5
:1031C800138461858357040006C6A1CB1307F00E4C
:1031D8006385E70413070004638DE70E13070008EF
:1031E800638AE7141307000A6397E70003C7919AF5
:1031F80099476303F72283C7719A81CF1387619A2E
:10320800834707009306F00F638ED71885072300BE
:10321800F700B24022444101828003C7919A854653
:103228006302D72889466309D7188D46630ED72AC3
:1032380095466309D7349946E31ED7F817670010F7
:10324800034717880E071306C0053366E602930581
:10325800D00583A781889766001093862687B3E5F3
:10326800E5022A063E9690C21306E0053366E6029A
:10327800AA05BE95CCC29305F005B3E5E5022A067A
:103288003E9690C61306C0073366E602AA05BE95A9
:10329800CCC69305D007B3E5E5022A063E9690CA48
:1032A8001306E0073366E602AA05BE95CCCA930565
:1032B800F0072A063E9690CE33E7E5022A07BA972A
:1032C800DCCEEFE04F8A8357040013070004E3972E
:1032D800E7F003C7919A9147E31FF7F017560010DC
:1032E8000346167E0E069307C0061307D006B3E7FB
:1032F800C70283A68188975500109385257D33677B
:10330800C702AA07B6979CC19307E0062A07369713
:10331800D8C11307F006B3E7C7023366C702AA0786
:10332800B6979CC52A06B296D4C5EFE0CF838357DB
:1033380004006DB583C7919A11476389E71E154745
:10334800E39BE7EA9755001083C595778E05130729
:103358004007930650073367B70203A6818897573B
:1033680000109387A776B3E6B6022A07329798C368
:1033780098CB13076007AA06B296D4C3D4CB93069A
:1033880070073367B702B3E5B6022A07329798C7C2
:1033980098CFAA052E96D0C7D0CFEFD0DFFC8357A1
:1033A800040089B5B2402244A38E01CC2383019A3C
:1033B800A383019A410182809755001083C55570F7
:1033C8008E05130780073367B7029306900703A695
:1033D8008188975700109387676FB3E6B6022A076C
:1033E800329798C398CB1307A0073367B702AA068A
:1033F800B296D4C3D4CB9306B0072A07329798C79E
:1034080098CFB3E5B602AA052E96D0C7D0CFEFD095
:103418009FF5835704007DBB175700100347576A71
:103428000E0713060006930510063366E60283A707
:1034380081889756001093866669B3E5E5022A06E7
:103448003E9690C21306E005AA05BE95CCC2930528
:10345800F0053366E602B3E5E5022A063E9690C615
:103468001306C007AA05BE95CCC69305D0073366D8
:10347800E602B3E5E5022A063E9690CA1306E0077F
:10348800AA05BE95CCCA9305F0073366E60233E772
:10349800E5022A063E9690CE2A07BA97DCCEEFD0F0
:1034A8009FEC91BB9755001083C595618E05130756
:1034B80080053367B7029306900503A6818897575E
:1034C80000109387A760B3E6B6022A07329798C31D
:1034D80098CB1307A005AA06B296D4C3D4CB3367FA
:1034E800B7029306B00511BF9755001083C5555D07
:1034F8008E051307C0073367B7029306D00703A6E4
:103508008188975700109387675CB3E6B6022A074D
:10351800329798C398CB1307E007AA06B296D4C38C
:10352800D4CB3367B7029306F007C1BD1756001016
:10353800034616590E069307800613079006B3E74D
:10354800C70283A68188975500109385255833674D
:10355800C702AA07B6979CC19307A0062A07369701
:10356800D8C11307B006B3E7C7023366C702AA0774
:10357800B6979CC52A06B296D4C5EFD0DFDE83572E
:1035880004008DB117570010034797530E07130611
:1035980000073366E6029305100783A781889756CC
:1035A80000109386A652B3E5E5022A063E9690C21D
:1035B80013062007AA05BE953366E602CCC293051A
:1035C8003007B3E5E5022A063E9690C61306400783
:1035D800AA05BE953366E602CCC693055007B3E547
:1035E800E5022A063E9690CA13066007AA05BE950C
:1035F800CCCA3366E6029305700765B999671387E5
:1036080027006302E5106361A704630AF5088507CC
:103618006315F5129757001083C7974A939637009A
:1036280093871500B3E7D70203A7818817560010C0
:103638001306C649B3E5D502AA07BA975CCAAA0514
:10364800BA950CCA6FD03FD28D076319F5048A0565
:10365800175600100346C6460606138715009387BB
:103668002500138535003367C70283A68186B3E535
:10367800C50236073697B3E7C702B605B69523A63F
:10368800B18623A8E1863366C502B607B69723AA92
:10369800F1863606B29623ACD1868280828093F575
:1036A800C50F175500100345B541138715000E05C2
:1036B8001377F70F3367A7029387250093F7F70F60
:1036C80003A6818893863500175800101308084010
:1036D80093F6F60FB3E7A7022A0732972322E800EA
:1036E800B3E5A502AA07B2972324F80033E7A60298
:1036F800AA05B2952320B8009317A700B2972326EE
:10370800F8006FD05FC69757001083C7773B939632
:10371800370093871500B3E7D70203A781881756A8
:1037280000101306A63AB3E5D502AA07BA975CCEED
:10373800AA05BA950CCE6FD01FC38280411122C64C
:1037480026C44AC2937785006384070E0D899317B0
:1037580035000A0593021500930F250093043500E0
:10376800138F1700938E2700138337009388470021
:103778001388570093856700138E7700175700103A
:103788001307C733034447008346570083A3818642
:103798000604336585028E0603A781881756001034
:1037A8001306C63236051E9523A6A186B3E2820209
:1037B800124933E58F02939FD2009E9F23A8F18779
:1037C80033E4840236051E9523AAA186A244B3E7F2
:1037D800D7023604A29323AC71863244AA07BA975B
:1037E8001CC23365DF02B3E7DE022A053A9548C2F8
:1037F800AA07BA971CC63365D302B3E7D8022A05CD
:103808003A9548C6AA07BA971CCA3365D802B3E7DF
:10381800D5029315A500BA954CCA336EDE02AA07E5
:10382800BA971CCE2A0E729758CE41016FD0BFB3FB
:103838001D4E9945154891480D43894E054F8147BE
:103848008D44894F8542014515BFFD778D07316746
:103858007D8D930727006304F51263EDA702AD671A
:103868006300F51463F1A7068907630CF514631C5C
:10387800E5169757001083C7B7248E07B3E5F502FE
:1038880083A78188AA05BE959757001023A4B7245B
:103898006FD07FADB9676304F50863FAA704890799
:1038A800631EF5069757001083C797218E07B3E765
:1038B800F50203A78188AA07BA971757001023258E
:1038C800F7226FD05FAA2167630CE5062967631B9F
:1038D800E5109757001083C7A71E8607B3E5F502C2
:1038E80083A78186B605BE9523A8B1868280B56771
:1038F8006306F50689076319F50E9757001083C705
:10390800371C8E07B3E5F50283A78188AA05BE9503
:103918009757001023A6B71C6FD0FFA48280975733
:10392800001083C7F7198E07B3E5F50283A78188CE
:10393800AA05BE959757001023A6B71A6FD0BFA245
:103948009757001083C7C7178607B3E5F50283A703
:103958008186B605BE9523A6B1868280975700104A
:1039680083C717168E07B3E5F50283A78188AA05D2
:10397800BE959757001023A3B7166FD0DF9E9757B1
:10398800001083C7F7138E07B3E5F50283A7818874
:10399800AA05BE959757001023A0B7146FD0BF9CF7
:1039A8009757001083C7D7118E07B3E5F50283A791
:1039B8008188AA05BE959757001023A9B7106FD024
:1039C8009F9A9757001083C7B70F8E07B3E5F50284
:1039D80083A78188AA05BE959757001023AAB70E1A
:1039E8006FD07F98828082808280970700009387BB
:1039F800070023A8F1CA97E7FFFF938767CF23A49F
:103A0800F1CC97E700009387272023A0F1CC97E714
:103A180000009387871F23A4F1CA97E7FFFF9387C6
:103A280047CD23ACF1CA97E7FFFF9387C7CC23A202
:103A3800F1CC97E700009387671D23A6F1CA97E7A3
:103A4800FFFF938767CB23AAF1CA17570010130704
:103A5800E70697E7FFFF938747CA23AEF1CA834675
:103A6800470097B700109387E72E23A0F1880546F3
:103A780083A781866371D606896511669966BE95A6
:103A88003E96BE9623A6F18623A8B18623AAC186B0
:103A980023ACD186834757009DCB411106C603A7A7
:103AA800818897570010938767029756001093866E
:103AB800E60398C3910713070740E39CD7FEEFD0AE
:103AC8009F8AB2408545054541016F40B133854520
:103AD80005456F40313381CE8966BE9623A6F186AF
:103AE80023AAF18623A8D18623ACD18665B723A65D
:103AF800F18623A8F18623AAF18623ACF18659BF63
:103B0800170800001308080023A801CB17E8FFFFD7
:103B18001308C8BE23A401CD17E800001308C80E77
:103B280023A001CD17E800001308280E23A401CB19
:103B380017E8FFFF1308E8BB23AC01CB17E8FFFF2A
:103B4800130868BB9757001083C787F723A201CDD6
:103B580017E800001308880B8966BA07717723A64F
:103B680001CB17E8FFFF130828B903A681863E9703
:103B780023AA01CB958F17E8FFFF130808B83297DF
:103B8800B296B29723AE01CB17B800101308881C61
:103B980023A00189854523A6C186054523A8D1868A
:103BA80023AAE18623ACF1866F40D1259707000050
:103BB8009387070023A8F1CA97E7FFFF9387871425
:103BC80023A4F1CC97E700009387070423A0F1CC46
:103BD80097E700009387670323A4F1CA97E7FFFFDD
:103BE800938727B123ACF1CA97E7FFFF9387A7B064
:103BF80023A2F1CC97E700009387470123A6F1CAD7
:103C080017560010130686EB97E7FFFF9387C7AE9A
:103C180023AAF1CA8346460097E7FFFF9387E7ADDB
:103C280023AEF1CA97B700109387C71223A0F18873
:103C380003A78186896786068945BA9763DFD50415
:103C480091659966BA95BA9623A6E18623A8F18666
:103C580023AAB18623ACD186834756009DCB411158
:103C680006C603A7818897570010938727E69756BB
:103C780000109386A6E798C3910713070740E39CB3
:103C8800D7FEEFD04FEEB2408545054541016F4064
:103C98007117854505456F40F11623A6E18623AACD
:103CA800E18623A8F18623ACF1867DB717080000CA
:103CB8001308080023A801CB176800001308888F91
:103CC80023A401CD17E80000130808F423A001CDB0
:103CD80017E80000130868F323A401CB17E8FFFFD7
:103CE800130828A123AC01CB17E8FFFF1308A8A0ED
:103CF80023A201CD17E80000130848F123A601CB41
:103D080017E8FFFF1308489F83A781860966916615
:103D1800196723AA01CB17E8FFFF1308089E3E96F0
:103D2800BE963E9723AE01CB17B800101308880241
:103D380023A00189854523A6F186054523A8C186C8
:103D480023AAD18623ACE1866F40D10B97050000EA
:103D58009385050023A8B1CA97E5FFFF9385650100
:103D680023A4B1CC97E50000938505EA23A0B1CC44
:103D780097E50000938565E923A4B1CA97E5FFFF9D
:103D88009385259723ACB1CA97E5FFFF9385A59640
:103D980023A2B1CC97E50000938545E723A6B1CAD5
:103DA80097E5FFFF9385459583A781860966916608
:103DB800196723AAB1CA97E5FFFF938505943E9634
:103DC800BE963E9723AEB1CA97B50010938585F885
:103DD80023A0B18823A6F18623A8C18623AAD18669
:103DE80023ACE1869757001083C797CD9DCB41112F
:103DF80006C603A7818897570010938727CD975643
:103E080000109386A6CE98C3910713070740E39C3A
:103E1800D7FEEFD04FD5B2408545054541016F40EB
:103E2800617E854505456F40E17D411106C6975580
:103E380000109385A5C883C745007975E976BA0748
:103E48007177BE963E97AA9717050000130525FEC1
:103E580023A8A1CA175500001305657A23A4A1CC8D
:103E680017E50000130545DA23A0A1CC17E50000EB
:103E78001305A5D923A4A1CA17E5FFFF1305658774
:103E880023ACA1CA17E5FFFF1305E58623A2A1CC41
:103E980017E50000130585D723A6A1CA17E5FFFF7C
:103EA800130585F703A6818623AAA1CA83C55500F1
:103EB80017E5FFFF130565843297B296B29723AED4
:103EC800A1CA17B500101305E5E823A0A18823A609
:103ED800C18623A8D18623AAE18623ACF1869DC199
:103EE80003A7818897570010938747BE97560010FD
:103EF8009386C6BF98C3910713070740E39CD7FE74
:103F0800EFD06FC6B240F957239601CC2387F1CC86
:103F1800239801CC2389F1CC8545054541016F40A3
:103F2800616E170500001305050023A8A1CA1765CF
:103F3800000013050583411123A4A1CC17E5000057
:103F4800130585CC06C697550010938525B723A081
:103F5800A1CC17E50000130545CB83C7450023A472
:103F6800A1CA17D5FFFF1305C57823ACA1CA17D579
:103F7800FFFF1305457823A2A1CC17E50000130520
:103F8800E5C88966BA07717723A6A1CA17E5FFFFB6
:103F98001305C5FB03A681863E9723AAA1CA958F60
:103FA80017D5FFFF1305657583C555003297B2967F
:103FB800B29723AEA1CA17B500101305A5D923A03F
:103FC800A18823A6C18623A8D18623AAE18623AC8B
:103FD800F1869DC103A7818897570010938707AF83
:103FE80097560010938686B098C391071307074029
:103FF800E39CD7FEEFD02FB7B240F957239A01CCF4
:10400800238BF1CC239C01CC238DF1CC8545054530
:1040180041016F40215F170E0000130E0E0023A808
:10402800C1CB17EEFFFF130EAE1423A4C1CD17EEBC
:104038000000130E6EBD23A0C1CD17EE0000130EB5
:10404800CEBC23A4C1CB17DEFFFF130E8E6A23ACB0
:10405800C1CB17DEFFFF130E0E6A23A2C1CD17EEE8
:104068000000130EAEBA23A6C1CB17DEFFFF130E56
:10407800AE6803A7818623AAC1CB896517DEFFFF37
:10408800130EAE671166996623AEC1CB4111BA957E
:104098003A96BA9617BE0010130ECECB06C623A0CA
:1040A800C18997570010938767A223A6E186175501
:1040B80000101305A56523A8B18623AAC18623ACE1
:1040C800D18617530010130363A4975800109388E0
:1040D800E8E31758001013086823C8C7C8CF23A0FF
:1040E800670023A2170123A4070123A8670023AAB6
:1040F800170123AC0701EFD00FA7B240854505454E
:1041080041016F402150170800001308080023A838
:1041180001CB176800001308C88923A401CD17E84C
:104128000000130868AE23A001CD17E800001308AB
:10413800C8AD23A401CB17D8FFFF1308885B23ACB5
:1041480001CB17D8FFFF1308085B23A201CD17E89E
:1041580000001308A8AB23A601CB17D8FFFF13084C
:10416800A85983A7818609669166196723AA01CB96
:1041780017D8FFFF130868583E96BE963E9723AEA1
:1041880001CB17B800101308E8BC23A001898545A6
:1041980023A6F186054523A8C18623AAD18623AC88
:1041A800E1866F4021461703000013030300976858
:1041B80000009388689023A861CA23A411CD23A086
:1041C80011CD97E80000938848A423A411CB97D871
:1041D800FFFF9388085223AC11CB97D8FFFF938831
:1041E80088519757001083C7A78D23A211CD97B880
:1041F80000009388E81E8966BA07717723A611CB59
:1042080097D8FFFF9388484F03A681863E9723AA35
:1042180011CB958F97D8FFFF9388284EB297329786
:104228001388819BB29623AE11CB97B80010938860
:1042380068B223A01189854523A6C186054523A810
:10424800D1862310080023AAE1862301080023ACA5
:10425800F1862388019A23A6019A23AA019A6F401E
:10426800613A170500001305050023A8A1CA17D550
:10427800FFFF1305E547411123A4A1CC17E5000072
:104288001305859806C6975500109385258323A0A6
:10429800A1CC176500001305A59D83C7450023A47D
:1042A800A1CA17D5FFFF1305C54423ACA1CA17D56A
:1042B800FFFF1305454423A2A1CC17B50000130541
:1042C800C5148966BA07717723A6A1CA17D5FFFF57
:1042D8001305854203A681863E9723AAA1CA958F16
:1042E80017B50010130505A783C555003297B29678
:1042F800B29723A0A18817D5FFFF1305054023AE69
:10430800A1CA23A6C18623A8D18623AAE18623AC05
:10431800F1869DC103A78188974700109387077B83
:10432800974600109386867C98C391071307074029
:10433800E39CD7FEEFD02F83B2402380019C23AEAD
:10434800019A23A2019C8545054541016F40812BB7
:10435800970800009388080023A811CB97680000ED
:10436800938808B323A411CD97E800009388C889DF
:1043780023A011CD97E800009388288923A411CBA6
:1043880097D8FFFF9388E83623AC11CB97D8FFFF67
:10439800938868369747001083C7877223A211CD88
:1043A80097B80000938828090966BA07717723A689
:1043B80011CB97D8FFFF9388283403A881863E97AE
:1043C80023AA11CB918F97D8FFFF93880833C29700
:1043D80097560310938606DC4297429623AE11CB7C
:1043E80097B800109388089723A01189854523A6BC
:1043F8000187054523A8C18623A0060023AAE186D4
:1044080023A2060023ACF186239406002385060028
:10441800238E019E239F019E239D019E6F40811E36
:10442800970800009388080023A811CB976800001C
:104438009388481023A411CD97D800009388C87C8E
:1044480023A011CD97D800009388287C23A411CBF2
:1044580097D8FFFF9388E82923AC11CB97D8FFFFA3
:10446800938868299747001083C7876523A211CDD1
:1044780097D8FFFF938828338966BA07717723A6F0
:1044880011CB97D8FFFF9388282703A681863E97EC
:1044980023AA11CB958F97D8FFFF938808263297C8
:1044A800B297B29623AE11CB97B800109388888A3A
:1044B80023A0118923A6C18623A8D18623AAE18631
:1044C80023ACF186B707020317580310130848CD29
:1044D800938707102320F800B707060793874750EC
:1044E8002322F8008545054523040800A38001A47C
:1044F800238001A4238101A46F40C1101705000087
:104508001305050023A8A1CA176500001305C55B9C
:1045180023A4A1CC17D500001305056F97450010FB
:104528009385C55923A0A1CC17D500001305E56DC7
:1045380083C7450023A4A1CA17D5FFFF1305651B30
:1045480023ACA1CA17D5FFFF1305E51A23A2A1CCF6
:1045580017D500001305856B8966BA07717723A6FE
:10456800A1CA17D5FFFF1305251903A681863E9713
:1045780023AAA1CA958F17D5FFFF1305051883C570
:1045880055003297B296B29723AEA1CA17A500106C
:104598001305457C23A0A18823A6C18623A8D1861C
:1045A80023AAE18623ACF1869DC9411106C603A75B
:1045B8008188974700109387675197460010938624
:1045C800E65298C3910713070740E39CD7FEEFC054
:1045D8009FD9B2408545054541016F40A1028545F7
:1045E80005456F402102170500001305050023A8A3
:1045F800A1CA176500001305E56A411123A4A1CCDF
:1046080017D500001305456006C697450010938529
:10461800E54A23A0A1CC17D500001305055F83C781
:10462800450023A4A1CA17D5FFFF1305850C23ACA9
:10463800A1CA17D5FFFF1305050C23A2A1CC17D5D6
:1046480000001305A55C8966BA07717723A6A1CA7D
:1046580017D5FFFF1305450A03A681863E9723AAAF
:10466800A1CA958F17D5FFFF1305250983C55500E6
:104678003297B296B29723AEA1CA17A500101305B8
:10468800656D23A0A18823A6C18623A8D18623AA65
:10469800E18623ACF1869DC103A781889747001066
:1046A8009387C742974600109386464498C391075C
:1046B80013070740E39CD7FEEFC0FFCAB707020302
:1046C80017570310130787AE938707101CC3B70744
:1046D8000607938747505CC3B24097570310238B54
:1046E80007ACA38801A4238801A4238901A48545D4
:1046F800054541016F3011711708000013080800C3
:1047080023A801CB177800001308C8B623A401CD4D
:1047180017D800001308484F23A001CD17D8000070
:104728001308A84E23A401CB17D8FFFF130868FC71
:1047380023AC01CB17D8FFFF1308E8FB97470010FD
:1047480083C7073823A201CD17B80000130888D102
:104758008966BA07717723A601CB17D8FFFF13081C
:10476800A8F903A681863E9723AA01CB958F17D86F
:10477800FFFF130888F83297B296B29723AE01CBA1
:1047880017A800101308085D23A00189854523A6F2
:10479800C186054523A8D18623AAE18623ACF186E4
:1047A8006F305166970800009388080023A811CB42
:1047B80097E800009388E8F123A411CD97D800006A
:1047C8009388884423A011CD97D800009388E843A4
:1047D80023A411CB97D8FFFF9388A8F123AC11CB62
:1047E80097D8FFFF938828F19747001083C7472D74
:1047F80023A211CD97B800009388A8C90966BA0703
:10480800717723A611CB97D8FFFF9388E8EE03A80A
:1048180081863E9723AA11CB918F97D8FFFF938863
:10482800C8ED975603109386A69A42974296C29768
:1048380023AE11CB97A800109388C85123A01189E3
:10484800854523A60187054523A8C18623A0060020
:1048580023AAE18623A2060023ACF18623A406003E
:1048680023A606006F30115A17050000130505002E
:1048780023A8A1CA177500001305C5C323A4A1CC9A
:1048880017D5000013054538974500109385052373
:1048980023A0A1CC17D500001305253783C74500F1
:1048A80023A4A1CA17D5FFFF1305A5E423ACA1CA09
:1048B80017D5FFFF130525E423A2A1CC17B50000E7
:1048C8001305C5BF8966BA07717723A6A1CA17D58C
:1048D800FFFF130565E203A681863E9723AAA1CAB6
:1048E800958F17D5FFFF130545E183C5550032970E
:1048F800B296B29723AEA1CA17A500101305854535
:1049080023A0A18823A6C18623A8D18623AAE1864D
:1049180023ACF1869DCD411106C603A78188974730
:1049280000109387A71A974600109386261C98C3F1
:10493800910713070740E39CD7FEEFC0DFA2B24000
:10494800A38401AA238401AA8545054541016F3046
:10495800714B85450545A38401AA238401AA6F30BC
:10496800714A170500001305050023A8A1CA177589
:104978000000130525D723A4A1CC17D500001305E3
:10498800A52823A0A1CC17D5000013050528974515
:1049980000109385A51223A4A1CA17D5FFFF1305FC
:1049A80045D583C7450023ACA1CA17D5FFFF13051A
:1049B80085D423A2A1CC17D500001305252523A64D
:1049C800A1CA17D5FFFF130525D38966BA077177E2
:1049D80023AAA1CA17D5FFFF130525D203A68186EE
:1049E8003E9723AEA1CA958FA38501AA83C555001A
:1049F8003297B296B29717A500101305A53523A0D4
:104A0800A18823A6C18623A8D18623AAE18623AC40
:104A1800F1869DC9411106C603A7818897470010F2
:104A28009387C70A974600109386460C98C3910748
:104A380013070740E39CD7FEEFC0FF92B2408545BD
:104A4800054541016F30113C854505456F30913B67
:104A5800170500001305050023A8A1CA1775000053
:104A6800130545D2411123A4A1CC17D50000130585
:104A7800A51906C6974500109385450423A0A1CC27
:104A880017D500001305651883C7450023A4A1CADC
:104A980017D5FFFF1305E5C523ACA1CA17D5FFFF3E
:104AA800130565C523A2A1CC17D50000130505166B
:104AB8008966BA07717723A6A1CA17D5FFFF130520
:104AC800A5C303A681863E9723AAA1CA958F17D5A9
:104AD800FFFF130585C283C555003297B296B2977A
:104AE80023AEA1CA17A500101305C52623A0A188C7
:104AF80023A6C18623A8D18623AAE18623ACF18602
:104B0800B9C103A6818897460010938626FC1387AF
:104B180001AB8147A14590C22300F7008507130622
:104B2800064091060507E398B7FEEFC0DF83B24061
:104B3800238C01AAA38601AA238601AA85450545D7
:104B480041016F30312C23A801AA23AA01AAC5B7B5
:104B5800170500001305050023A8A1CA17D5FFFFF4
:104B6800130585C823A4A1CC17D5FFFF1305E56954
:104B780097450010938585F423A0A1CC17D5000094
:104B88001305A50883C7450023A4A1CA17D5FFFFAD
:104B9800130525B623ACA1CA17D5FFFF1305A5B584
:104BA80023A2A1CC17D50000130545068966BA07CC
:104BB800717723A6A1CA17D5FFFF1305E5B303A68E
:104BC80081863E9723AAA1CA958F17D5FFFF1305A3
:104BD800C5B283C555003297B296B29723AEA1CA23
:104BE80017A500101305051723A0A18823A6C186C1
:104BF80023A8D18623AAE18623ACF1869DC9411159
:104C080006C603A7818897470010938727EC974625
:104C180000109386A6ED98C3910713070740E39CFD
:104C2800D7FEEFC04FF4B2408545054541016F30CE
:104C3800711D854505456F30F11C170500001305EA
:104C4800050023A8A1CA17B500001305458A23A4A7
:104C5800A1CC17D50000130525FB23A0A1CC17D59F
:104C68000000130585FA23A4A1CA17D5FFFF130571
:104C780045A823ACA1CA17D5FFFF1305C5A723A2D2
:104C8800A1CC17B500001305458B83A78186B165B4
:104C98002166A966396723A6A1CA17D5FFFF1305A0
:104CA800A5A5BE953E96BE963E9723AAA1CA17D53E
:104CB800FFFF130585A423AEA1CA23A0B18823A6AC
:104CC800C18623A8D18623AAF18623ACE186A38CCA
:104CD80001AA23AE01AA9747001083C777DE9DCBB0
:104CE800411106C603A7818897470010938707DEFE
:104CF80097460010938686DF98C3910713070740ED
:104D0800E39CD7FEEFC02FE6B2408545054541013B
:104D18006F30510F854505456F30D10E970500005E
:104D28009385050023A8B1CA97B5000093850506A9
:104D380023A4B1CC97C500009385855D23A0B1CC91
:104D480097D50000938565EC23A4B1CA97D5FFFFDA
:104D58009385259A23ACB1CA97D5FFFF9385A5996A
:104D680023A2B1CC97D50000938545EA23A6B1CA02
:104D780097D5FFFF9385459883A781860966916635
:104D8800196723AAB1CA97D5FFFF938505973E9661
:104D9800BE963E9723AEB1CA97A50010938585FBB2
:104DA80023A0B18823A6F18623A8C18623AAD18689
:104DB80023ACE1869747001083C797D09DCB41115C
:104DC80006C603A7818897470010938727D0974680
:104DD80000109386A6D198C3910713070740E39C58
:104DE800D7FEEFC04FD8B2408545054541016F3029
:104DF8007101854505456F30F10017450010130511
:104E0800E5CB8347450079786176BA07E97671770B
:104E18003E96BE963E97C29717080000130828FED4
:104E280023A801CB17780000130868B623A401CD86
:104E380017D80000130848DD23A001CD17D80000BB
:104E48001308A8DC23A401CB17D8FFFF1308688A2E
:104E580023AC01CB17D8FFFF1308E88923A201CDA3
:104E680017A800001308E86E83A5818623A601CB46
:104E78000345550017D8FFFF13080888AE962E97EC
:104E88002E96AE9723AA01CB17D8FFFF1308E88602
:104E980023AE01CB23A0B18823A6C18623A8D1863F
:104EA80023AAE18623ACF1861DC9411106C603A7D2
:104EB800818897470010938767C1974600109386AB
:104EC800E6C298C3910713070740E39CD7FEEFC0DB
:104ED8008FC9B2408545054541016F30A1728545AE
:104EE80005456F302172170500001305050023A83A
:104EF800A1CA17A500001305657123A4A1CC17D575
:104F08000000130565D023A0A1CC17A50000130548
:104F1800A56923A4A1CA17A500001305C56623AC7B
:104F2800A1CA17C5FFFF1305057D23A2A1CC17A5AC
:104F380000001305C56F83A7818691650966A16680
:104F4800496723A6A1CA17C5FFFF1305E57ABE95D1
:104F58003E963E97BE9623AAA1CA17C5FFFF130522
:104F6800C57923AEA1CA23A0B18823A6C18623A8E8
:104F7800F18623ACE18623AAD18685472384F1AC48
:104F880023A201AC9747001083C797B39DCB41116B
:104F980006C603A7818897470010938727B39746CB
:104FA80000109386A6B498C3910713070740E39CA3
:104FB800D7FEEFC04FBBB2408545054541016F3074
:104FC8006164854505456F30E163411106C6970068
:104FD80000009380C0FF22C423A811CA97E00000F4
:104FE800938080E423A411CC97E00000938040D7FD
:104FF80023A011CC97D00000938020C197470010C0
:1050080083C707AC23A411CA97C0FFFF9380606EC3
:10501800FD1723AC11CA97C0FFFF9380C06D93980A
:10502800170023A211CC97A00000938080661385F7
:10503800180023A611CA97C0FFFF9380E06B03A650
:10504800818623AA11CABA0797C0FFFF9380E06A36
:105058001318D5000963B2971747031013074718A9
:10506800854632989745031093858519329389436D
:1050780023AE11CA97A000109380C0CD54C323A2B9
:10508800D1B2D4C123A6C1868D4223AAF186914FFD
:1050980023A0D1B0154F994E1D4E23AC018723AEE6
:1050A80001AE9747031023AD071223A271B0232442
:1050B800770023A0118823A001B223A411B323A64B
:1050C800A1B217460310232D061223A8618623A434
:1050D8001501C8C523A451B023A6F1B123A8E1B195
:1050E80023AAD1B123ACC1B1232657002328F70145
:1050F800232AE701232CD701232EC7019747001045
:105108009387C79C03A78188974600109386069EBD
:1051180098C3910713070740E39CD7FEEFC0AFA4DD
:105128002244B240A38E01B0238E01B0238F01B078
:1051380023A801B2239A01B2238B01B28545054504
:1051480041016F30214C170500001305050023A805
:10515800A1CA177500001305A589411123A4A1CC84
:1051680017D50000130545AA06C697450010938574
:10517800E59423A0A1CC17D50000130505A983C782
:10518800450023A4A1CA17C5FFFF1305855623AC04
:10519800A1CA17C5FFFF1305055623A2A1CC17A561
:1051A8000000130565568966BA07717723A6A1CA58
:1051B80017C5FFFF1305455403A681863E9723AA0A
:1051C800A1CA958F17C5FFFF1305255383C5550041
:1051D8003297B296B29723AEA1CA17A5001013054D
:1051E80065B723A0A18823A6C18623A8D18623AAB0
:1051F800E18623ACF1869DC103A7818897470010FB
:105208009387C78C974600109386468E98C391075C
:1052180013070740E39CD7FEEFC0EF94B240238802
:1052280001B6A38601B6238601B685450545410129
:105238006F30413D970500009385050023A8B1CA4A
:1052480097E500009385456523A4B1CC97E5000058
:105258009385656223A0B1CC97D500009385E59A24
:1052680023A4B1CA97C5FFFF9385A54823ACB1CA4B
:1052780097C5FFFF9385254823A2B1CC97A50000C9
:105288009385454C23A6B1CA97C5FFFF9385C546AC
:1052980023AAB1CA97C5FFFF9385254623AEB1CA95
:1052A80097A50010938505AB83A7818623A0B188B5
:1052B80009669166196723A801B83E97BE963E967F
:1052C800854523AAB1B823A6F18623ACE18623AA93
:1052D800D18623A8C18623AA01B6894723ACF1B693
:1052E800914723AEF1B6954723A0F1B8994723A279
:1052F800F1B89D4723A4F1B8411106C603A78188D8
:10530800973700109387877C973600109386067E20
:1053180098C3910713070740E39CD7FEEFC0AF84FB
:10532800B240239C01B8238D01B8A38601B8238617
:1053380001B8238701B88545054541016F30812CA7
:10534800973600109386867703C6460083C55600B5
:1053580097060000938606FF23A8D1CA97C6FFFFC9
:105368009386063923A4D1CC97D600009386C689A4
:1053780023A0D1CC97A600009386664023A4D1CA67
:1053880097C6FFFF9386E63623ACD1CA97C6FFFFC0
:105398009386663623A2D1CC97A60000938646430F
:1053A80023A6D1CA97C6FFFF9386063583A78186B1
:1053B80023AAD1CA97C6FFFF9386263423AED1CA43
:1053C80023AAF18606063D47A1463367C702B3E61E
:1053D800C60236073E9723A0E1882547B606BE9643
:1053E80023A6D186AD463367C70233E6C602360721
:1053F8003E9723A8E1863606B29723ACF1868DCD79
:10540800411106C603A78188973700109387076C58
:10541800973600109386866D98C391071307074047
:10542800E39CD7FEEFB03FF4B240238601BC85452C
:10543800054541016F30011D85450545238601BCA1
:105448006F30411C970600009386060023A8D1CA36
:10545800976600009386C67823A4D1CC97C600002F
:105468009386867A23A0D1CC97C600009386E679E6
:1054780023A4D1CA97C6FFFF9386A62723ACD1CA17
:1054880097C6FFFF9386262723A2D1CC97C6000094
:105498009386C67723A6D1CA97C6FFFF9386C625EB
:1054A80003A78186896723AAD1CA97C6FFFF938677
:1054B800C624BA9723AED1CA97A6001093868689C8
:1054C80023A0D18823A6E18623A8F18623AAE18612
:1054D80023ACF1869737001083C7975E8DCF4111B3
:1054E80006C603A78188973700109387275E9736EB
:1054F80000109386A65F98C3910713070740E39CA3
:10550800D7FEEFB05FE6B240238C01BC8545054568
:1055180041016F30210F85450545238C01BC6F3053
:10552800610E970600009386060023A8D1CA9776D5
:1055380000009386868C23A4D1CC97C6000093865E
:10554800A66C23A0D1CC97C600009386066C23A432
:10555800D1CA97C6FFFF9386C61923ACD1CA97C68E
:10556800FFFF9386461923A2D1CC97C600009386E5
:10557800E66923A6D1CA97C6FFFF9386E61703A755
:105588008186896723AAD1CA97C6FFFF9386E61644
:10559800BA9723AED1CA979600109386A67B23A00C
:1055A800D18823A6E18623A8F18623AAE18623AC25
:1055B800F1869737001083C7B7509DCB411106C6B7
:1055C80003A78188973700109387475097360010B4
:1055D8009386C65198C3910713070740E39CD7FEEB
:1055E800EFB07FD8B2408545054541016F30810154
:1055F800854505456F300101970500009385050035
:1056080023A8B1CA977500009385859223A4B1CCCD
:1056180097C500009385455F23A0B1CC97C50000CE
:105628009385A55E23A4B1CA97C5FFFF9385650C32
:1056380023ACB1CA97C5FFFF9385E50B23A2B1CC74
:1056480097C500009385855C23A6B1CA97C5FFFF5F
:105658009385850A83A7818609669166196723AAB7
:10566800B1CA97C5FFFF938545093E96BE963E97FA
:1056780023AEB1CA979500109385C56D23A0B18854
:1056880023A6F18623A8C18623AAD18623ACE18666
:105698009737001083C7D7429DCB411106C603A791
:1056A8008188973700109387674297360010938652
:1056B800E64398C3910713070740E39CD7FEEFB072
:1056C8009FCAB2408545054541016F20B1738545A4
:1056D80005456F203173170800001308080023A838
:1056E80001CB177800001308089623A401CD17C82A
:1056F80000001308685123A001CD17C80000130843
:10570800C85023A401CB17C8FFFF130888FE23AC99
:1057180001CB17C8FFFF130808FE9737001083C78F
:10572800273A23A201CD17C800001308284E89661E
:10573800BA07717723A601CB17C8FFFF1308C8FB68
:1057480003A681863E9723AA01CB958F17C8FFFF32
:105758001308A8FA3297B296B29723AE01CB1798DE
:1057680000101308285F23A00189854523A6C18658
:10577800054523A8D18623AAE18623ACF1866F20AC
:105788007168970500009385050023A8B1CA97D5CD
:10579800FFFF938585B623A4B1CC97C500009385F8
:1057A800A54623A0B1CC97C500009385054623A440
:1057B800B1CA97C5FFFF9385C5F323ACB1CA97C596
:1057C800FFFF938545F323A2B1CC97C500009385CD
:1057D800E54323A6B1CA97C5FFFF9385E5F183A7E3
:1057E800818609669166196723AAB1CA97C5FFFF22
:1057F8009385A5F03E96BE963E9723AEB1CA97957F
:1058080000109385255523A0B18823A6F18623A8E7
:10581800C18623AAD18623ACE1869737001083C7B7
:10582800372A9DCB411106C603A7818897370010F8
:105838009387C729973600109386462B98C39107FC
:1058480013070740E39CD7FEEFB0FFB1B240854590
:10585800054541016F20115B854505456F20915A2B
:10586800411106C6973600109386462583C7460021
:10587800797783C65600BA073E9783A78186BA9779
:1058880017070000130707FE23A8E1CA17C700007F
:10589800130747AF23A4E1CC17C700001307C73687
:1058A80023A0E1CC17C700001307273623A4E1CAB9
:1058B80017C7FFFF1307E7E323ACE1CA17C7FFFFCA
:1058C800130767E323A2E1CC17C7000013070734C7
:1058D80023A6E1CA17C7FFFF130707E223AAE1CAF5
:1058E80017C7FFFF130767E123AEE1CA1797001038
:1058F8001307474623A0E18823A6F18623A8F1864B
:1059080023AAF18623ACF1869DC203A78188973725
:1059180000109387A71B973600109386261D98C3FF
:10592800910713070740E39CD7FEEFB0DFA3B2400F
:10593800238D01BCA38D01BCA38C01BC8545054505
:1059480041016F20314C170500001305050023A8FD
:10595800A1CA176500001305257C23A4A1CC17C58F
:1059680000001305652A973500109385251523A097
:10597800A1CC17C500001305452983C7450023A4FA
:10598800A1CA17C5FFFF1305C5D623ACA1CA17C501
:10599800FFFF130545D623A2A1CC17A500001305C8
:1059A800A5E48966BA07717723A6A1CA17C5FFFFC0
:1059B800130585D403A681863E9723AAA1CA958F8D
:1059C80017C5FFFF130565D383C555003297B296F7
:1059D800B29723AEA1CA179500101305A53723A0C7
:1059E800A18823A6C18623A8D18623AAE18623AC51
:1059F800F1869DC9411106C603A781889737001013
:105A08009387C70C973600109386460E98C3910764
:105A180013070740E39CD7FEEFB0FF94B2408545DB
:105A2800054541016F20113E854505456F20913D93
:105A3800170500001305050097D5FFFF9385659DA1
:105A480023A8A1CA23A4B1CC23A0B1CC97C5000038
:105A58009385A51B23A4B1CA97C5FFFF938565C984
:105A680023ACB1CA97C5FFFF9385E5C823A2B1CC83
:105A780097C500009385851923A6B1CA97C5FFFF6E
:105A8800938585C783A7818609669166196723AAC6
:105A9800B1CA97C5FFFF938545C63E96BE963E9709
:105AA80023AEB1CA979500109385C52A23A0B18863
:105AB80023A6F18623A8C18623AAD18623ACE18632
:105AC8009737001083C7D7FF9DCB411106C603A7A0
