:0200000480007A
:1000000073700430735040309711001093818185D4
:1000100017010110130101FF97020000938282195A
:100020007390523073F05130170500001305C50866
:1000300097050000938545086300B5021746000048
:100040001306C63B63FAC5008322050023A05500B2
:1000500011059105E3EAC5FE174500001305053AB1
:1000600097050010938505FA1386418263FAC5004F
:100070008322050023A0550011059105E3EAC5FE82
:1000800013854182938501966377B500232005008F
:100090001105E36DB5FEC52E171500001305A54C1F
:1000A000EF10804BEF10404FC921014581451920C9
:0400B0005D2301A02B
:1000B400B70501FF4111938505F03725011006C6E8
:1000C4009D2AEF00B02C41657D157923EF10A01116
:1000D400A54723A6F1827D5582807D15854763E679
:1000E400A7008967DCC101458280A54723A6F18268
:1000F4007D558280054582800145828019C17D55E8
:10010400828041113735011022C406C62E84192479
:100114002300A400B2402244054541018280170710
:1001240000101307E7F31C43938601963E95636B17
:10013400D50097F600109386A66C63E5A60008C365
:100144003E858280FD573E858280011122CC4EC6B9
:1001540006CE26CA4AC82E84B289EF10C06529C5C6
:1001640033093401A944639909003DA005043735D6
:10017400011079226302240383450400E39895FE69
:10018400B54537350110AD2A8345040037350110D4
:100194000504BD22E31224FF4E85F2406244D2449A
:1001A4004249B249056182807D55C5BF5D7106C073
:1001B40012C216C41AC61EC82ACA2ECC32CE36D0D3
:1001C4003AD23ED442DC46DEF2C0F6C2FAC4FEC6DF
:1001D400F322103416D6F322203416D8F32200303A
:1001E40016DA732520348A856524B252739012344A
:1001F400C25273902234D25273900230824012421F
:10020400A2423243C2435245E245724682561257D5
:10021400A2576258F258064E964E264FB64F616169
:1002240073002030AA8711C5584D0145D98DCCCF14
:1002340082807D558280AA8701C9184193C5F5FF44
:100244000145F98D8CC382807D558280AA872DC596
:10025400584589464D8F58C56306D60463EBC600DE
:1002640005CA184901454D8F98CBD84BD98DCCCBB5
:1002740082800D47631CE600144913C7F5FF01454E
:10028400D58D8CCBD44B758FD8CB828001458280A1
:10029400144913C7F5FF0145758F98CBD84BD98DF9
:1002A400CCCB8280184993C5F5FF01456D8F98CB5F
:1002B400D84BF98DCCCB82807D55828019C1084DF5
:1002C40082807D558280AA8715C9170700100327ED
:1002D40067D9B355B7021307000858C50145FD1582
:1002E40013D785001377F70FD8C393F5F50F8CC395
:1002F4001307600C98C70D47D8C782807D5582804C
:1003040001C95C4993F70702EDDF0CC10145828006
:100314007D55828001C95C49858BF5DF08411375E1
:10032400F50F82801305F00F8280B7C7000203A780
:1003340087FF83A7C7FF411106C622C426C2BA8617
:1003440037C60002032786FF8327C6FFF32400B0C5
:10035400E38AE6FEB7C5000203A685FF83A6C5FFB0
:100364003304E640F32700B0E368A4FEB384974067
:10037400B3F58402228681461395F500C581EF000A
:10038400706733D68402B2402244924441013E064F
:10039400329582804111054506C6413FB24013059E
:1003A4004006410159B7AA8541111306803E814692
:1003B4003E05C58106C6EF00F063B7C7000203A679
:1003C40087FF83A6C7FFAA8837C800022E850323A8
:1003D40088FF8323C8FFB305C3403337B300B38713
:1003E400D340998FE3E5A7FE6314F500E3E115FF1D
:1003F400B24041018280411122C42A8417250000A1
:100404001305054B06C6EF10803AA2851725000098
:100414001305454BEF106028F32510341725000011
:100424001305454BEF106027F325303417250000E2
:100434001305454BEF10602601A0411122C42A8404
:10044400172500001305054B06C6EF104036A2859C
:100454001725000013050547EF102024F325103459
:100464001725000013050547EF102023F32530342A
:100474002244B240172500001305C54641016F1000
:10048400C021B7B7C4049387074023A2F1808280B8
:1004940041119317450106C622C4D1836351050255
:1004A4002D476383E7048A071387C183BA979C4364
:1004B40091C38297B240224401454101828029467A
:1004C4002A87AE86636BF6008A0713864186B29745
:1004D4009C43EDD3B6853A85E9BF9707000093871F
:1004E400C7F1B6853A85F1B7F32740F13707200CF9
:1004F400B2071107BA978043C147E3ED87FA131790
:10050400240093870189BA979C4391C38297F32768
:1005140040F13707200CB2071107BA9780C359BFBF
:10052400C14763E0A70413172500B707000CBA9767
:100534008CC309C693870189BA9790C3F32740F106
:100544003727000C9E07BA97944305473315A70035
:10055400558D88C385679387078073A0473001450D
:1005640082807D558280411106C622C42535AA8722
:1005740013844180B7050300372501101CC05D3189
:10058400F1659385052037350110353B17260000AA
:1005940013068637972500009385C5371725000075
:1005A40013050538EF10600F972500009385C539B2
:1005B4001725000013058539EF10200E0C40172570
:1005C40000001305E539EF10400D970600009386EF
:1005D400C6E2938741861387018994C39107E39EFA
:1005E400E7FE17070000130787E5938701899386C1
:1005F400418D98C39107E39EF6FE9387C18393864A
:10060400418698C39107E39ED7FE3706000C8146C6
:10061400B728000C05484545F32740F19E07C697C7
:100624008C433317D8001347F7FF6D8F98C32320EB
:10063400060085061106E391A6FEF32740F137076D
:10064400200CB2402244B207BA9723A0070041010C
:100654008280828082808280931605013707208001
:1006640037662980AA961307075013060650930786
:1006740007B094C39107E39EE7FE13870750E3187E
:10068400C7FE82809347F5FF93D8F74113C8F5FF5F
:10069400B307A600AE9633F5A8001358F841C20775
:1006A4001396060193080028B375B800C1874186E4
:1006B4002A8863D4A8001308002842081305001EE2
:1006C40013580841AE866354B5009306001EC20653
:1006D40013050028C186BE856354F50093050028E0
:1006E400C2051305001EC185B2876354C500930774
:1006F400001EC207C18713C6F7FF7D8613C5F5FF29
:100704007D8E7D859317060183C841826D8DC187D7
:10071400638E08024208C206135808019305002894
:10072400C1829307001E3385A5403386C740B38535
:100734000541958F131805019316060113950501BC
:10074400C207135808414185C186C18763D5F6069F
:10075400139626009385F7FF3696958D9307F5FF3C
:100764008506B3870741C205C206C1861E06C1813C
:10077400C207B695C183B306C800BE9693982500F8
:1007840003A3C180C6958606090393C7F7FF939810
:1007940075009A9693951700B387D5006357A80000
:1007A4002390E7008907E39DD7FE13060628938666
:1007B4000650E31316FF828093F7760013D83600B1
:1007C400B337F000C29713D81600B38707037971C3
:1007D400011622D626D44AD24ED052CE56CC5ACA6C
:1007E4005EC862C666C46AC203C8418293F7F70F43
:1007F4001376F60F631C0810638D070E931316000F
:10080400931F3600B29313184600B29FFD17139638
:100814002300972400009384745D9723000093833E
:10082400A3158A0FC29493F7F70FB293972200008F
:100834009382C25B17360000130646BAB149B29FD1
:1008440083AEC180C292BE942E86414AE14A138986
:10085400818013846182130FF01D130BF0276386CC
:10086400361D6387461F6396560903C80F0013039A
:10087400160093180301130E860093D80801420E44
:10088400B388B840135E0E0125A8931726003E9640
:100894001E062A960606769609E783570900231052
:1008A400F60013160301060841821378F80F6362F9
:1008B400CF04638FD81485086302C6171303160088
:1008C40093172600B2979E07AA97931B8801860761
:1008D40093DB8B41F697E3DA0BFA03560400060820
:1008E4001378F80F2390C700131603014182E372B3
:1008F400CFFC3254A25412598259724AE24A524BE2
:10090400C24B324CA24C124D45618280FDD3131967
:100914001600131436003299131846003294FD174A
:1009240013162900172A0000130A5A4C172900002D
:10093400130989040A04429A93F7F70F329997240A
:1009440000009384A44A17360000130626A9314BED
:10095400329483AFC180C2943E9A2E86414CE14CBE
:10096400930BF0279303F01D938A8180938961820E
:100974009302F01D130DF0276389660D638D860DB8
:10098400E39996F703480400930E1600338EAB40A8
:1009940013930E01130F860013530301420E420FEB
:1009A400135E0E013303B340135F0F0125A89317A1
:1009B40026003E961E06729606067E9609E783D7A3
:1009C4000A002310F60013960E01060841821378DC
:1009D400F80FE3E0C2F2630DD30405036300CF060E
:1009E400930E16003386C3404206418293172600B5
:1009F400B2979E0793188801F297860793D8884187
:100A0400FE97E3D608FA03D609002390C70065BF12
:100A1400050542054181E36EABEC2E868502850314
:100A2400850FE38892ECE39E36E303C8030081B5A7
:100A3400050542054181E36EADEA2E86850405096C
:100A44000504E38844EBE39B66F3034809002DBFE8
:100A540003C8020029BD03C804003DB7797122D43C
:100A640026D24AD006D64ECE52CC56CA5AC85EC6F4
:100A740062C43E8983C70700AE842A84938507FE37
:100A84002A9693F5F50F1305E005A696636EB50453
:100A940093190601139A06013A8C93D90901135A42
:100AA4000A01135B1700937BF40F930AE00529A84E
:100AB4002133834709005A944204138607FE1376B0
:100AC400F60F418063E2CA023E860147E2860509C9
:100AD400B387840163663401939407015E84C18003
:100AE4002285A685E3E644FDB2502254925402596D
:100AF400F249624AD24A424BB24B224C456182804F
:100B040041113725011006C6EFF04FFBC1476303BF
:100B1400F504930700026309F502930700046305D3
:100B2400F50493070008630DF50291476304F50487
:100B3400A1476305F50405476306E50409476318FF
:100B4400E5002384F18221A089472384F182B24005
:100B540041018280B24085472384F1824101828031
:100B640091472384F182E5B7B2408D472384F18213
:100B74004101828095472384F182D1BF9947238420
:100B8400F182F1B79D472384F182D1B741119305D6
:100B9400F00F3725011006C6EFF0EFE90146930583
:100BA400F00F37250110EFF06FEA17060000130667
:100BB40066F585453D45AD3273600430B240410170
:100BC4008280411122C44164130704FE9306800C01
:100BD400130600199305C0081305800706C65D3483
:100BE4001307F4FF9306000C1306801893050009FD
:100BF4001305C007413C973700009387E7536147CB
:100C0400E146130680139305700D1305C00EB93524
:100C140097370000938747536147E1461306401412
:100C2400930590101305800F153D83C7B18281EBA6
:100C3400B70038208280B2402244410182800547B7
:100C44006385E7020947638DE7020D476386E70280
:100C54001147638EE7021547638FE7021947E39C48
:100C6400E7FCB70070208280F9B7B7004820828083
:100C7400B240224441018280B7005020828065BF87
:100C8400B70068208280B240224441018280B700CC
:100C9400582082804DB7B7006020828069BF03C7A7
:100CA400A18283A7018101EF156713070734D8C315
:100CB4001D671307A70298C77D5798C3828085468E
:100CC4006300D7028946E319D7FE3567130707E89F
:100CD400D8C349671307C7D798C77D5798C382807D
:100CE4001D6713070704D8C335671307A7E698C71A
:100CF4007D5798C38280411106C683C79182A9E3B8
:100D04001308007E97370000938707456147E14643
:100D140013068007A94513053002239301833D3B45
:100D2400B24023930182973700009387A74361471A
:100D3400E14613068007A94513053016410139BB66
:100D44001308007E973700009387C7416147E14647
:100D540013068007A9451305301623930183FD3933
:100D6400B24023930182973700009387E73E61479F
:100D7400E14613068007A945130530024101F9B97C
:100D8400411122C41384B182834704007D5726C2D3
:100D94002394E18006C6239301829384618289E7C8
:100DA400930700802390F400973700009387473C13
:100DB4006147E14613068007930530023D457939C2
:100DC400034704002393018285476316F7009307C2
:100DD40000802390F400973700009387273A6147F7
:100DE400E146130640089305C0033D458539034792
:100DF40004002393018289476316F7009307008058
:100E04002390F40097370000938707386147E14641
:100E14001306C006930550053D4589310347040078
:100E2400239301828D476316F70093070080239074
:100E3400F400973700009387E7356147E1461306CE
:100E4400C0099305E0063D45113903470400239387
:100E5400018291476316F700930700802390F40002
:100E640097370000938707346147E1461306C009AA
:100E7400930570083D45DD36034704002393018242
:100E840095476316F700930700802390F400973783
:100E94000000938727326147E1461306C006930595
:100EA400000A3D45653E03470400239301829947A8
:100EB4006316F700930700802390F4002244B240A5
:100EC4009244973700009387A72F6147E1461306A2
:100ED400000C9305900B3D45410149B6411122C4D4
:100EE4001384A182834704007D5726C22394E180A2
:100EF40006C6239301829384618289E79307008065
:100F04002390F400973700009387C72C6147E1468C
:100F140013064008930530021305A01481360347D5
:100F240004002393018285476316F700930700802A
:100F34002390F400973700009387872A6147E1469E
:100F44001306C00C9305C0031305A014013E034708
:100F540004002393018289476316F70093070080F6
:100F64002390F4002244B2409244973700009387C0
:100F740067286147E1461306800A93055005130567
:100F8400A0144101E1BC411122C441641305F4FFE2
:100F940006C6EFF06FEC7D479306601D1306C0266E
:100FA40095452945EFF00FEE1307F4FF9306E01C77
:100FB40013064026A5453945EFF0CFEC2D3BC93348
:100FC4002244B240410119BF3727011083C78182EF
:100FD4005443F9171166411193B71700F18E06C6F1
:100FE40022C4D58FD1EF13868182834706005443F0
:100FF400856593F7F70FFD1793B71700ED8ED58F1F
:10100400B1EF834606005C434C432165E98F93F6B8
:10101400F60F0965E98DF516CD8F93B61600D58FB9
:101024006393070E83470600114493F7F70F638712
:1010340087005C43B7060020F58FC1CB13058007FA
:10104400EFF06FB62384018283C74182638F070C5C
:10105400238201822244B240410135B7130580073F
:10106400EFF06FB42384018283C79182C1E71387B1
:10107400B1828347070085CBFD172300F70025A025
:1010840013058007EFF02FB22384018283C7918276
:1010940099EF1387B18283470700954663E5F6000D
:1010A40085072300F7002244B2404101D1B91387D8
:1010B400A18283470700854663E5F6008507230080
:1010C400F7002244B240410111BD83470600544356
:1010D400B705008093F7F70FE91793B71700ED8E64
:1010E400D58FA1CB83A7018123A00700B24022445E
:1010F400410182801387A18283470700F9D3FD173A
:101104002300F7007DBF13058007EFF0CFA91387F5
:101114009182834707002384018293B71700230039
:10112400F7002244B2404101F9B685472382F18297
:1011340015B7834706005443B705000293F7F70F2A
:10114400E51793B71700ED8ED58FA1EB8347060003
:101154005443B705000193F7F70FE11793B717004E
:10116400ED8ED58FB1EF834706005843B706004094
:1011740093F7F70FED1793B71700758FD98FBDD776
:1011840013058007EFF02FA22384018283C7918285
:10119400B9E72244B24041012DB413058007EFF0B2
:1011A4008FA013874181834707006367F400850795
:1011B40093F7F70F2300F70003A701815CC73DB73E
:1011C40013058007EFF02F9E1387418183470700A3
:1011D400E5D7FD1793F7F70F2300F700F1BF22447B
:1011E400B24041016DBC411106C6A3850182613B39
:1011F400E13BFDBFAA88AE87328836854683639675
:101204000620973600009386E6FF63FFC50A416710
:101214006375E60A1307F00F3337C7000E0733551B
:10122400E600AA9683C60600130500023697B306A5
:10123400E540630BE500B395D70033D7E8003318D6
:10124400D600D98D3393D80093580801B3D615032B
:101254001316080141829357030133F715033685AA
:10126400B305D6024207D98F63FCB700C297138532
:10127400F6FF63E7070163F5B7001385E6FFC2973E
:101284008D8F33F71703420313530301B3D71703A7
:10129400420733636700B306F6023E86637BD300DE
:1012A40042931386F7FF636603016374D3001386C6
:1012B400E7FF4205518D81455DA83705000141478F
:1012C400E36FA6F46147A1BF01E605473358C7029F
:1012D4004167637FE8081307F00F63730701214533
:1012E4003357A800BA9603C70600130600022A97CC
:1012F400B306E6406315E608B3870741854593586E
:10130400080113160801418213570301B3F61703AA
:10131400B3D71703C206558F330EF6023E85637C9E
:10132400C70142971385F7FF636707016375C70118
:101334001385E7FF42973307C741B3771703420387
:101344001353030133571703C20733E36700B3068C
:10135400E6023A86637BD30042931306F7FF636683
:1013640003016374D3001306E7FF4205518D8280A5
:10137400370700014145E365E8F6614595B7331841
:10138400D80033D5E7003393D800B397D70033D7C9
:10139400E800935808013366F70033771503931771
:1013A4000801C183935506013355150342074D8F38
:1013B400B386A702AA85637CD70042979305F5FFFD
:1013C400636707016375D7009305E5FF4297B3068A
:1013D400D74033F7160342064182B3D616034207B9
:1013E4003385D702B367C700368763FCA700C2976B
:1013F4001387F6FF63E7070163F5A7001387E6FF8A
:10140400C297C205898FD98DDDBD63E2D5144167CA
:1014140063FFE6021307F00FB335D7008E0533D50B
:10142400B600173700001307E7DD2A9703470700C4
:10143400130500022E97B305E5406311E502054547
:10144400E3E7F6F233B5C800134515000DB73707C7
:101454000001C145E3E5E6FCE145D1B73358E600B8
:10146400B396B6003368D80033D3E700935E08011F
:10147400B376D303B397B70033D7E800331EB6006F
:101484003366F70093170801C183135706013353DA
:10149400D303C206558F338F67021A85637CE70135
:1014A40042971305F3FF636707016375E7011305AB
:1014B400E3FF42973307E741B376D7033357D703A4
:1014C400C2063383E70293170601C183D58F3A8698
:1014D40063FC6700C2971306F7FF63E7070163F530
:1014E40067001306E7FFC2974205C16E518D9386CC
:1014F400FEFF13560E0113580501B387674033737B
:10150400D500B376DE00330ED302B306D8021357E8
:101514000E013303C30236931A973308C802637368
:10152400D700769893560701369863E00703E3944F
:1015340007D9C167FD177D8F4207337EFE00B3983C
:10154400B80072978145E3F4E8E27D15ADB38145B7
:10155400014531BDAA8581460146014515A14111C8
:1015640022C426C217340000130404E9973400008F
:10157400938484E8058C06C6098411E4B2402244AD
:101584009244410182807D1493172400A6979C43C2
:101594008297E5B7411122C426C217340000130410
:1015A400A4E597340000938424E5818C4AC006C6E0
:1015B4008984014963159902173400001304C4E3B4
:1015C40097340000938444E3818C89840149631D2A
:1015D4009900B240224492440249410182801C4055
:1015E400050911048297F9B71C4005091104829773
:1015F400F9BF3D432A876373C3029377F700BDEFB6
:10160400ADE5937606FF3D8ABA960CC34CC30CC76E
:101614004CC74107E36BD7FE11E28280B306C34097
:101624008A069702000096966780A6002307B700F3
:10163400A306B7002306B700A305B7002305B70028
:10164400A304B7002304B700A303B7002303B70020
:10165400A302B7002302B700A301B7002301B70018
:10166400A300B7002300B700828093F5F50F93968B
:101674008500D58D93960501D58D61B79396270086
:101684009702000096968682E78086FA9680C117B4
:101694001D8F3E96E374C3F8A5B75D7122D406D6B8
:1016A4002A842EDA32DC36DEBAC0BEC2C2C4C6C652
:1016B40003A5818111C51C4D81E72AC6692B3245DA
:1016C4000C455418228636CEEF00701DB2502254B9
:1016D40061618280011126CA4AC806CE22CC4EC658
:1016E40052C4AA842E8901C51C4D91E3AD239C4CA0
:1016F400804499E32685852397370000938787C222
:10170400631CF402C0408357C400A18BB1C71C48BA
:10171400A1C7FD59294A1C4483450900FD17B1E9B5
:101724001CC463DE07062286A94526857920FD5759
:101734006308F502294535A097370000938787C0D1
:101744006314F4008044C1B797370000938787BBC4
:10175400E31BF4FAC04445BFA2852685392A55D92E
:101764007D55F2406244D2444249B249224A05615D
:1017740082801CC4050963D70700184C63CBE700BB
:10178400638945011C401387170018C02380B700E4
:1017940059B7228626851520E31F35F7D1B71C409B
:1017A4001387170018C029472380E70061B7AA856B
:1017B40003A5818105B76FE0FF93011122CC26CAEE
:1017C4004AC806CE4EC6AA842E89328401C51C4D51
:1017D40091E35121973700009387C7B46319F40646
:1017E400C0401C4C1CC48357C400A18BC9C31C48F3
:1017F400BDCF1C4808409379F90F1379F90F1D8D5B
:101804005C486346F500A2852685052E2DE51C441B
:101814000505FD171CC41C401387170018C023803E
:1018240037015C486389A7008357C400858B81CB4B
:10183400A9476316F900A285268501260DEDF2401D
:101844006244D244B2494A8542490561828097374D
:101854000000938727AF6314F400804459B7973787
:101864000000938727AAE31EF4F6C0449DBFA28517
:10187400268521203DDD7D59D9B7411122C426C2D8
:101884004AC006C683A481812A892E8489C49C4CBB
:1018940099E32685C926973700009387A7A863177D
:1018A400F402C0408317C4001397070193F687001E
:1018B4004183ADEA9376070195EA25472320E900A1
:1018C40093E707042316F4007D5571A897370000A9
:1018D400938747A76314F4008044E9B7973700005F
:1018E400938747A2E310F4FCC0446DBF118B0DC76E
:1018F4004C5889C9930744046384F5004A85752BC1
:10190400232A04028357C4002322040093F7B7FD5B
:101914002316F4001C481CC08357C40093E78700B7
:101924002316F4001C4881EF8357C40013070020DA
:1019340093F707286385E700A2854A85C5218317A5
:10194400C4001397070193F6170041839DC25448BE
:1019540023240400B306D04014CC1448014581E686
:101964001377070831FFB2402244924402494101EF
:10197400828093762700014691E2504810C4F1BF5B
:10198400AA88138501831C4181EF1387418D18C1F7
:1019940013050000BA8709C51C412324F708BA8738
:1019A400D8437D487D556346E804638D080203A847
:1019B40087086300080413152700429510C1032308
:1019C400081005463316E6003363C300232068106D
:1019D4002320D50889466397D80083264810558E5E
:1019E4002322C810930617000A07D4C3BA978CC7DA
:1019F4000145828083D7C500011122CC26CA06CEB8
:101A04004AC84EC613F78700AA842E8475E3D841CA
:101A14006347E000B8416344E000014575A85854A9
:101A24006DDF856603A90400F58F23A00400A5CF0C
:101A340068488357C400918B99C75C401D8D5C58DE
:101A440099C33C401D8D5C540C502A8681462685E2
:101A54008297FD570357C400631DF5009440F54772
:101A640063E3D708B70740208507B3D7D700858B32
:101A7400BDCB1C48232204001CC085677D8F19C779
:101A8400FD576314F5009C4091E368C84C5823A0AB
:101A94002401C1D5930744046384F50026853129C4
:101AA400232A04029DBF0C508546014626850297D1
:101AB400FD57E310F5F89C40ADDF75476385E700FB
:101AC40059476395E70023A0240181BF8357C400CD
:101AD40093E707042316F400F2406244D2444249D7
:101AE400B24905618280136707042316E400EDB749
:101AF40083A90501E38309F203A905008D8B23A0C3
:101B0400350133093941014791E3D84918C4E356F3
:101B140020F11C540C50CA864E8626858297634A4F
:101B2400A0008357C4007D5593E707042316F400EF
:101B340065B7AA993309A940D9BF9C49B9CF011106
:101B440022CC06CE2A8411C51C4D81E72EC6212243
:101B5400B245972700009387E77C639BF5004C40D0
:101B64008397C50095C722856244F240056159B543
:101B7400972700009387077D6394F5000C44CDB745
:101B84009727000093870778E39CF5FC4C44C9BF72
:101B9400F240624401450561828001458280411121
:101BA40022C406C62A842316B5002317C5002320A1
:101BB40005002322050023240500232205062328EB
:101BC4000500232A0500232C050021468145130521
:101BD400C505053497170000938727B05CD0971785
:101BE4000000938787B21CD4971700009387C7B669
:101BF4005CD497170000938787B9B24000D01CD8F3
:101C040022444101828097050000938545F3A1A2F7
:101C1400411126C2130680069384F5FFB384C402DF
:101C24004AC02E8922C406C693854407052E2A84F9
:101C340001CD2320050023222501310508C4138684
:101C440084068145EFF0FF9AB240228522449244F3
:101C54000249410182801C4DADE3411122C406C6F4
:101C640097070000938767FA1CD5232405042326CD
:101C740005042328050483A701822A846314F5003C
:101C840085471CCD22851D2848C02285052808C407
:101C940022852D2048C4484001469145093708440F
:101CA4000546A545ED3D48440946C945CD3D854712
:101CB400B2401CCC2244410182808280411126C260
:101CC40083A401829C4C4AC006C622C42A8999E393
:101CD40026855137938484048044DC40FD1763D601
:101CE40007009C40B9CF8440C5BF0317C40039E73F
:101CF400C17785072322040623200400232204003D
:101D0400232404005CC423280400232A0400232C75
:101D14000400214681451305C405EFF09F8D232A55
:101D24000402232C04022324040423260404B240C2
:101D3400228522449244024941018280130484068C
:101D440071BF91454A85E93588C02A8449FDB14768
:101D54002320F900E9BF797122D44AD04ECE52CC67
:101D64005AC85EC606D626D256CA2A892E8A1304B3
:101D740085048149054BFD5B0444832A4400FD1A14
:101D840063D00A0200406DF8B250225492540259B2
:101D9400624AD24A424BB24B4E85F2494561828037
:101DA40083D7C400637BFB008397E40063877701D8
:101DB400A6854A85029AB3E9A90093848406C1B72B
:101DC4005971CAD02E898395E500A2D4A6D286D6AD
:101DD4003284B68463DC05008317C90023A00400A1
:101DE40093F7070895E3930700400DA03000EF0038
:101DF400701FE34305FE3247BD67F98F7977BA97C1
:101E040093B717009CC0C5B793070004B6501CC015
:101E140026549654065901456561828083D7C500CE
:101E2400011122CC06CE26CA4AC8898B2E8489CFBA
:101E3400930774041CC01CC885475CC8F240624404
:101E4400D244424905618280740030002A898D3F62
:101E5400A245AA844A85192201ED8317C40013F709
:101E6400072069FFF19B93E727002316F400C9B705
:101E740097070000938767D92324F9028357C40086
:101E840008C008C893E707082316F400A2475CC8F3
:101E9400B24791CF8315E4004A85EF00501701C97A
:101EA4008357C400F19B93E717002316F4000355EE
:101EB400C400C98C2316940051B7C5C183A7C5FFBC
:101EC400011122CC06CE1384C5FF63D307003E94D0
:101ED4002AC6EF00B01A138741831C43324589EBAD
:101EE4002322040000C36244F24005616F003019EC
:101EF400637DF4001040B306C4006396D700944396
:101F0400DC43B29614C05CC0F1BF3E87DC4399C386
:101F1400E37DF4FE14433306D700631F86001040AC
:101F2400B29614C33306D700E39FC7FA9043DC4349
:101F3400B29614C35CC345BF6375C400B1471CC1EA
:101F44005DB71040B306C4006396D7009443DC43E6
:101F5400B29614C05CC040C379B78280011126CA0E
:101F640093843500F1984AC806CE22CC4EC6A1040B
:101F7400B1472A8963F2F404B14463E1B4044A85A5
:101F8400EF00D00F9386418398423A8439E013845A
:101F940081831C4089E781454A85112F08C0A685A5
:101FA4004A853127FD59631A3507B1472320F900C3
:101FB4004A85EF00D00C31A0E3D104FCB1472320C3
:101FC400F9000145F2406244D2444249B2490561F4
:101FD40082801C40858F63CF07022D466376F6000E
:101FE4001CC03E9404C029A05C40631387029CC2B9
:101FF4004A85EF00D0081305B400930744006199A3
:102004003307F540E300F5FC3A94898F1CC05DBFAB
:102014005CC3F9BF2287404095BF13043500719813
:10202400E30285FCB305A4404A855125E31C35FB36
:10203400ADBF1C46FD171CC663DA0700184E63C506
:10204400E700A9476394F5006FF02FF71C422E8533
:102054001387170018C22380B7008280011122CC95
:1020640026CA4AC84EC652C406CE2A89AE893284CC
:10207400B304D6007D5A63149400014509A883452E
:1020840004004E864A8575370504E31645FFF24081
:102094006244D2444249B249224A05618280357180
:1020A40022CD26CB4AC94EC706CF52C556C35AC104
:1020B400DEDEE2DCE6DAAA89AE843289368401C542
:1020C4001C4D91E3493E972700009387A725639B06
:1020D400F40C83A4490083D7C400A18BF5C79C48A2
:1020E400E5C793070002A304F1029307000302D299
:1020F4002305F10222C6930B5002972A0000938A0B
:102104006A26054C294B4A848347040099C363908B
:10211400770FB30C2441630D2401E6864A86A68515
:102124004E852D3FFD576304F51E9257E6973ED228
:1021340083470400638D071CFD571309140002C86C
:1021440002CE3ECA02CCA309010482D4834509000D
:10215400154656853927C2471304190059E913F760
:10216400070109C713070002A309E10413F7870055
:1021740009C71307B002A309E10483460900130742
:10218400A0026380E608F2474A8481462546034755
:10219400040093051400130707FD6379E60AB5CA22
:1021A4003ECE85A8972700009387C7196395F4004E
:1021B40083A489000DB7972700009387A714E39C95
:1021C400F4F083A4C90001BFA6854E85EFF0EFEAC1
:1021D40009D97D55FA406A44DA444A49BA492A4A37
:1021E4009A4A0A4BF65B665CD65C0D6182800504F4
:1021F40021BF330555413315AC00C98F3EC8228930
:10220400B1B7324793064700184336C663490702FD
:102214003ACE034704009307E002631FF704034721
:1022240014009307A002631BF702B2470904138743
:1022340047009C433AC663C107023ECA35A8330728
:10224400E04093E727003ACE3EC8E1B7B38767037F
:102254002E848546BA9725BFFD57C5B7050402CA23
:10226400814681472546034704009305140013075C
:1022740007FD6374E606F1F2834504000D46172555
:1022840000001305A50EF12B11CD972700009387AD
:10229400E70D1D8D93070004B397A700424505047D
:1022A4005D8D2AC8834504001946172500001305CF
:1022B400250C130914002304B10265232DC19307CF
:1022C400000095E74247B2471377071009CF9107FB
:1022D4003EC69257D2973ED23DB5B38767032E844C
:1022E4008546BA9749B79D07E19BA107D5B7780002
:1022F400970600009386C6D626860C084E8597005E
:102304000000E7000000FD572A8AE314F5FC83D798
:10231400C40093F70704E39E07EA125565BD7800ED
:10232400970600009386C6D326860C084E85012A9C
:10233400D9BF797152CC9C493A8A984522D426D285
:102344004ECE56CA06D64AD05AC85EC6AA892E842C
:10235400B284B68A63D3E700BA879CC003473404C7
:1023640019C385079CC01C4093F7070281C79C4092
:1023740089079CC00329040013796900631A0900C2
:10238400130B9401FD5B5C449840998F634CF904F2
:1023940083473404B336F0001C4093F70702A5EBDF
:1023A40013063404D6854E85029AFD576303F5045B
:1023B4001C4011469840998B544481446397C7004C
:1023C400B384E64063D3040081441C441848635436
:1023D400F700998FBE94014969047D5B63982405D5
:1023E400014509A885465A86D6854E85029A631EFC
:1023F40075017D55B250225492540259F249624AF1
:10240400D24A424BB24B456182800509ADBF3307C6
:10241400D40013060003A301C7040347540493879D
:102424001600A2978906A381E7049DBF85462286EC
:10243400D6854E85029AE30E65FB050945B7797189
:1024440022D426D24AD04ECE06D652CC56CA5AC828
:1024540003C8850193078007AA842E843289B6892C
:1024640063EE0701930720069386350463ED0701A5
:102474006305081C93078005630AF812930A240471
:102484002301040515A89307D8F993F7F70F5546C8
:10249400E366F6FE17260000130686F08A07B29755
:1024A4009C43B29782871C43938A250493864700F2
:1024B4009C4314C32381F50485475DA29C410843D2
:1024C40013F60708930545000DC21C410CC363D8DD
:1024D40007001307D002B307F040A301E404172652
:1024E4000000130666E92948A1A013F607041C415D
:1024F4000CC371DEC207C187D9BF90411C43137559
:1025040006089385470001C50CC39C4339A0137684
:1025140006040CC37DDA83D707001307F0061726D9
:102524000000130666E56304E80E2948A3010404C9
:10253400584018C4634507000C40ED990CC099E35A
:10254400B68A19CFB68A33F70703FD1A32970347C1
:1025540007002380EA003E87B3D70703E37507FF2C
:10256400A147631EF8001C40858B91CB58401C4842
:1025740063C7E70093070003A38FFAFEFD1AB3862F
:10258400564114C84E87CA867000A28526855533E5
:102594007D5A631B450D7D55B25022549254025905
:1025A400F249624AD24A424B45618280A3820505C0
:1025B40017260000130646DC0C40084313F80508F0
:1025C4001C411105630D080208C313F7150001C768
:1025D40093E505020CC04148B1FB18401377F7FDA1
:1025E40018C0A9B79C4193E707029CC193078007D1
:1025F400A302F40417260000130646D975BF13F886
:10260400050408C3E30308FCC207C1837DBF214856
:1026140031BF90411C43CC49137806081385470009
:102624006306080008C39C438CC301A808C313763F
:1026340006049C4375DA2390B70023280400B68A65
:1026440091B71C43D04181459386470014C383AAA4
:1026540007005685392401C53305554148C05C40FF
:102664001CC8A301040439BF14485686CA852685AC
:102674008299E30245F31C40898B8DE7B2474844B5
:10268400E35CF5F03E8509BF85465686CA852685F6
:102694008299E30265F1050A5C443247998FE34568
:1026A400FAFEE9BF014A930A94017D5BF5B7411133
:1026B40022C42A842E8523A6018206C6EFD03FA613
:1026C400FD576316F50083A7C18291C31CC0B240B5
:1026D400224441018280411122C42E848395E50065
:1026E40006C6792A634905007C48AA977CC8B2408B
:1026F4002244410182808357C4007D777D17F98F7E
:102704002316F400EDB783D7C500011122CC26CAE5
:102714004AC84EC606CE93F70710AA842E8432897F
:10272400B68991C78395E5008946014629228357D6
:10273400C4007D777D17F98F8315E4002316F40018
:102744006244F240CE864A86B24942492685D24442
:1027540005613DA8411122C42E848395E50006C677
:10276400D928FD570357C400631BF500FD77FD17F7
:10277400F98F2316F400B240224441018280856718
:10278400D98F2316F40068C8FDB78395E5003DA0F2
:10279400411122C42A842E85B285368623A601825D
:1027A40006C6EFD09F9AFD576316F50083A7C18232
:1027B40091C31CC0B240224441018280411122C411
:1027C4002A842E8523A6018206C6EFD07F90FD576A
:1027D4006316F50083A7C18291C31CC0B240224492
:1027E40041018280411122C42A842E85B28523A608
:1027F400018206C6EFD07F8EFD576316F50083A7CE
:10280400C18291C31CC0B240224441018280411163
:1028140022C42A842E8523A6018206C6EFD09F8D6A
:10282400FD576316F50083A7C18291C31CC0B24053
:10283400224441018280411122C42A842E85B2851A
:10284400368623A6018206C6EFD01F8BFD5763167A
:10285400F50083A7C18291C31CC0B2402244410148
:10286400828093F5F50F2A966314C5000145828092
:1028740083470500E38DB7FE0505FDB7828082809E
:10288400411122C42A842E85B285368623A601826C
:1028940006C6EFD0BF86FD576316F50083A7C18235
:0C28A40091C31CC0B2402244410182805C
:1028B0005472617020696E20457863657074696F29
:1028C0006E0D00004D43415553453A203078256C3C
:1028D000780D0A004D45504320203A203078256C71
:1028E000780D0A004D5456414C203A203078256C22
:1028F000780D0A005472617020696E20496E74650B
:1029000072727570740D000032333A32303A3133DE
:10291000000000004E6F7620323920323032330012
:1029200048756D6D696E67426972642053444B202F
:102930004275696C642054696D653A2025732C20BA
:1029400025730D0A00000000494C4D00446F776E5E
:102950006C6F6164204D6F64653A2025730D0A0029
:10296000435055204672657175656E637920256CFC
:102970007520487A0D0A00000000000000000000E9
:1029800000000000000000003F40000000000000C8
:1029900000003000400030004000000009000BC083
:1029A0003D000BC03D00090018C024407FE02240DC
:1029B00031800000180024C01B000D8032400180CF
:1029C00003801C4027401C8007400040100060002E
:1029D00000000000000000000000000000001F8058
:1029E000204040200000402020401F8000000000C8
:1029F000090006001F800600090000000400040012
:102A00003F8004000400000000100060000000008F
:102A100000000000040004000400040004000000A2
:102A2000000000400000000000000000002001C085
:102A300006003800400000001F8020402040204059
:102A40001F800000000010403FC000400000000058
:102A500018C021402240244018400000108020402F
:102A6000244024401B80000002000D0011003FC0E4
:102A7000014000003C80244024402440238000008A
:102A80001F80244024403440038000003000200098
:102A900027C03800200000001B8024402440244030
:102AA0001B8000001C0022C0224022401F8000002A
:102AB00000000000084000000000000000000000CE
:102AC0000460000000000000000004000A00110083
:102AD00020804040090009000900090009000000A9
:102AE00000004040208011000A000400180020006F
:102AF00023402400180000001F8020402740294068
:102B00001F400000004007C039000F0001C0004016
:102B100020403FC0244024401B8000001F802040F4
:102B2000204020403080000020403FC02040204016
:102B30001F80000020403FC024402E4030C00000D5
:102B400020403FC024402E00300000000F001080C5
:102B5000204022403380020020403FC00400040097
:102B60003FC02040204020403FC020402040000087
:102B70000060202020203FC02000200020403FC0D7
:102B800024400B0030C0204020403FC02040004087
:102B9000004000C03FC03C0003C03C003FC00000FC
:102BA00020403FC00C4023003FC020001F80204039
:102BB000204020401F80000020403FC024402400CF
:102BC000180000001F802140214020E01FA00000CD
:102BD00020403FC02440260019C0004018C02440B7
:102BE0002440224031800000300020403FC020407F
:102BF0003000000020003F80004000403F80200067
:102C000020003E0001C0070038002000380007C047
:102C10003C0007C038000000204039C0060039C021
:102C2000204000002000384007C03840200000004D
:102C3000304021C02640384020C000000000000085
:102C40007FE0402040200000000070000C00038066
:102C5000004000000000402040207FE00000000015
:102C600000002000400020000000000000100010C4
:102C700000100010001000100000000040000000D4
:102C800000000000000002800540054003C0004035
:102C900020003FC004400440038000000000038087
:102CA000044004400640000000000380044024402B
:102CB0003FC0004000000380054005400340000085
:102CC000000004401FC0244024402000000002E017
:102CD000055005500650042020403FC00440040029
:102CE00003C000400000044027C000400000000076
:102CF00000100010041027E00000000020403FC03A
:102D00000140070004C00440204020403FC0004074
:102D10000040000007C0040007C0040003C000001A
:102D2000044007C00440040003C0004000000380CA
:102D30000440044003800000041007F004500440E5
:102D400003800000000003800440045007F00010DE
:102D5000044007C0024004000400000000000640D8
:102D60000540054004C00000000004001F8004402E
:102D700000400000040007800040044007C00040FD
:102D80000400070004C0018006000400060001C022
:102D9000070001C006000000044006C0010006C094
:102DA000044000000410071004E001800600040045
:102DB0000000044005C00640044000000000000080
:102DC00004007BE040200000000000000000FFF055
:102DD00000000000000040207BE004000000000034
:102DE0004000800040002000200040000000000063
:102DF00000000000000000000000000000000000D3
:102E000000001FCC000C00000000000000000800C3
:102E1000300060000800300060000000022003FC69
:102E20001E20022003FC1E200220000000000E18BD
:102E300011043FFF10840C78000000000F00108484
:102E40000F3800C0077818840078000000780F84DD
:102E500010C411240E9800E40084000808006800E3
:102E600070000000000000000000000000000000F2
:102E7000000007E018182004400200000000400293
:102E80002004181807E00000000000000240024083
:102E900001800FF0018002400240000000800080AD
:102EA00000800FF800800080008000000001000D0D
:102EB000000E000000000000000000000000008084
:102EC0000080008000800080008000800000000CF6
:102ED000000C0000000000000000000000000006E0
:102EE000001800600180060018002000000007F0B4
:102EF000080810041004080807F000000000080487
:102F000008041FFC000400040000000000000E0C78
:102F100010141024104411840E0C000000000C1832
:102F200010041104110412880C700000000000E06D
:102F30000320042408241FFC0024000000001F9824
:102F4000108411041104108810700000000007F0B4
:102F500008881104110418880070000000001C008B
:102F6000100010FC13001C001000000000000E38C0
:102F700011441084108411440E3800000000070032
:102F8000088C10441044088807F00000000000007E
:102F90000000030C030C0000000000000000000013
:102FA0000001010600000000000000000000008099
:102FB0000140022004100808100400000220022032
:102FC0000220022002200220022000000000100443
:102FD00008080410022001400080000000000E00DC
:102FE0001200100C106C10800F00000003E00C1891
:102FF00013E4142417C4082807D000000004003C80
:1030000003C41C40074000E4001C000410041FFC23
:103010001104110411040E880070000003E00C1864
:1030200010041004100410081C10000010041FFCF1
:10303000100410041004080807F0000010041FFC1E
:103040001104110417C410040818000010041FFC18
:103050001104110017C010000800000003E00C1854
:103060001004100410441C780040000010041FFCE1
:1030700010840080008010841FFC100400001004E5
:1030800010041FFC100410040000000000030001E5
:10309000100110011FFE10001000000010041FFCA2
:1030A000110403801464181C1004000010041FFC99
:1030B0001004000400040004000C000010041FFCB5
:1030C0001F0000FC1F001FFC1004000010041FFC68
:1030D0000C04030000E010181FFC100007F00808A3
:1030E000100410041004080807F0000010041FFC6E
:1030F00010841080108010800F00000007F0081866
:1031000010241024101C080A07F2000010041FFCF1
:103110001104110011C011300E0C000400000E1C2F
:1031200011041084108410441C3800001800100092
:1031300010041FFC100410001800000010001FF8FD
:1031400010040004000410041FF8100010001E00FA
:1031500011E0001C007013801C0010001FC0103C08
:1031600000E01F0000E0103C1FC000001004180C1D
:10317000163401C001C01634180C100410001C00D5
:10318000130400FC13041C00100000000804101CB1
:103190001064108413041C041018000000000000C8
:1031A00000007FFE400240024002000000003000AC
:1031B0000C0003800060001C0003000000004002BF
:1031C000400240027FFE00000000000000000000FE
:1031D00020004000400040002000000000010001ED
:1031E0000001000100010001000100010000400099
:1031F00040002000000000000000000000000098D7
:10320000012401440144014400FC000410001FFC9F
:1032100000880104010400880070000000000070B4
:10322000008801040104010400880000000000700F
:1032300000880104010411081FFC0004000000F8CC
:10324000014401440144014400C80000000001049D
:1032500001040FFC1104110411001800000000D635
:1032600001290129012901C90106000010041FFCE0
:10327000008401000100010400FC000400000104BE
:10328000190419FC00040004000000000000000301
:1032900000010101190119FE0000000010041FFCCB
:1032A0000024004001B4010C0104000000001004DF
:1032B00010041FFC0004000400000000010401FCD5
:1032C0000104010001FC0104010000FC010401FCF7
:1032D000008401000100010400FC0004000000F86B
:1032E000010401040104010400F80000010101FFD0
:1032F00000850104010400880070000000000070D7
:10330000008801040104010501FF0001010401041A
:1033100001FC00840104010001800000000000CCD9
:10332000012401240124012401980000000001006F
:10333000010007F80104010400000000010001F889
:10334000000400040004010801FC000401000180E5
:103350000170000C001001600180010001F0010CFF
:10336000003001C00030010C01F001000000010438
:10337000018C00740170018C0104000001010181C5
:103380000171000E0018016001800100000001843D
:10339000010C013401440184010C00000000000014
:1033A0000000000001003EFC40024002000000005E
:1033B00000000000FFFF00000000000000004002CD
:1033C00040023EFC01000000000000000000600020
:1033D000800080004000400020002000000000002D
:1033E00000000000000000000000000000000000DD
:1033F00000000000000000000000000000000000CD
:103400000000000000000000000000000000000FAD
:1034100080380FFE380F80380000000000000000E8
:103420000000000000000000000001000006000095
:103430000C00003800003100000600000C000038CD
:103440000000300000000000000000006180006704
:10345000F807F98000618000618000618000618070
:103460000067F807F980006180000000000000009C
:10347000000001C0E003E0F00630080418081FFF58
:10348000FE040E080787F00381E000000000000042
:1034900001F000060C00040408060C7001F9C000DD
:1034A0000E00003BE000EC18070808040C180003AD
:1034B000E00000000001E00007F003F818041C0819
:1034C00004170807E1D003C0E00023B0003C080067
:1034D0002008000010000000000000010000310082
:1034E000003200001C00000000000000000000008E
:1034F00000000000000000000000000000000000CC
:103500000000000000000000000000007F0001FF3C
:10351000C00780F00C00181000042000020000001A
:103520000000002000021000040C00180780F001C9
:10353000FFC0007F0000000000000000000000004D
:10354000000000000000000042000066000066006D
:10355000003C0000180003FFC0001800003C000001
:10356000660000660000420000000000080000083D
:103570000000080000080000080001FFC00008006B
:10358000000800000800000800000800000000001B
:10359000000100003100003200001C0000000000AB
:1035A000000000000000000000000000000000001B
:1035B00000000000080000080000080000080000EB
:1035C00008000008000008000008000008000008CB
:1035D000000000000000000000000000380000387B
:1035E00000003800000000000000000000000000A3
:1035F00000000000000000000000000000060000C5
:103600001C000070000180000E0000380000C000A7
:103610000700001C00003000000000000000000057
:103620007F8001FFE003807006001804000804009A
:103630000806001803807001FFE0007F8000000092
:10364000000000000000010008010008010008035C
:10365000FFF807FFF800000800000800000800005D
:103660000000000000000001C03802C058040098AB
:10367000040118040218040418061C1803F81801A1
:10368000E0F800000000000000000001C0E003C0FE
:10369000F004000804080804080806180803F418D1
:1036A00001E7F00001E00000000000000000000061
:1036B0000300000D000011000061000081080301FB
:1036C0000807FFF80FFFF8000108000108000000DC
:1036D0000000000000E007FCD006080806100806FD
:1036E0001008061008061838060FF00607C000007C
:1036F00000000000000000003F8001FFE003843074
:103700000208180410080410080410080718100311
:103710000FF00007C000000000000000000003C020
:10372000000700000600000600F80607F80618006B
:1037300006E0000700000600000000000000000195
:10374000E1E003F7F0063410041808041808040C2C
:1037500008040C0806161803F3F001C1E00000008D
:1037600000000000F80003FC3003063804020804DF
:1037700002080402080404100308F001FFC0007FDF
:103780000000000000000000000000000000000039
:103790000000000070380070380070380000000031
:1037A0000000000000000000000000000000000019
:1037B0000000000000000000301A00301C00000073
:1037C00000000000000000000000000000000000F9
:1037D00000000008000014000022000041000080EA
:1037E00080010040020020040010080008000000D2
:1037F0000000000021000021000021000021000045
:1038000021000021000021000021000021000021F2
:103810000000000000000000000008000804001084
:1038200002002001004000808000410000220000D2
:10383000140000080000000000000003C00004C0E5
:1038400000040000080038080F3808083808100085
:103850000C300007E00003C0000000000000000082
:103860003F8000FFE0038070020F1006708804C0E4
:1038700088048308047F8802C09003012000FE4072
:103880000000080000180001F8003E0801C200070F
:10389000020007E20000FE00001FC80001F800005F
:1038A0003800000804000807FFF807FFF8040808BC
:1038B00004080804080804080806180803F4180196
:1038C000E7F00001E0000000000000003F8001FF81
:1038D000E0038070020018040008040008040008D7
:1038E0000400100600200780C00000000400080744
:1038F000FFF807FFF80400080400080400080400AB
:103900001802001003807001FFE0007F80000000BB
:1039100004000807FFF807FFF80408080408080473
:103920000808040808043E080400080600180100FE
:103930006000000004000807FFF807FFF80408080B
:10394000040800040800040800043E000600000605
:103950000000018000000000000000003F8001FF27
:10396000E00380700600180400080402080402083E
:103970000203F00783F000020000020004000807C1
:10398000FFF807FFF8040808000800000800000816
:103990000000080004080807FFF807FFF804000803
:1039A00000000000000004000804000804000807EC
:1039B000FFF807FFF80400080400080400080000EE
:1039C00000000000000000000006000007000001E9
:1039D00004000104000104000307FFFE07FFFC04CC
:1039E000000004000004000004000807FFF807FFBF
:1039F000F8040C08001800003E0004C7800503C846
:103A00000600F80400380400180000080400080745
:103A1000FFF807FFF8040008000008000008000095
:103A20000800000800000800001800006000000006
:103A300004000807FFF807800807FC00007FC000AB
:103A400003F80007C000780007800807FFF807FFA9
:103A5000F804000804000807FFF807000803C00086
:103A600000E000003800001E000007000001C00454
:103A700000F007FFF8040000000000007F8001FF55
:103A8000E00380700600180400080400080600180F
:103A900003003001FFE0007F800000000400080701
:103AA000FFF807FFF80404080404000404000404F9
:103AB00000040400060C0003F80001F00000000000
:103AC000000000007F8001FFE00380700600880492
:103AD00000880400C806003C03003E01FFE6007FAA
:103AE0008400000004000807FFF807FFF804080836
:103AF000040800040C00040F00040BC00610F003BF
:103B0000F03801E00800000800000001E0F803F0D0
:103B100030063010041808041808040C08040C08B7
:103B20000206180207F00781E0000000018000068D
:103B3000000004000004000004000807FFF807FF6D
:103B4000F8040008040000040000060000018000E2
:103B500004000007FFE007FFF00400180000080061
:103B6000000800000800000800000804001007FF1B
:103B7000E004000004000006000007E00007FE006B
:103B8000041FE00001F80000380001E0043E0007D7
:103B9000C00006000004000004000007E00007FF6A
:103BA000C0041FF80007C007F80007FF80043FF8B3
:103BB0000007C004F8000700000400000000000433
:103BC000000806001807C07805F1C8003E00001F75
:103BD000800463E80780F80600180400080000006D
:103BE00004000006000007800007E008047C0800CD
:103BF0001FF80007F800180804E008070000060096
:103C0000000400000000000100080600380400F86D
:103C10000403E8040F08047C0805F00807C008073F
:103C20000018040060000000000000000000000018
:103C3000000000000000003FFFFE20000220000204
:103C4000200002200002200002000000000000000E
:103C5000000008000007000000C000003800000657
:103C6000000001C000003000000E00000100000054
:103C700000000000000020000220000220000220BE
:103C800000022000023FFFFE0000000000000000D4
:103C9000000000000000000000000000000800001C
:103CA000100000300000200000300000100000086C
:103CB0000000000000000000000001000001000002
:103CC00001000001000001000001000001000001EE
:103CD00000000100000100000100000100000000E0
:103CE0000000000000200000200000100000100074
:103CF00000000000000000000000000000000000C4
:103D00000000000000F00019F8001B180022080055
:103D10002608002408002410003FF8001FF80000C7
:103D20000800001800000004000007FFF80FFFF073
:103D300000181800100800200800200800301800A3
:103D40001FF0000FC00000000000000007C0001FAF
:103D5000F0001830002008002008002008003C086F
:103D6000001C1000006000000000000000000000C7
:103D700007C0001FF00038180020080020080020AD
:103D80000804101007FFF80FFFF0000010000000FB
:103D90000000000000000007C0001FF0001230000B
:103DA0002218002208002208003208001E10000E0F
:103DB0002000000000000000200000200800200873
:103DC00001FFF803FFF80620080420080420080774
:103DD000200003000000000000000000000E000EA4
:103DE0006E001FF30031B10020B10020B10031910D
:103DF000001F13002E1E00200E00300000000004E3
:103E0000000807FFF80FFFF800100800200000204E
:103E100000002008003FF8001FF800000800000024
:103E20000000000000000020080020080020080614
:103E30003FF8063FF80000080000080000080000F6
:103E4000000000000000000000000000030000036C
:103E5000002001002001002003063FFE063FFC0079
:103E6000000000000000000000000004000807FF40
:103E7000F80FFFF8000188000300002FC00038F899
:103E800000203800200800000800000000000000AA
:103E9000000004000804000804000807FFF80FFFF2
:103EA000F800000800000800000800000000000002
:103EB000002008003FF8003FF80010080020000034
:103EC0003FF8003FF8001008002000003FF8003FD6
:103ED000F8000008000000002008003FF8003FF84C
:103EE000001008001000002000002008003FF8002B
:103EF0001FF80000080000000000000007C0000FCD
:103F0000F0001830003008002008002008003008B9
:103F1000001830000FF00007C00000000000000093
:103F20002001003FFF003FFF00101100200900208A
:103F300008002008003038001FF0000FC00000000B
:103F40000000000007C0001FF00038180020080023
:103F50002008002009001011001FFF003FFF000093
:103F600001000000002008002008002008003FF8A1
:103F7000003FF8000808001008002008002000009A
:103F80003000003000000000000000000000000CC5
:103F900078001E180033080023080021080021883B
:103FA0000021980030F000386000000000000000A0
:103FB000200000200000200000FFF003FFF8002098
:103FC0000800200800200800003000000000000069
:103FD000000000002000003FF0007FF80000180003
:103FE0000008000008002010003FF8007FF00000EB
:103FF00010000000000000002000003000003C0025
:10400000003F800023F00000780000700023800053
:104010003C00003000002000002000003C00003F79
:10402000E00023F80000E0002700003E00003FE031
:104030000021F80001E0003E000020000000000028
:104040002008002008003838003E68002780000360
:10405000C8002CF8003838002018002008000000A4
:10406000000000002000003003003C01003F8300FE
:1040700023EC000070002380003C000020000020A2
:104080000000000000000000000000380800203898
:104090000020F80023E8002F88003E0800380800C0
:1040A0002018000070000000000000000000000068
:1040B000000000000000000008000014001FF7FCD2
:1040C0003000062000020000000000000000000098
:1040D0000000000000000000000000000000FFFFE2
:1040E000FF000000000000000000000000000000D1
:1040F0000000000000002000023000061FF7FC0056
:104100001400000800000000000000000000000093
:1041100000000000000000180000600000400000E7
:10412000400000200000100000080000040000040F
:1041300000000C000010000047616D65206368619D
:104140006E67696E67210000506C6561736520774A
:10415000616974210000000047616D65204C69733E
:10416000740000004D75736963204C69737400001E
:10417000312E466C7920426972640000322E47610C
:104180006D65203230343800332E436F6E747261A7
:1041900000000000342E5375706572204D61726905
:1041A0006F000000352E53616C616D616E64657245
:1041B00000000000362E4369726375730000000032
:1041C000372E492063616E2072656D656D62657280
:1041D00000000000312E54776F207469676572000B
:1041E000322E6F6E6C79204D79205261696C477563
:1041F0006E000000332E54616B65204D65204861D0
:104200006E640000000102020303030304040404BB
:104210000404040405050505050505050505050552
:104220000505050506060606060606060606060632
:10423000060606060606060606060606060606061E
:104240000606060607070707070707070707070702
:1042500007070707070707070707070707070707EE
:1042600007070707070707070707070707070707DE
:1042700007070707070707070707070707070707CE
:1042800007070707080808080808080808080808B2
:10429000080808080808080808080808080808089E
:1042A000080808080808080808080808080808088E
:1042B000080808080808080808080808080808087E
:1042C000080808080808080808080808080808086E
:1042D000080808080808080808080808080808085E
:1042E000080808080808080808080808080808084E
:1042F000080808080808080808080808080808083E
:10430000080808080000000000000000000000008D
:10431000000000000000000000000000000000009D
:10432000000000000000000000000000000000008D
:10433000000000000000000000000000000000007D
:10434000000000000000000000000000000000006D
:10435000000000000000000000000000000000005D
:1043600000000000232D302B20000000686C4C0062
:10437000656667454647000030313233343536379D
:104380003839414243444546000000003031323361
:104390003435363738396162636465660000000081
:1043A0000AE1FFFF20E1FFFFE0E0FFFFE0E0FFFFA9
:1043B000E0E0FFFFE0E0FFFF20E1FFFFE0E0FFFFC4
:1043C000E0E0FFFFE0E0FFFFE0E0FFFF76E2FFFF5D
:1043D0005EE1FFFF48E2FFFFE0E0FFFFE0E0FFFFFC
:1043E000A6E2FFFFE0E0FFFF5EE1FFFFE0E0FFFF8E
:0843F000E0E0FFFF50E2FFFFD7
:1043F8000000000024430080444300800443008000
:1044080000000000000000000000000000000000A4
:104418000000000000000000000000000000000094
:104428000000000000000000000000000000000084
:104438000000000000000000000000000000000074
:104448000000000000000000000000000000000064
:10445800C001009000B4C404FFFF000000002080E9
:1044680000004080040000000000009000000000F0
:0444780000000090B0
:040000058000000077
:00000001FF
